{
  "_format": "hh-sol-artifact-1",
  "contractName": "BabanukiNFT",
  "sourceName": "contracts/BabanukiNFT.sol",
  "abi": [
    {
      "inputs": [],
      "stateMutability": "nonpayable",
      "type": "constructor"
    },
    {
      "anonymous": false,
      "inputs": [
        {
          "indexed": true,
          "internalType": "address",
          "name": "owner",
          "type": "address"
        },
        {
          "indexed": true,
          "internalType": "address",
          "name": "approved",
          "type": "address"
        },
        {
          "indexed": true,
          "internalType": "uint256",
          "name": "tokenId",
          "type": "uint256"
        }
      ],
      "name": "Approval",
      "type": "event"
    },
    {
      "anonymous": false,
      "inputs": [
        {
          "indexed": true,
          "internalType": "address",
          "name": "owner",
          "type": "address"
        },
        {
          "indexed": true,
          "internalType": "address",
          "name": "operator",
          "type": "address"
        },
        {
          "indexed": false,
          "internalType": "bool",
          "name": "approved",
          "type": "bool"
        }
      ],
      "name": "ApprovalForAll",
      "type": "event"
    },
    {
      "anonymous": false,
      "inputs": [
        {
          "indexed": false,
          "internalType": "uint256[]",
          "name": "player1Hand",
          "type": "uint256[]"
        },
        {
          "indexed": false,
          "internalType": "uint256[]",
          "name": "player2Hand",
          "type": "uint256[]"
        },
        {
          "indexed": false,
          "internalType": "uint256[]",
          "name": "player1Discarded",
          "type": "uint256[]"
        },
        {
          "indexed": false,
          "internalType": "uint256[]",
          "name": "player2Discarded",
          "type": "uint256[]"
        }
      ],
      "name": "CardDrawn",
      "type": "event"
    },
    {
      "anonymous": false,
      "inputs": [
        {
          "indexed": false,
          "internalType": "address",
          "name": "winner",
          "type": "address"
        }
      ],
      "name": "GameOver",
      "type": "event"
    },
    {
      "anonymous": false,
      "inputs": [
        {
          "indexed": true,
          "internalType": "address",
          "name": "player1",
          "type": "address"
        },
        {
          "indexed": true,
          "internalType": "address",
          "name": "player2",
          "type": "address"
        },
        {
          "indexed": false,
          "internalType": "uint256[]",
          "name": "player1Hand",
          "type": "uint256[]"
        },
        {
          "indexed": false,
          "internalType": "uint256[]",
          "name": "player2Hand",
          "type": "uint256[]"
        }
      ],
      "name": "GameStarted",
      "type": "event"
    },
    {
      "anonymous": false,
      "inputs": [
        {
          "indexed": true,
          "internalType": "address",
          "name": "recipient",
          "type": "address"
        },
        {
          "indexed": true,
          "internalType": "uint256",
          "name": "tokenId",
          "type": "uint256"
        },
        {
          "indexed": false,
          "internalType": "string",
          "name": "tokenURI",
          "type": "string"
        }
      ],
      "name": "NFTAwarded",
      "type": "event"
    },
    {
      "anonymous": false,
      "inputs": [
        {
          "indexed": false,
          "internalType": "uint8",
          "name": "currentPlayerIndex",
          "type": "uint8"
        },
        {
          "indexed": false,
          "internalType": "uint8",
          "name": "targetPlayerIndex",
          "type": "uint8"
        },
        {
          "indexed": false,
          "internalType": "uint256",
          "name": "chosenCard",
          "type": "uint256"
        }
      ],
      "name": "NpcTurn",
      "type": "event"
    },
    {
      "anonymous": false,
      "inputs": [
        {
          "indexed": true,
          "internalType": "address",
          "name": "from",
          "type": "address"
        },
        {
          "indexed": true,
          "internalType": "address",
          "name": "to",
          "type": "address"
        },
        {
          "indexed": true,
          "internalType": "uint256",
          "name": "tokenId",
          "type": "uint256"
        }
      ],
      "name": "Transfer",
      "type": "event"
    },
    {
      "inputs": [],
      "name": "PLAYER_COUNT",
      "outputs": [
        {
          "internalType": "uint8",
          "name": "",
          "type": "uint8"
        }
      ],
      "stateMutability": "view",
      "type": "function"
    },
    {
      "inputs": [
        {
          "internalType": "address",
          "name": "to",
          "type": "address"
        },
        {
          "internalType": "uint256",
          "name": "tokenId",
          "type": "uint256"
        }
      ],
      "name": "approve",
      "outputs": [],
      "stateMutability": "nonpayable",
      "type": "function"
    },
    {
      "inputs": [
        {
          "internalType": "address",
          "name": "owner",
          "type": "address"
        }
      ],
      "name": "balanceOf",
      "outputs": [
        {
          "internalType": "uint256",
          "name": "",
          "type": "uint256"
        }
      ],
      "stateMutability": "view",
      "type": "function"
    },
    {
      "inputs": [
        {
          "internalType": "string",
          "name": "tokenURI",
          "type": "string"
        }
      ],
      "name": "claimNFT",
      "outputs": [],
      "stateMutability": "nonpayable",
      "type": "function"
    },
    {
      "inputs": [
        {
          "internalType": "uint256",
          "name": "",
          "type": "uint256"
        }
      ],
      "name": "deck",
      "outputs": [
        {
          "internalType": "uint256",
          "name": "",
          "type": "uint256"
        }
      ],
      "stateMutability": "view",
      "type": "function"
    },
    {
      "inputs": [
        {
          "internalType": "uint8",
          "name": "playerIndex",
          "type": "uint8"
        },
        {
          "internalType": "uint8",
          "name": "targetPlayerIndex",
          "type": "uint8"
        },
        {
          "internalType": "uint256",
          "name": "targetCardIndex",
          "type": "uint256"
        }
      ],
      "name": "drawCard",
      "outputs": [],
      "stateMutability": "nonpayable",
      "type": "function"
    },
    {
      "inputs": [],
      "name": "gameOverFlag",
      "outputs": [
        {
          "internalType": "bool",
          "name": "",
          "type": "bool"
        }
      ],
      "stateMutability": "view",
      "type": "function"
    },
    {
      "inputs": [],
      "name": "gameStarted",
      "outputs": [
        {
          "internalType": "bool",
          "name": "",
          "type": "bool"
        }
      ],
      "stateMutability": "view",
      "type": "function"
    },
    {
      "inputs": [
        {
          "internalType": "uint256",
          "name": "tokenId",
          "type": "uint256"
        }
      ],
      "name": "getApproved",
      "outputs": [
        {
          "internalType": "address",
          "name": "",
          "type": "address"
        }
      ],
      "stateMutability": "view",
      "type": "function"
    },
    {
      "inputs": [],
      "name": "getNumberOfPlayers",
      "outputs": [
        {
          "internalType": "uint256",
          "name": "",
          "type": "uint256"
        }
      ],
      "stateMutability": "view",
      "type": "function"
    },
    {
      "inputs": [
        {
          "internalType": "address",
          "name": "owner",
          "type": "address"
        },
        {
          "internalType": "address",
          "name": "operator",
          "type": "address"
        }
      ],
      "name": "isApprovedForAll",
      "outputs": [
        {
          "internalType": "bool",
          "name": "",
          "type": "bool"
        }
      ],
      "stateMutability": "view",
      "type": "function"
    },
    {
      "inputs": [],
      "name": "joinGame",
      "outputs": [],
      "stateMutability": "nonpayable",
      "type": "function"
    },
    {
      "inputs": [],
      "name": "maxTokenId",
      "outputs": [
        {
          "internalType": "uint256",
          "name": "",
          "type": "uint256"
        }
      ],
      "stateMutability": "view",
      "type": "function"
    },
    {
      "inputs": [],
      "name": "name",
      "outputs": [
        {
          "internalType": "string",
          "name": "",
          "type": "string"
        }
      ],
      "stateMutability": "view",
      "type": "function"
    },
    {
      "inputs": [
        {
          "internalType": "uint8",
          "name": "currentPlayerIndex",
          "type": "uint8"
        }
      ],
      "name": "nextTurn",
      "outputs": [],
      "stateMutability": "nonpayable",
      "type": "function"
    },
    {
      "inputs": [
        {
          "internalType": "uint256",
          "name": "tokenId",
          "type": "uint256"
        }
      ],
      "name": "ownerOf",
      "outputs": [
        {
          "internalType": "address",
          "name": "",
          "type": "address"
        }
      ],
      "stateMutability": "view",
      "type": "function"
    },
    {
      "inputs": [
        {
          "internalType": "uint256",
          "name": "",
          "type": "uint256"
        }
      ],
      "name": "playerAddresses",
      "outputs": [
        {
          "internalType": "address",
          "name": "",
          "type": "address"
        }
      ],
      "stateMutability": "view",
      "type": "function"
    },
    {
      "inputs": [
        {
          "internalType": "address",
          "name": "",
          "type": "address"
        }
      ],
      "name": "players",
      "outputs": [
        {
          "internalType": "address",
          "name": "playerAddress",
          "type": "address"
        },
        {
          "internalType": "bool",
          "name": "isHuman",
          "type": "bool"
        }
      ],
      "stateMutability": "view",
      "type": "function"
    },
    {
      "inputs": [],
      "name": "resetGame",
      "outputs": [],
      "stateMutability": "nonpayable",
      "type": "function"
    },
    {
      "inputs": [
        {
          "internalType": "address",
          "name": "from",
          "type": "address"
        },
        {
          "internalType": "address",
          "name": "to",
          "type": "address"
        },
        {
          "internalType": "uint256",
          "name": "tokenId",
          "type": "uint256"
        }
      ],
      "name": "safeTransferFrom",
      "outputs": [],
      "stateMutability": "nonpayable",
      "type": "function"
    },
    {
      "inputs": [
        {
          "internalType": "address",
          "name": "from",
          "type": "address"
        },
        {
          "internalType": "address",
          "name": "to",
          "type": "address"
        },
        {
          "internalType": "uint256",
          "name": "tokenId",
          "type": "uint256"
        },
        {
          "internalType": "bytes",
          "name": "data",
          "type": "bytes"
        }
      ],
      "name": "safeTransferFrom",
      "outputs": [],
      "stateMutability": "nonpayable",
      "type": "function"
    },
    {
      "inputs": [],
      "name": "sayHello",
      "outputs": [
        {
          "internalType": "string",
          "name": "",
          "type": "string"
        }
      ],
      "stateMutability": "pure",
      "type": "function"
    },
    {
      "inputs": [
        {
          "internalType": "address",
          "name": "operator",
          "type": "address"
        },
        {
          "internalType": "bool",
          "name": "approved",
          "type": "bool"
        }
      ],
      "name": "setApprovalForAll",
      "outputs": [],
      "stateMutability": "nonpayable",
      "type": "function"
    },
    {
      "inputs": [],
      "name": "startGame",
      "outputs": [],
      "stateMutability": "nonpayable",
      "type": "function"
    },
    {
      "inputs": [
        {
          "internalType": "bytes4",
          "name": "interfaceId",
          "type": "bytes4"
        }
      ],
      "name": "supportsInterface",
      "outputs": [
        {
          "internalType": "bool",
          "name": "",
          "type": "bool"
        }
      ],
      "stateMutability": "view",
      "type": "function"
    },
    {
      "inputs": [],
      "name": "symbol",
      "outputs": [
        {
          "internalType": "string",
          "name": "",
          "type": "string"
        }
      ],
      "stateMutability": "view",
      "type": "function"
    },
    {
      "inputs": [
        {
          "internalType": "uint256",
          "name": "tokenId",
          "type": "uint256"
        }
      ],
      "name": "tokenURI",
      "outputs": [
        {
          "internalType": "string",
          "name": "",
          "type": "string"
        }
      ],
      "stateMutability": "view",
      "type": "function"
    },
    {
      "inputs": [
        {
          "internalType": "address",
          "name": "from",
          "type": "address"
        },
        {
          "internalType": "address",
          "name": "to",
          "type": "address"
        },
        {
          "internalType": "uint256",
          "name": "tokenId",
          "type": "uint256"
        }
      ],
      "name": "transferFrom",
      "outputs": [],
      "stateMutability": "nonpayable",
      "type": "function"
    }
  ],
  "bytecode": "0x60806040526008805461ffff191690553480156200001c57600080fd5b506040518060400160405280600781526020016642424e4974656d60c81b8152506040518060400160405280600381526020016221212760e91b81525081600090816200006a9190620001d6565b506001620000798282620001d6565b5060019150505b60048111620000f25760015b600d8111620000dc57600b81620000a5846064620002b8565b620000b19190620002d8565b8154600181018355600092835260209092209091015580620000d381620002ee565b9150506200008c565b5080620000e981620002ee565b91505062000080565b50600b80546001810182556000919091526103e77f0175b7a638427703f0dbe7bb9bbf987a2551717b34e79f33b5b1008d1fa01db9909101556200030a565b634e487b7160e01b600052604160045260246000fd5b600181811c908216806200015c57607f821691505b6020821081036200017d57634e487b7160e01b600052602260045260246000fd5b50919050565b601f821115620001d157600081815260208120601f850160051c81016020861015620001ac5750805b601f850160051c820191505b81811015620001cd57828155600101620001b8565b5050505b505050565b81516001600160401b03811115620001f257620001f262000131565b6200020a8162000203845462000147565b8462000183565b602080601f831160018114620002425760008415620002295750858301515b600019600386901b1c1916600185901b178555620001cd565b600085815260208120601f198616915b82811015620002735788860151825594840194600190910190840162000252565b5085821015620002925787850151600019600388901b60f8161c191681555b5050505050600190811b01905550565b634e487b7160e01b600052601160045260246000fd5b8082028115828204841417620002d257620002d2620002a2565b92915050565b80820180821115620002d257620002d2620002a2565b600060018201620003035762000303620002a2565b5060010190565b612dae806200031a6000396000f3fe608060405234801561001057600080fd5b50600436106101c45760003560e01c806373fa95c4116100f9578063d4f77b1c11610097578063e86b70cb11610071578063e86b70cb146103dd578063e985e9c5146103ef578063ef5fb05b14610402578063fd6673f51461042c57600080fd5b8063d4f77b1c14610378578063d65ab5f214610380578063e2eb41ff1461038857600080fd5b8063a22cb465116100d3578063a22cb46514610337578063b88d4fde1461034a578063bb4722191461035d578063c87b56dd1461036557600080fd5b806373fa95c41461031357806391ba317a1461032657806395d89b411461032f57600080fd5b80632829a3d811610166578063601c405711610140578063601c4057146102b95780636352211e146102cc57806365b1dafa146102df57806370a082311461030057600080fd5b80632829a3d81461027f57806342842e0e146102995780635e123ce4146102ac57600080fd5b8063095ea7b3116101a2578063095ea7b314610231578063117207561461024657806315c6aee21461025957806323b872dd1461026c57600080fd5b806301ffc9a7146101c957806306fdde03146101f1578063081812fc14610206575b600080fd5b6101dc6101d73660046125b2565b610434565b60405190151581526020015b60405180910390f35b6101f9610486565b6040516101e8919061261f565b610219610214366004612632565b610518565b6040516001600160a01b0390911681526020016101e8565b61024461023f366004612667565b61053f565b005b61024461025436600461271d565b610659565b610219610267366004612632565b6106d1565b61024461027a366004612766565b6106fb565b610287600281565b60405160ff90911681526020016101e8565b6102446102a7366004612766565b61072c565b6008546101dc9060ff1681565b6102446102c73660046127b3565b610747565b6102196102da366004612632565b610ba1565b6102f26102ed366004612632565b610c01565b6040519081526020016101e8565b6102f261030e3660046127df565b610c22565b6102446103213660046127fa565b610ca8565b6102f260095481565b6101f9610e2e565b610244610345366004612815565b610e3d565b610244610358366004612851565b610e48565b610244610e80565b6101f9610373366004612632565b610f7a565b61024461108a565b6102446112d3565b6103be6103963660046127df565b600d60205260009081526040902080546003909101546001600160a01b039091169060ff1682565b604080516001600160a01b0390931683529015156020830152016101e8565b6008546101dc90610100900460ff1681565b6101dc6103fd3660046128cd565b611738565b60408051808201909152600e81526d48454c4c4f20424142414e554b4960901b60208201526101f9565b600c546102f2565b60006001600160e01b031982166380ac58cd60e01b148061046557506001600160e01b03198216635b5e139f60e01b145b8061048057506301ffc9a760e01b6001600160e01b03198316145b92915050565b60606000805461049590612900565b80601f01602080910402602001604051908101604052809291908181526020018280546104c190612900565b801561050e5780601f106104e35761010080835404028352916020019161050e565b820191906000526020600020905b8154815290600101906020018083116104f157829003601f168201915b5050505050905090565b600061052382611766565b506000908152600460205260409020546001600160a01b031690565b600061054a82610ba1565b9050806001600160a01b0316836001600160a01b0316036105bc5760405162461bcd60e51b815260206004820152602160248201527f4552433732313a20617070726f76616c20746f2063757272656e74206f776e656044820152603960f91b60648201526084015b60405180910390fd5b336001600160a01b03821614806105d857506105d88133611738565b61064a5760405162461bcd60e51b815260206004820152603d60248201527f4552433732313a20617070726f76652063616c6c6572206973206e6f7420746f60448201527f6b656e206f776e6572206f7220617070726f76656420666f7220616c6c00000060648201526084016105b3565b61065483836117c5565b505050565b600a546001600160a01b031633146106b35760405162461bcd60e51b815260206004820152601e60248201527f4f6e6c79207468652077696e6e65722063616e20636c61696d204e46542e000060448201526064016105b3565b6106bd3382611833565b5050600a80546001600160a01b0319169055565b600c81815481106106e157600080fd5b6000918252602090912001546001600160a01b0316905081565b61070533826118bc565b6107215760405162461bcd60e51b81526004016105b39061293a565b61065483838361191a565b61065483838360405180602001604052806000815250610e48565b6000600c8460ff168154811061075f5761075f612987565b6000918252602082200154600c80546001600160a01b0390921693509060ff861690811061078f5761078f612987565b60009182526020808320909101546001600160a01b0316808352600d909152604090912060010180549192509084106108005760405162461bcd60e51b815260206004820152601360248201527224b73b30b634b21031b0b9321034b73232bc1760691b60448201526064016105b3565b6001600160a01b0382166000908152600d6020526040812060010180548690811061082d5761082d612987565b906000526020600020015490508060000361089a5760405162461bcd60e51b815260206004820152602760248201527f43617264206e6f7420666f756e6420696e2074617267657420706c617965722760448201526639903430b7321760c91b60648201526084016105b3565b6001600160a01b0384166000908152600d60209081526040822060019081018054808301825590845291832090910183905583546108d891906129b3565b90508281815481106108ec576108ec612987565b906000526020600020015483878154811061090957610909612987565b906000526020600020018190555082805480610927576109276129c6565b6001900381819060005260206000200160009055905561094685611a7e565b7ff3a70685ba842d11b8a5ea9b799836eb347b21a6f953bf5cddb690988016cb38600d6000600c60008154811061097f5761097f612987565b60009182526020808320909101546001600160a01b031683528201929092526040018120600c8054600192830193600d9390929181106109c1576109c1612987565b9060005260206000200160009054906101000a90046001600160a01b03166001600160a01b03166001600160a01b03168152602001908152602001600020600101600d6000600c600081548110610a1a57610a1a612987565b9060005260206000200160009054906101000a90046001600160a01b03166001600160a01b03166001600160a01b03168152602001908152602001600020600201600d6000600c600181548110610a7357610a73612987565b60009182526020808320909101546001600160a01b0316835282019290925260409081019091209051610aac9493929160020190612a1c565b60405180910390a16001600160a01b0385166000908152600d60205260408120600101548103610af95750600a80546001600160a01b0319166001600160a01b0387161790556001610b3a565b6001600160a01b0385166000908152600d60205260408120600101549003610b3a5750600a80546001600160a01b0319166001600160a01b03861617905560015b8015610b8d57600a546040516001600160a01b0390911681527ff556ad7790e70877edcf3b3bb441255def8a405faa0dfdb005a02fa8e557bca99060200160405180910390a1610b88610e80565b610b96565b610b9688610ca8565b505050505050505050565b6000818152600260205260408120546001600160a01b0316806104805760405162461bcd60e51b8152602060048201526018602482015277115490cdcc8c4e881a5b9d985b1a59081d1bdad95b88125160421b60448201526064016105b3565b600b8181548110610c1157600080fd5b600091825260209091200154905081565b60006001600160a01b038216610c8c5760405162461bcd60e51b815260206004820152602960248201527f4552433732313a2061646472657373207a65726f206973206e6f7420612076616044820152683634b21037bbb732b960b91b60648201526084016105b3565b506001600160a01b031660009081526003602052604090205490565b60085460ff16610cf65760405162461bcd60e51b815260206004820152601960248201527823b0b6b2903430b9903737ba1039ba30b93a32b2103cb2ba1760391b60448201526064016105b3565b600854610100900460ff1615610d3e5760405162461bcd60e51b815260206004820152600d60248201526c23b0b6b29034b99037bb32b91760991b60448201526064016105b3565b60006002610d4d836001612a74565b610d579190612aa3565b9050600d6000600c8460ff1681548110610d7357610d73612987565b60009182526020808320909101546001600160a01b0316835282019290925260400190206003015460ff16610e2a576000610dd7600c8360ff1681548110610dbd57610dbd612987565b6000918252602090912001546001600160a01b0316611cc7565b6040805160ff8087168252851660208201529081018290529091507fa0e3c255478e4bf01daba6329a82bc6ca1effa8d27ab44d4fb93b9b66315aa6d9060600160405180910390a1610654838383610747565b5050565b60606001805461049590612900565b610e2a338383611d89565b610e5233836118bc565b610e6e5760405162461bcd60e51b81526004016105b39061293a565b610e7a84848484611e57565b50505050565b60085460ff16610ece5760405162461bcd60e51b815260206004820152601960248201527823b0b6b2903430b9903737ba1039ba30b93a32b2103cb2ba1760391b60448201526064016105b3565b6008805461ffff1916905560005b600c54811015610f6b576000600c8281548110610efb57610efb612987565b60009182526020808320909101546001600160a01b0316808352600d90915260408220909250610f31916001919091019061251e565b6001600160a01b0381166000908152600d60205260408120610f589160029091019061251e565b5080610f6381612ac5565b915050610edc565b50610f78600c600061251e565b565b6060610f8582611766565b60008281526006602052604081208054610f9e90612900565b80601f0160208091040260200160405190810160405280929190818152602001828054610fca90612900565b80156110175780601f10610fec57610100808354040283529160200191611017565b820191906000526020600020905b815481529060010190602001808311610ffa57829003601f168201915b50505050509050600061103560408051602081019091526000815290565b90508051600003611047575092915050565b815115611079578082604051602001611061929190612ade565b60405160208183030381529060405292505050919050565b61108284611e8a565b949350505050565b60085460ff16156110d95760405162461bcd60e51b815260206004820152601960248201527823b0b6b2903430b99030b63932b0b23c9039ba30b93a32b21760391b60448201526064016105b3565b600c546002906110ea906001612b0d565b11156111385760405162461bcd60e51b815260206004820152601860248201527f416464696e6720746f6f206d616e7920706c61796572732e000000000000000060448201526064016105b3565b6000805b600c5481101561119857336001600160a01b0316600c828154811061116357611163612987565b6000918252602090912001546001600160a01b0316036111865760019150611198565b8061119081612ac5565b91505061113c565b5080156111e75760405162461bcd60e51b815260206004820152601a60248201527f506c617965722068617320616c7265616479206a6f696e65642e00000000000060448201526064016105b3565b600c805460018082019092557fdf6966c971051c3d54ec59162606531493a51404a002842f56009d7e5cf4a8c7018054336001600160a01b03199182168117909255604080516080810182528381528151600080825260208083018552808401928352845182815280820186528486015260608401889052958152600d865292909220815181546001600160a01b03909116941693909317835590518051919492936112989385019291019061253c565b50604082015180516112b491600284019160209091019061253c565b50606091909101516003909101805460ff191691151591909117905550565b600c546001118015906112e95750600c54600210155b6113355760405162461bcd60e51b815260206004820152601a60248201527f496e76616c6964206e756d626572206f6620706c61796572732e00000000000060448201526064016105b3565b600c54805b6002811015611471576000814340604051602001611362929190918252602082015260400190565b60408051808303601f190181528282528051602091820120600c805460018082019092557fdf6966c971051c3d54ec59162606531493a51404a002842f56009d7e5cf4a8c70180546001600160a01b03199081166001600160a01b03808616918217909355608088018752808852865160008082528188018952878a0191825288518181528089018a528a8a015260608a01819052918252600d8752969020875181549092169190921617815593518051929650611426939185019291019061253c565b506040820151805161144291600284019160209091019061253c565b50606091909101516003909101805460ff1916911515919091179055508061146981612ac5565b91505061133a565b50600c546002146114d25760405162461bcd60e51b815260206004820152602560248201527f4e6f7420656e6f75676820706c617965727320746f207374617274207468652060448201526433b0b6b29760d91b60648201526084016105b3565b60085460ff16156115215760405162461bcd60e51b815260206004820152601960248201527823b0b6b2903430b99030b63932b0b23c9039ba30b93a32b21760391b60448201526064016105b3565b6008805460ff19166001179055611536611efe565b60005b600c5481101561158557611573600c828154811061155957611559612987565b6000918252602090912001546001600160a01b0316611a7e565b8061157d81612ac5565b915050611539565b5060005b600c5481101561160c57604080516000808252602082019092529050600d6000600c84815481106115bc576115bc612987565b60009182526020808320909101546001600160a01b03168352828101939093526040909101902082516115f993600290920192919091019061253c565b508061160481612ac5565b915050611589565b50600a80546001600160a01b0319169055600c8054600190811061163257611632612987565b6000918252602082200154600c80546001600160a01b0390921692909161165b5761165b612987565b6000918252602082200154600c80546001600160a01b03909216927f46ddfba6c0afcb5082966eec265f4cc27258f2f347c1e404628174cee05721dd92600d929082906116aa576116aa612987565b60009182526020808320909101546001600160a01b031683528201929092526040018120600c8054600192830193600d9390929181106116ec576116ec612987565b60009182526020808320909101546001600160a01b0316835282019290925260409081019091209051611723929160010190612b20565b60405180910390a36117356000610ca8565b50565b6001600160a01b03918216600090815260056020908152604080832093909416825291909152205460ff1690565b6000818152600260205260409020546001600160a01b03166117355760405162461bcd60e51b8152602060048201526018602482015277115490cdcc8c4e881a5b9d985b1a59081d1bdad95b88125160421b60448201526064016105b3565b600081815260046020526040902080546001600160a01b0319166001600160a01b03841690811790915581906117fa82610ba1565b6001600160a01b03167f8c5be1e5ebec7d5bd14f71427d1e84f3dd0314c0f7b2291e5b200ac8c7c3b92560405160405180910390a45050565b60008061183f60075490565b905061184b8482612094565b611855818461221f565b611863600780546001019055565b6009548111156118735760098190555b80846001600160a01b03167f57462ec1f49bd1a16058121274b02c53e3dd9fa6a481daea6960fe1101164cfe856040516118ad919061261f565b60405180910390a39392505050565b6000806118c883610ba1565b9050806001600160a01b0316846001600160a01b031614806118ef57506118ef8185611738565b806110825750836001600160a01b031661190884610518565b6001600160a01b031614949350505050565b826001600160a01b031661192d82610ba1565b6001600160a01b0316146119535760405162461bcd60e51b81526004016105b390612b4e565b6001600160a01b0382166119b55760405162461bcd60e51b8152602060048201526024808201527f4552433732313a207472616e7366657220746f20746865207a65726f206164646044820152637265737360e01b60648201526084016105b3565b826001600160a01b03166119c882610ba1565b6001600160a01b0316146119ee5760405162461bcd60e51b81526004016105b390612b4e565b600081815260046020908152604080832080546001600160a01b03199081169091556001600160a01b0387811680865260038552838620805460001901905590871680865283862080546001019055868652600290945282852080549092168417909155905184937fddf252ad1be2c89b69c2b068fc378daa952ba7f163c4a11628f55a4df523b3ef91a4505050565b6001600160a01b0381166000908152600d602052604081206001810191600290910190805b8354811015611c9157838181548110611abe57611abe612987565b906000526020600020015460000315611c7f57600080611adf836001612b0d565b90505b8554811015611c2f57858181548110611afd57611afd612987565b906000526020600020015460000315611c1d576064868281548110611b2457611b24612987565b9060005260206000200154611b399190612b93565b6064878581548110611b4d57611b4d612987565b9060005260206000200154611b629190612b93565b03611c1d5784868481548110611b7a57611b7a612987565b6000918252602080832090910154835460018101855593835291209091015585548590879083908110611baf57611baf612987565b60009182526020808320909101548354600181018555938352908220909201919091558654879085908110611be657611be6612987565b90600052602060002001819055506000868281548110611c0857611c08612987565b60009182526020909120015560019150611c2f565b80611c2781612ac5565b915050611ae2565b5080611c7d57848281548110611c4757611c47612987565b9060005260206000200154858480611c5e90612ac5565b955081548110611c7057611c70612987565b6000918252602090912001555b505b80611c8981612ac5565b915050611aa3565b505b8254811015610e7a5782805480611cac57611cac6129c6565b60019003818190600052602060002001600090559055611c93565b6001600160a01b0381166000908152600d602052604081206001018054611d305760405162461bcd60e51b815260206004820152601e60248201527f54617267657420706c6179657227732068616e6420697320656d7074792e000060448201526064016105b3565b8054604080514260208083019190915244828401524360608084019190915287901b6bffffffffffffffffffffffff19166080830152825180830360740181526094909201909252805191012060009161108291612b93565b816001600160a01b0316836001600160a01b031603611dea5760405162461bcd60e51b815260206004820152601960248201527f4552433732313a20617070726f766520746f2063616c6c65720000000000000060448201526064016105b3565b6001600160a01b03838116600081815260056020908152604080832094871680845294825291829020805460ff191686151590811790915591519182527f17307eab39ab6107e8899845ad3d59bd9653f200f220920489ca2b5937696c31910160405180910390a3505050565b611e6284848461191a565b611e6e848484846122b2565b610e7a5760405162461bcd60e51b81526004016105b390612ba7565b6060611e9582611766565b6000611eac60408051602081019091526000815290565b90506000815111611ecc5760405180602001604052806000815250611ef7565b80611ed6846123b3565b604051602001611ee7929190612ade565b6040516020818303038152906040525b9392505050565b600b545b6001811115611ff6576040805142602082015290810182905260009082906060016040516020818303038152906040528051906020012060001c611f469190612b93565b9050600b8181548110611f5b57611f5b612987565b9060005260206000200154600b600184611f7591906129b3565b81548110611f8557611f85612987565b9060005260206000200154600b600185611f9f91906129b3565b81548110611faf57611faf612987565b906000526020600020016000600b8581548110611fce57611fce612987565b6000918252602090912001929092559190915550819050611fee81612bf9565b915050611f02565b5060005b603581101561173557600d6000600c612014600285612b93565b8154811061202457612024612987565b60009182526020808320909101546001600160a01b031683528201929092526040019020600b8054600192909201918390811061206357612063612987565b600091825260208083209091015483546001810185559383529120909101558061208c81612ac5565b915050611ffa565b6001600160a01b0382166120ea5760405162461bcd60e51b815260206004820181905260248201527f4552433732313a206d696e7420746f20746865207a65726f206164647265737360448201526064016105b3565b6000818152600260205260409020546001600160a01b03161561214f5760405162461bcd60e51b815260206004820152601c60248201527f4552433732313a20746f6b656e20616c7265616479206d696e7465640000000060448201526064016105b3565b6000818152600260205260409020546001600160a01b0316156121b45760405162461bcd60e51b815260206004820152601c60248201527f4552433732313a20746f6b656e20616c7265616479206d696e7465640000000060448201526064016105b3565b6001600160a01b038216600081815260036020908152604080832080546001019055848352600290915280822080546001600160a01b0319168417905551839291907fddf252ad1be2c89b69c2b068fc378daa952ba7f163c4a11628f55a4df523b3ef908290a45050565b6000828152600260205260409020546001600160a01b031661229a5760405162461bcd60e51b815260206004820152602e60248201527f45524337323155524953746f726167653a2055524920736574206f66206e6f6e60448201526d32bc34b9ba32b73a103a37b5b2b760911b60648201526084016105b3565b60008281526006602052604090206106548282612c5e565b60006001600160a01b0384163b156123a857604051630a85bd0160e11b81526001600160a01b0385169063150b7a02906122f6903390899088908890600401612d1e565b6020604051808303816000875af1925050508015612331575060408051601f3d908101601f1916820190925261232e91810190612d5b565b60015b61238e573d80801561235f576040519150601f19603f3d011682016040523d82523d6000602084013e612364565b606091505b5080516000036123865760405162461bcd60e51b81526004016105b390612ba7565b805181602001fd5b6001600160e01b031916630a85bd0160e11b149050611082565b506001949350505050565b606060006123c083612446565b600101905060008167ffffffffffffffff8111156123e0576123e0612691565b6040519080825280601f01601f19166020018201604052801561240a576020820181803683370190505b5090508181016020015b600019016f181899199a1a9b1b9c1cb0b131b232b360811b600a86061a8153600a850494508461241457509392505050565b60008072184f03e93ff9f4daa797ed6e38ed64bf6a1f0160401b83106124855772184f03e93ff9f4daa797ed6e38ed64bf6a1f0160401b830492506040015b6d04ee2d6d415b85acef810000000083106124b1576d04ee2d6d415b85acef8100000000830492506020015b662386f26fc1000083106124cf57662386f26fc10000830492506010015b6305f5e10083106124e7576305f5e100830492506008015b61271083106124fb57612710830492506004015b6064831061250d576064830492506002015b600a83106104805760010192915050565b50805460008255906000526020600020908101906117359190612587565b828054828255906000526020600020908101928215612577579160200282015b8281111561257757825182559160200191906001019061255c565b50612583929150612587565b5090565b5b808211156125835760008155600101612588565b6001600160e01b03198116811461173557600080fd5b6000602082840312156125c457600080fd5b8135611ef78161259c565b60005b838110156125ea5781810151838201526020016125d2565b50506000910152565b6000815180845261260b8160208601602086016125cf565b601f01601f19169290920160200192915050565b602081526000611ef760208301846125f3565b60006020828403121561264457600080fd5b5035919050565b80356001600160a01b038116811461266257600080fd5b919050565b6000806040838503121561267a57600080fd5b6126838361264b565b946020939093013593505050565b634e487b7160e01b600052604160045260246000fd5b600067ffffffffffffffff808411156126c2576126c2612691565b604051601f8501601f19908116603f011681019082821181831017156126ea576126ea612691565b8160405280935085815286868601111561270357600080fd5b858560208301376000602087830101525050509392505050565b60006020828403121561272f57600080fd5b813567ffffffffffffffff81111561274657600080fd5b8201601f8101841361275757600080fd5b611082848235602084016126a7565b60008060006060848603121561277b57600080fd5b6127848461264b565b92506127926020850161264b565b9150604084013590509250925092565b803560ff8116811461266257600080fd5b6000806000606084860312156127c857600080fd5b6127d1846127a2565b9250612792602085016127a2565b6000602082840312156127f157600080fd5b611ef78261264b565b60006020828403121561280c57600080fd5b611ef7826127a2565b6000806040838503121561282857600080fd5b6128318361264b565b91506020830135801515811461284657600080fd5b809150509250929050565b6000806000806080858703121561286757600080fd5b6128708561264b565b935061287e6020860161264b565b925060408501359150606085013567ffffffffffffffff8111156128a157600080fd5b8501601f810187136128b257600080fd5b6128c1878235602084016126a7565b91505092959194509250565b600080604083850312156128e057600080fd5b6128e98361264b565b91506128f76020840161264b565b90509250929050565b600181811c9082168061291457607f821691505b60208210810361293457634e487b7160e01b600052602260045260246000fd5b50919050565b6020808252602d908201527f4552433732313a2063616c6c6572206973206e6f7420746f6b656e206f776e6560408201526c1c881bdc88185c1c1c9bdd9959609a1b606082015260800190565b634e487b7160e01b600052603260045260246000fd5b634e487b7160e01b600052601160045260246000fd5b818103818111156104805761048061299d565b634e487b7160e01b600052603160045260246000fd5b6000815480845260208085019450836000528060002060005b83811015612a11578154875295820195600191820191016129f5565b509495945050505050565b608081526000612a2f60808301876129dc565b8281036020840152612a4181876129dc565b90508281036040840152612a5581866129dc565b90508281036060840152612a6981856129dc565b979650505050505050565b60ff81811683821601908111156104805761048061299d565b634e487b7160e01b600052601260045260246000fd5b600060ff831680612ab657612ab6612a8d565b8060ff84160691505092915050565b600060018201612ad757612ad761299d565b5060010190565b60008351612af08184602088016125cf565b835190830190612b048183602088016125cf565b01949350505050565b808201808211156104805761048061299d565b604081526000612b3360408301856129dc565b8281036020840152612b4581856129dc565b95945050505050565b60208082526025908201527f4552433732313a207472616e736665722066726f6d20696e636f72726563742060408201526437bbb732b960d91b606082015260800190565b600082612ba257612ba2612a8d565b500690565b60208082526032908201527f4552433732313a207472616e7366657220746f206e6f6e20455243373231526560408201527131b2b4bb32b91034b6b83632b6b2b73a32b960711b606082015260800190565b600081612c0857612c0861299d565b506000190190565b601f82111561065457600081815260208120601f850160051c81016020861015612c375750805b601f850160051c820191505b81811015612c5657828155600101612c43565b505050505050565b815167ffffffffffffffff811115612c7857612c78612691565b612c8c81612c868454612900565b84612c10565b602080601f831160018114612cc15760008415612ca95750858301515b600019600386901b1c1916600185901b178555612c56565b600085815260208120601f198616915b82811015612cf057888601518255948401946001909101908401612cd1565b5085821015612d0e5787850151600019600388901b60f8161c191681555b5050505050600190811b01905550565b6001600160a01b0385811682528416602082015260408101839052608060608201819052600090612d51908301846125f3565b9695505050505050565b600060208284031215612d6d57600080fd5b8151611ef78161259c56fea2646970667358221220c22a08eef5b76b9acf4cb6ac9827478f85906f8aeda0e01fe251cad2f235d64964736f6c63430008120033",
  "linkReferences": {},
  "deployedLinkReferences": {}
}