{
  "_format": "hh-sol-artifact-1",
  "contractName": "BabanukiNFT",
  "sourceName": "contracts/BabanukiNFT.sol",
  "abi": [
    {
      "inputs": [],
      "stateMutability": "nonpayable",
      "type": "constructor"
    },
    {
      "anonymous": false,
      "inputs": [
        {
          "indexed": true,
          "internalType": "address",
          "name": "player1",
          "type": "address"
        },
        {
          "indexed": true,
          "internalType": "address",
          "name": "player2",
          "type": "address"
        },
        {
          "indexed": true,
          "internalType": "address",
          "name": "player3",
          "type": "address"
        },
        {
          "indexed": false,
          "internalType": "address",
          "name": "player4",
          "type": "address"
        },
        {
          "indexed": false,
          "internalType": "uint256[]",
          "name": "player1Hand",
          "type": "uint256[]"
        },
        {
          "indexed": false,
          "internalType": "uint256[]",
          "name": "player2Hand",
          "type": "uint256[]"
        },
        {
          "indexed": false,
          "internalType": "uint256[]",
          "name": "player3Hand",
          "type": "uint256[]"
        },
        {
          "indexed": false,
          "internalType": "uint256[]",
          "name": "player4Hand",
          "type": "uint256[]"
        }
      ],
      "name": "CardDrawn",
      "type": "event"
    },
    {
      "anonymous": false,
      "inputs": [
        {
          "indexed": false,
          "internalType": "bool",
          "name": "GameOverFlag",
          "type": "bool"
        },
        {
          "indexed": true,
          "internalType": "address",
          "name": "player1",
          "type": "address"
        },
        {
          "indexed": true,
          "internalType": "address",
          "name": "player2",
          "type": "address"
        },
        {
          "indexed": true,
          "internalType": "address",
          "name": "player3",
          "type": "address"
        },
        {
          "indexed": false,
          "internalType": "address",
          "name": "player4",
          "type": "address"
        },
        {
          "indexed": false,
          "internalType": "uint256",
          "name": "player1Ranking",
          "type": "uint256"
        },
        {
          "indexed": false,
          "internalType": "uint256",
          "name": "player2Ranking",
          "type": "uint256"
        },
        {
          "indexed": false,
          "internalType": "uint256",
          "name": "player3Ranking",
          "type": "uint256"
        },
        {
          "indexed": false,
          "internalType": "uint256",
          "name": "player4Ranking",
          "type": "uint256"
        }
      ],
      "name": "GameOver",
      "type": "event"
    },
    {
      "anonymous": false,
      "inputs": [
        {
          "indexed": true,
          "internalType": "address",
          "name": "player1",
          "type": "address"
        },
        {
          "indexed": true,
          "internalType": "address",
          "name": "player2",
          "type": "address"
        },
        {
          "indexed": true,
          "internalType": "address",
          "name": "player3",
          "type": "address"
        },
        {
          "indexed": false,
          "internalType": "address",
          "name": "player4",
          "type": "address"
        },
        {
          "indexed": false,
          "internalType": "uint256[]",
          "name": "player1Hand",
          "type": "uint256[]"
        },
        {
          "indexed": false,
          "internalType": "uint256[]",
          "name": "player2Hand",
          "type": "uint256[]"
        },
        {
          "indexed": false,
          "internalType": "uint256[]",
          "name": "player3Hand",
          "type": "uint256[]"
        },
        {
          "indexed": false,
          "internalType": "uint256[]",
          "name": "player4Hand",
          "type": "uint256[]"
        }
      ],
      "name": "GameStarted",
      "type": "event"
    },
    {
      "anonymous": false,
      "inputs": [
        {
          "indexed": true,
          "internalType": "address",
          "name": "playerAddress",
          "type": "address"
        },
        {
          "indexed": false,
          "internalType": "bool",
          "name": "hasEmptyHand",
          "type": "bool"
        },
        {
          "indexed": false,
          "internalType": "uint256",
          "name": "ranking",
          "type": "uint256"
        }
      ],
      "name": "PlayerFinished",
      "type": "event"
    },
    {
      "inputs": [],
      "name": "PLAYER_COUNT",
      "outputs": [
        {
          "internalType": "uint256",
          "name": "",
          "type": "uint256"
        }
      ],
      "stateMutability": "view",
      "type": "function"
    },
    {
      "inputs": [
        {
          "internalType": "uint256",
          "name": "",
          "type": "uint256"
        }
      ],
      "name": "deck",
      "outputs": [
        {
          "internalType": "uint256",
          "name": "",
          "type": "uint256"
        }
      ],
      "stateMutability": "view",
      "type": "function"
    },
    {
      "inputs": [
        {
          "internalType": "uint256",
          "name": "playerIndex",
          "type": "uint256"
        },
        {
          "internalType": "uint256",
          "name": "targetPlayerIndex",
          "type": "uint256"
        },
        {
          "internalType": "uint256",
          "name": "targetCardIndex",
          "type": "uint256"
        }
      ],
      "name": "drawCard",
      "outputs": [],
      "stateMutability": "nonpayable",
      "type": "function"
    },
    {
      "inputs": [],
      "name": "gameOverFlag",
      "outputs": [
        {
          "internalType": "bool",
          "name": "",
          "type": "bool"
        }
      ],
      "stateMutability": "view",
      "type": "function"
    },
    {
      "inputs": [],
      "name": "gameStarted",
      "outputs": [
        {
          "internalType": "bool",
          "name": "",
          "type": "bool"
        }
      ],
      "stateMutability": "view",
      "type": "function"
    },
    {
      "inputs": [],
      "name": "getNumberOfPlayers",
      "outputs": [
        {
          "internalType": "uint256",
          "name": "",
          "type": "uint256"
        }
      ],
      "stateMutability": "view",
      "type": "function"
    },
    {
      "inputs": [
        {
          "internalType": "address[]",
          "name": "playerAddressesBatch",
          "type": "address[]"
        }
      ],
      "name": "joinGameBatch",
      "outputs": [],
      "stateMutability": "nonpayable",
      "type": "function"
    },
    {
      "inputs": [
        {
          "internalType": "uint256",
          "name": "",
          "type": "uint256"
        }
      ],
      "name": "playerAddresses",
      "outputs": [
        {
          "internalType": "address",
          "name": "",
          "type": "address"
        }
      ],
      "stateMutability": "view",
      "type": "function"
    },
    {
      "inputs": [
        {
          "internalType": "address",
          "name": "",
          "type": "address"
        }
      ],
      "name": "players",
      "outputs": [
        {
          "internalType": "address",
          "name": "playerAddress",
          "type": "address"
        },
        {
          "internalType": "uint256",
          "name": "ranking",
          "type": "uint256"
        },
        {
          "internalType": "bool",
          "name": "hasEmptyHand",
          "type": "bool"
        }
      ],
      "stateMutability": "view",
      "type": "function"
    },
    {
      "inputs": [],
      "name": "resetGame",
      "outputs": [],
      "stateMutability": "nonpayable",
      "type": "function"
    },
    {
      "inputs": [],
      "name": "sayHello",
      "outputs": [
        {
          "internalType": "string",
          "name": "",
          "type": "string"
        }
      ],
      "stateMutability": "pure",
      "type": "function"
    },
    {
      "inputs": [],
      "name": "startGame",
      "outputs": [],
      "stateMutability": "nonpayable",
      "type": "function"
    }
  ],
  "bytecode": "0x60806040526000600360006101000a81548160ff0219169083151502179055506000600360016101000a81548160ff02191690831515021790555060016004553480156200004c57600080fd5b506000600190505b60048111620000de576000600190505b600d8111620000c7576002816064846200007f919062000149565b6200008b919062000194565b90806001815401808255809150506001900390600052602060002001600090919091909150558080620000be90620001cf565b91505062000064565b508080620000d590620001cf565b91505062000054565b5060026103e790806001815401808255809150506001900390600052602060002001600090919091909150556200021c565b6000819050919050565b7f4e487b7100000000000000000000000000000000000000000000000000000000600052601160045260246000fd5b6000620001568262000110565b9150620001638362000110565b9250828202620001738162000110565b915082820484148315176200018d576200018c6200011a565b5b5092915050565b6000620001a18262000110565b9150620001ae8362000110565b9250828201905080821115620001c957620001c86200011a565b5b92915050565b6000620001dc8262000110565b91507fffffffffffffffffffffffffffffffffffffffffffffffffffffffffffffffff82036200021157620002106200011a565b5b600182019050919050565b61312a806200022c6000396000f3fe608060405234801561001057600080fd5b50600436106100b45760003560e01c8063bb47221911610071578063bb4722191461018d578063d65ab5f214610197578063e2eb41ff146101a1578063e86b70cb146101d3578063ef5fb05b146101f1578063fd6673f51461020f576100b4565b806315c6aee2146100b95780631b684107146100e95780631d208c21146101055780632829a3d8146101215780635e123ce41461013f57806365b1dafa1461015d575b600080fd5b6100d360048036038101906100ce91906124bc565b61022d565b6040516100e0919061252a565b60405180910390f35b61010360048036038101906100fe9190612545565b61026c565b005b61011f600480360381019061011a919061271d565b610f42565b005b61012961132d565b6040516101369190612775565b60405180910390f35b610147611332565b60405161015491906127ab565b60405180910390f35b610177600480360381019061017291906124bc565b611345565b6040516101849190612775565b60405180910390f35b610195611369565b005b61019f611588565b005b6101bb60048036038101906101b691906127c6565b611a2a565b6040516101ca939291906127f3565b60405180910390f35b6101db611a81565b6040516101e891906127ab565b60405180910390f35b6101f9611a94565b60405161020691906128a9565b60405180910390f35b610217611ad1565b6040516102249190612775565b60405180910390f35b6001818154811061023d57600080fd5b906000526020600020016000915054906101000a900473ffffffffffffffffffffffffffffffffffffffff1681565b600060018481548110610282576102816128cb565b5b9060005260206000200160009054906101000a900473ffffffffffffffffffffffffffffffffffffffff1690506000600184815481106102c5576102c46128cb565b5b9060005260206000200160009054906101000a900473ffffffffffffffffffffffffffffffffffffffff16905060008060008373ffffffffffffffffffffffffffffffffffffffff1673ffffffffffffffffffffffffffffffffffffffff16815260200190815260200160002060010190508080549050841061037d576040517f08c379a000000000000000000000000000000000000000000000000000000000815260040161037490612946565b60405180910390fd5b600015156000808573ffffffffffffffffffffffffffffffffffffffff1673ffffffffffffffffffffffffffffffffffffffff16815260200190815260200160002060040160009054906101000a900460ff16151514610412576040517f08c379a0000000000000000000000000000000000000000000000000000000008152600401610409906129b2565b60405180910390fd5b600015156000808473ffffffffffffffffffffffffffffffffffffffff1673ffffffffffffffffffffffffffffffffffffffff16815260200190815260200160002060040160009054906101000a900460ff161515146104a7576040517f08c379a000000000000000000000000000000000000000000000000000000000815260040161049e90612a44565b60405180910390fd5b60008185815481106104bc576104bb6128cb565b5b906000526020600020015490506000810361050c576040517f08c379a000000000000000000000000000000000000000000000000000000000815260040161050390612ad6565b60405180910390fd5b6000828681548110610521576105206128cb565b5b90600052602060002001819055506000808573ffffffffffffffffffffffffffffffffffffffff1673ffffffffffffffffffffffffffffffffffffffff1681526020019081526020016000206001018190806001815401808255809150506001900390600052602060002001600090919091909150556105a084611ade565b6105a984611d47565b6000808573ffffffffffffffffffffffffffffffffffffffff1673ffffffffffffffffffffffffffffffffffffffff16815260200190815260200160002060040160009054906101000a900460ff16156106dd578373ffffffffffffffffffffffffffffffffffffffff167f80236d7c4ab514db2c7033b9be61453719fbca9e3c5cca76b8216358bef472216000808773ffffffffffffffffffffffffffffffffffffffff1673ffffffffffffffffffffffffffffffffffffffff16815260200190815260200160002060040160009054906101000a900460ff166000808873ffffffffffffffffffffffffffffffffffffffff1673ffffffffffffffffffffffffffffffffffffffff168152602001908152602001600020600301546040516106d4929190612af6565b60405180910390a25b6106e683611d47565b6000808473ffffffffffffffffffffffffffffffffffffffff1673ffffffffffffffffffffffffffffffffffffffff16815260200190815260200160002060040160009054906101000a900460ff161561081a578273ffffffffffffffffffffffffffffffffffffffff167f80236d7c4ab514db2c7033b9be61453719fbca9e3c5cca76b8216358bef472216000808673ffffffffffffffffffffffffffffffffffffffff1673ffffffffffffffffffffffffffffffffffffffff16815260200190815260200160002060040160009054906101000a900460ff166000808773ffffffffffffffffffffffffffffffffffffffff1673ffffffffffffffffffffffffffffffffffffffff16815260200190815260200160002060030154604051610811929190612af6565b60405180910390a25b610822611f45565b15610bbf57600160028154811061083c5761083b6128cb565b5b9060005260206000200160009054906101000a900473ffffffffffffffffffffffffffffffffffffffff1673ffffffffffffffffffffffffffffffffffffffff1660018081548110610891576108906128cb565b5b9060005260206000200160009054906101000a900473ffffffffffffffffffffffffffffffffffffffff1673ffffffffffffffffffffffffffffffffffffffff1660016000815481106108e7576108e66128cb565b5b9060005260206000200160009054906101000a900473ffffffffffffffffffffffffffffffffffffffff1673ffffffffffffffffffffffffffffffffffffffff167fb08d24e9c421bf19c1264147d29c87546f975e569059f8b67c5dc2263bb313d1600360019054906101000a900460ff16600160038154811061096e5761096d6128cb565b5b9060005260206000200160009054906101000a900473ffffffffffffffffffffffffffffffffffffffff1660008060016000815481106109b1576109b06128cb565b5b9060005260206000200160009054906101000a900473ffffffffffffffffffffffffffffffffffffffff1673ffffffffffffffffffffffffffffffffffffffff1673ffffffffffffffffffffffffffffffffffffffff1681526020019081526020016000206003015460008060018081548110610a3157610a306128cb565b5b9060005260206000200160009054906101000a900473ffffffffffffffffffffffffffffffffffffffff1673ffffffffffffffffffffffffffffffffffffffff1673ffffffffffffffffffffffffffffffffffffffff168152602001908152602001600020600301546000806001600281548110610ab257610ab16128cb565b5b9060005260206000200160009054906101000a900473ffffffffffffffffffffffffffffffffffffffff1673ffffffffffffffffffffffffffffffffffffffff1673ffffffffffffffffffffffffffffffffffffffff168152602001908152602001600020600301546000806001600381548110610b3357610b326128cb565b5b9060005260206000200160009054906101000a900473ffffffffffffffffffffffffffffffffffffffff1673ffffffffffffffffffffffffffffffffffffffff1673ffffffffffffffffffffffffffffffffffffffff16815260200190815260200160002060030154604051610bae96959493929190612b1f565b60405180910390a4610bbe611369565b5b6001600281548110610bd457610bd36128cb565b5b9060005260206000200160009054906101000a900473ffffffffffffffffffffffffffffffffffffffff1673ffffffffffffffffffffffffffffffffffffffff1660018081548110610c2957610c286128cb565b5b9060005260206000200160009054906101000a900473ffffffffffffffffffffffffffffffffffffffff1673ffffffffffffffffffffffffffffffffffffffff166001600081548110610c7f57610c7e6128cb565b5b9060005260206000200160009054906101000a900473ffffffffffffffffffffffffffffffffffffffff1673ffffffffffffffffffffffffffffffffffffffff167f80598a7316af153f4575d9c6424516570d2f780782d57e2d320831aeaf4f17e86001600381548110610cf657610cf56128cb565b5b9060005260206000200160009054906101000a900473ffffffffffffffffffffffffffffffffffffffff166000806001600081548110610d3957610d386128cb565b5b9060005260206000200160009054906101000a900473ffffffffffffffffffffffffffffffffffffffff1673ffffffffffffffffffffffffffffffffffffffff1673ffffffffffffffffffffffffffffffffffffffff16815260200190815260200160002060010160008060018081548110610db857610db76128cb565b5b9060005260206000200160009054906101000a900473ffffffffffffffffffffffffffffffffffffffff1673ffffffffffffffffffffffffffffffffffffffff1673ffffffffffffffffffffffffffffffffffffffff1681526020019081526020016000206001016000806001600281548110610e3857610e376128cb565b5b9060005260206000200160009054906101000a900473ffffffffffffffffffffffffffffffffffffffff1673ffffffffffffffffffffffffffffffffffffffff1673ffffffffffffffffffffffffffffffffffffffff1681526020019081526020016000206001016000806001600381548110610eb857610eb76128cb565b5b9060005260206000200160009054906101000a900473ffffffffffffffffffffffffffffffffffffffff1673ffffffffffffffffffffffffffffffffffffffff1673ffffffffffffffffffffffffffffffffffffffff168152602001908152602001600020600101604051610f31959493929190612c8e565b60405180910390a450505050505050565b600360009054906101000a900460ff1615610f92576040517f08c379a0000000000000000000000000000000000000000000000000000000008152600401610f8990612d49565b60405180910390fd5b60048151600180549050610fa69190612d98565b1115610fe7576040517f08c379a0000000000000000000000000000000000000000000000000000000008152600401610fde90612e18565b60405180910390fd5b60005b8151811015611329576000828281518110611008576110076128cb565b5b602002602001015190506000805b6001805490508110156110b0578273ffffffffffffffffffffffffffffffffffffffff166001828154811061104e5761104d6128cb565b5b9060005260206000200160009054906101000a900473ffffffffffffffffffffffffffffffffffffffff1673ffffffffffffffffffffffffffffffffffffffff160361109d57600191506110b0565b80806110a890612e38565b915050611016565b5080156110f2576040517f08c379a00000000000000000000000000000000000000000000000000000000081526004016110e990612ecc565b60405180910390fd5b6001829080600181540180825580915050600190039060005260206000200160009091909190916101000a81548173ffffffffffffffffffffffffffffffffffffffff021916908373ffffffffffffffffffffffffffffffffffffffff1602179055506040518060a001604052808373ffffffffffffffffffffffffffffffffffffffff168152602001600067ffffffffffffffff811115611197576111966125ae565b5b6040519080825280602002602001820160405280156111c55781602001602082028036833780820191505090505b508152602001600067ffffffffffffffff8111156111e6576111e56125ae565b5b6040519080825280602002602001820160405280156112145781602001602082028036833780820191505090505b50815260200160008152602001600015158152506000808473ffffffffffffffffffffffffffffffffffffffff1673ffffffffffffffffffffffffffffffffffffffff16815260200190815260200160002060008201518160000160006101000a81548173ffffffffffffffffffffffffffffffffffffffff021916908373ffffffffffffffffffffffffffffffffffffffff16021790555060208201518160010190805190602001906112c99291906123e7565b5060408201518160020190805190602001906112e69291906123e7565b506060820151816003015560808201518160040160006101000a81548160ff0219169083151502179055509050505050808061132190612e38565b915050610fea565b5050565b600481565b600360009054906101000a900460ff1681565b6002818154811061135557600080fd5b906000526020600020016000915090505481565b600360009054906101000a900460ff166113b8576040517f08c379a00000000000000000000000000000000000000000000000000000000081526004016113af90612f38565b60405180910390fd5b6000600360006101000a81548160ff02191690831515021790555060005b600180549050811015611575576000600182815481106113f9576113f86128cb565b5b9060005260206000200160009054906101000a900473ffffffffffffffffffffffffffffffffffffffff1690506000808273ffffffffffffffffffffffffffffffffffffffff1673ffffffffffffffffffffffffffffffffffffffff16815260200190815260200160002060010160006114739190612434565b6000808273ffffffffffffffffffffffffffffffffffffffff1673ffffffffffffffffffffffffffffffffffffffff16815260200190815260200160002060020160006114c09190612434565b60008060008373ffffffffffffffffffffffffffffffffffffffff1673ffffffffffffffffffffffffffffffffffffffff1681526020019081526020016000206003018190555060008060008373ffffffffffffffffffffffffffffffffffffffff1673ffffffffffffffffffffffffffffffffffffffff16815260200190815260200160002060040160006101000a81548160ff02191690831515021790555050808061156d90612e38565b9150506113d6565b5060016004819055506115866120cc565b565b6004600180549050146115d0576040517f08c379a00000000000000000000000000000000000000000000000000000000081526004016115c790612fca565b60405180910390fd5b600360009054906101000a900460ff1615611620576040517f08c379a000000000000000000000000000000000000000000000000000000000815260040161161790612d49565b60405180910390fd5b6001600360006101000a81548160ff0219169083151502179055506116436121c4565b60005b6001805490508110156116ad5761169a6001828154811061166a576116696128cb565b5b9060005260206000200160009054906101000a900473ffffffffffffffffffffffffffffffffffffffff16611ade565b80806116a590612e38565b915050611646565b5060016002815481106116c3576116c26128cb565b5b9060005260206000200160009054906101000a900473ffffffffffffffffffffffffffffffffffffffff1673ffffffffffffffffffffffffffffffffffffffff1660018081548110611718576117176128cb565b5b9060005260206000200160009054906101000a900473ffffffffffffffffffffffffffffffffffffffff1673ffffffffffffffffffffffffffffffffffffffff16600160008154811061176e5761176d6128cb565b5b9060005260206000200160009054906101000a900473ffffffffffffffffffffffffffffffffffffffff1673ffffffffffffffffffffffffffffffffffffffff167fa3c103a21bb74207737d4023ba00b21feb46c09df459be2aadad33d6f215c5e060016003815481106117e5576117e46128cb565b5b9060005260206000200160009054906101000a900473ffffffffffffffffffffffffffffffffffffffff166000806001600081548110611828576118276128cb565b5b9060005260206000200160009054906101000a900473ffffffffffffffffffffffffffffffffffffffff1673ffffffffffffffffffffffffffffffffffffffff1673ffffffffffffffffffffffffffffffffffffffff168152602001908152602001600020600101600080600180815481106118a7576118a66128cb565b5b9060005260206000200160009054906101000a900473ffffffffffffffffffffffffffffffffffffffff1673ffffffffffffffffffffffffffffffffffffffff1673ffffffffffffffffffffffffffffffffffffffff1681526020019081526020016000206001016000806001600281548110611927576119266128cb565b5b9060005260206000200160009054906101000a900473ffffffffffffffffffffffffffffffffffffffff1673ffffffffffffffffffffffffffffffffffffffff1673ffffffffffffffffffffffffffffffffffffffff16815260200190815260200160002060010160008060016003815481106119a7576119a66128cb565b5b9060005260206000200160009054906101000a900473ffffffffffffffffffffffffffffffffffffffff1673ffffffffffffffffffffffffffffffffffffffff1673ffffffffffffffffffffffffffffffffffffffff168152602001908152602001600020600101604051611a20959493929190612c8e565b60405180910390a4565b60006020528060005260406000206000915090508060000160009054906101000a900473ffffffffffffffffffffffffffffffffffffffff16908060030154908060040160009054906101000a900460ff16905083565b600360019054906101000a900460ff1681565b60606040518060400160405280600e81526020017f48454c4c4f20424142414e554b49000000000000000000000000000000000000815250905090565b6000600180549050905090565b60008060008373ffffffffffffffffffffffffffffffffffffffff1673ffffffffffffffffffffffffffffffffffffffff168152602001908152602001600020600101905060008060008473ffffffffffffffffffffffffffffffffffffffff1673ffffffffffffffffffffffffffffffffffffffff168152602001908152602001600020600201905060005b8280549050811015611d38576000838281548110611b8c57611b8b6128cb565b5b90600052602060002001540315611d25576000600182611bac9190612d98565b90505b8380549050811015611d23576000848281548110611bd057611bcf6128cb565b5b90600052602060002001540315611d10576064848281548110611bf657611bf56128cb565b5b9060005260206000200154611c0b9190613019565b6064858481548110611c2057611c1f6128cb565b5b9060005260206000200154611c359190613019565b03611d0f5782848381548110611c4e57611c4d6128cb565b5b9060005260206000200154908060018154018082558091505060019003906000526020600020016000909190919091505582848281548110611c9357611c926128cb565b5b906000526020600020015490806001815401808255809150506001900390600052602060002001600090919091909150556000848381548110611cd957611cd86128cb565b5b90600052602060002001819055506000848281548110611cfc57611cfb6128cb565b5b9060005260206000200181905550611d23565b5b8080611d1b90612e38565b915050611baf565b505b8080611d3090612e38565b915050611b6b565b50611d4283611d47565b505050565b6000805b6000808473ffffffffffffffffffffffffffffffffffffffff1673ffffffffffffffffffffffffffffffffffffffff16815260200190815260200160002060010180549050811015611e1e5760008060008573ffffffffffffffffffffffffffffffffffffffff1673ffffffffffffffffffffffffffffffffffffffff1681526020019081526020016000206001018281548110611dec57611deb6128cb565b5b906000526020600020015414611e0b578180611e0790612e38565b9250505b8080611e1690612e38565b915050611d4b565b50600081148015611e815750600015156000808473ffffffffffffffffffffffffffffffffffffffff1673ffffffffffffffffffffffffffffffffffffffff16815260200190815260200160002060040160009054906101000a900460ff161515145b15611f415760016000808473ffffffffffffffffffffffffffffffffffffffff1673ffffffffffffffffffffffffffffffffffffffff16815260200190815260200160002060040160006101000a81548160ff0219169083151502179055506004546000808473ffffffffffffffffffffffffffffffffffffffff1673ffffffffffffffffffffffffffffffffffffffff1681526020019081526020016000206003018190555060046000815480929190611f3b90612e38565b91905055505b5050565b60008060009050600080600090505b60018054905081101561205b5760008060018381548110611f7857611f776128cb565b5b9060005260206000200160009054906101000a900473ffffffffffffffffffffffffffffffffffffffff1673ffffffffffffffffffffffffffffffffffffffff1673ffffffffffffffffffffffffffffffffffffffff16815260200190815260200160002060040160009054906101000a900460ff1615612006578280611ffe90612e38565b935050612048565b6001818154811061201a576120196128cb565b5b9060005260206000200160009054906101000a900473ffffffffffffffffffffffffffffffffffffffff1691505b808061205390612e38565b915050611f54565b506001600461206a919061304a565b82036120c25760046000808373ffffffffffffffffffffffffffffffffffffffff1673ffffffffffffffffffffffffffffffffffffffff168152602001908152602001600020600301819055506001925050506120c9565b6000925050505b90565b6000603490505b60008111156121c15760006001826120eb9190612d98565b42446040516020016120fe92919061309f565b6040516020818303038152906040528051906020012060001c6121219190613019565b905060028181548110612137576121366128cb565b5b906000526020600020015460028381548110612156576121556128cb565b5b906000526020600020015460028481548110612175576121746128cb565b5b90600052602060002001600060028581548110612195576121946128cb565b5b9060005260206000200160008491905055839190505550505080806121b9906130cb565b9150506120d3565b50565b60005b6103e88110156122f4576000603542836040516020016121e892919061309f565b6040516020818303038152906040528051906020012060001c61220b9190613019565b9050600060354260018561221f9190612d98565b60405160200161223092919061309f565b6040516020818303038152906040528051906020012060001c6122539190613019565b905060028181548110612269576122686128cb565b5b906000526020600020015460028381548110612288576122876128cb565b5b9060005260206000200154600284815481106122a7576122a66128cb565b5b906000526020600020016000600285815481106122c7576122c66128cb565b5b906000526020600020016000849190505583919050555050505080806122ec90612e38565b9150506121c7565b5060005b60358110156123e45760008060016004846123139190613019565b81548110612324576123236128cb565b5b9060005260206000200160009054906101000a900473ffffffffffffffffffffffffffffffffffffffff1673ffffffffffffffffffffffffffffffffffffffff1673ffffffffffffffffffffffffffffffffffffffff168152602001908152602001600020600101600282815481106123a05761239f6128cb565b5b9060005260206000200154908060018154018082558091505060019003906000526020600020016000909190919091505580806123dc90612e38565b9150506122f8565b50565b828054828255906000526020600020908101928215612423579160200282015b82811115612422578251825591602001919060010190612407565b5b5090506124309190612455565b5090565b50805460008255906000526020600020908101906124529190612455565b50565b5b8082111561246e576000816000905550600101612456565b5090565b6000604051905090565b600080fd5b600080fd5b6000819050919050565b61249981612486565b81146124a457600080fd5b50565b6000813590506124b681612490565b92915050565b6000602082840312156124d2576124d161247c565b5b60006124e0848285016124a7565b91505092915050565b600073ffffffffffffffffffffffffffffffffffffffff82169050919050565b6000612514826124e9565b9050919050565b61252481612509565b82525050565b600060208201905061253f600083018461251b565b92915050565b60008060006060848603121561255e5761255d61247c565b5b600061256c868287016124a7565b935050602061257d868287016124a7565b925050604061258e868287016124a7565b9150509250925092565b600080fd5b6000601f19601f8301169050919050565b7f4e487b7100000000000000000000000000000000000000000000000000000000600052604160045260246000fd5b6125e68261259d565b810181811067ffffffffffffffff82111715612605576126046125ae565b5b80604052505050565b6000612618612472565b905061262482826125dd565b919050565b600067ffffffffffffffff821115612644576126436125ae565b5b602082029050602081019050919050565b600080fd5b61266381612509565b811461266e57600080fd5b50565b6000813590506126808161265a565b92915050565b600061269961269484612629565b61260e565b905080838252602082019050602084028301858111156126bc576126bb612655565b5b835b818110156126e557806126d18882612671565b8452602084019350506020810190506126be565b5050509392505050565b600082601f83011261270457612703612598565b5b8135612714848260208601612686565b91505092915050565b6000602082840312156127335761273261247c565b5b600082013567ffffffffffffffff81111561275157612750612481565b5b61275d848285016126ef565b91505092915050565b61276f81612486565b82525050565b600060208201905061278a6000830184612766565b92915050565b60008115159050919050565b6127a581612790565b82525050565b60006020820190506127c0600083018461279c565b92915050565b6000602082840312156127dc576127db61247c565b5b60006127ea84828501612671565b91505092915050565b6000606082019050612808600083018661251b565b6128156020830185612766565b612822604083018461279c565b949350505050565b600081519050919050565b600082825260208201905092915050565b60005b83811015612864578082015181840152602081019050612849565b60008484015250505050565b600061287b8261282a565b6128858185612835565b9350612895818560208601612846565b61289e8161259d565b840191505092915050565b600060208201905081810360008301526128c38184612870565b905092915050565b7f4e487b7100000000000000000000000000000000000000000000000000000000600052603260045260246000fd5b7f496e76616c6964206361726420696e6465782e00000000000000000000000000600082015250565b6000612930601383612835565b915061293b826128fa565b602082019050919050565b6000602082019050818103600083015261295f81612923565b9050919050565b7f506c617965722068617320616c72656164792066696e69736865642e00000000600082015250565b600061299c601c83612835565b91506129a782612966565b602082019050919050565b600060208201905081810360008301526129cb8161298f565b9050919050565b7f54617267657420706c617965722068617320616c72656164792066696e69736860008201527f65642e0000000000000000000000000000000000000000000000000000000000602082015250565b6000612a2e602383612835565b9150612a39826129d2565b604082019050919050565b60006020820190508181036000830152612a5d81612a21565b9050919050565b7f43617264206e6f7420666f756e6420696e2074617267657420706c617965722760008201527f732068616e642e00000000000000000000000000000000000000000000000000602082015250565b6000612ac0602783612835565b9150612acb82612a64565b604082019050919050565b60006020820190508181036000830152612aef81612ab3565b9050919050565b6000604082019050612b0b600083018561279c565b612b186020830184612766565b9392505050565b600060c082019050612b34600083018961279c565b612b41602083018861251b565b612b4e6040830187612766565b612b5b6060830186612766565b612b686080830185612766565b612b7560a0830184612766565b979650505050505050565b600081549050919050565b600082825260208201905092915050565b60008190508160005260206000209050919050565b612bba81612486565b82525050565b6000612bcc8383612bb1565b60208301905092915050565b60008160001c9050919050565b6000819050919050565b6000612c02612bfd83612bd8565b612be5565b9050919050565b6000612c158254612bef565b9050919050565b6000600182019050919050565b6000612c3482612b80565b612c3e8185612b8b565b9350612c4983612b9c565b8060005b83811015612c8157612c5e82612c09565b612c688882612bc0565b9750612c7383612c1c565b925050600181019050612c4d565b5085935050505092915050565b600060a082019050612ca3600083018861251b565b8181036020830152612cb58187612c29565b90508181036040830152612cc98186612c29565b90508181036060830152612cdd8185612c29565b90508181036080830152612cf18184612c29565b90509695505050505050565b7f47616d652068617320616c726561647920737461727465642e00000000000000600082015250565b6000612d33601983612835565b9150612d3e82612cfd565b602082019050919050565b60006020820190508181036000830152612d6281612d26565b9050919050565b7f4e487b7100000000000000000000000000000000000000000000000000000000600052601160045260246000fd5b6000612da382612486565b9150612dae83612486565b9250828201905080821115612dc657612dc5612d69565b5b92915050565b7f416464696e6720746f6f206d616e7920706c61796572732e0000000000000000600082015250565b6000612e02601883612835565b9150612e0d82612dcc565b602082019050919050565b60006020820190508181036000830152612e3181612df5565b9050919050565b6000612e4382612486565b91507fffffffffffffffffffffffffffffffffffffffffffffffffffffffffffffffff8203612e7557612e74612d69565b5b600182019050919050565b7f506c617965722068617320616c7265616479206a6f696e65642e000000000000600082015250565b6000612eb6601a83612835565b9150612ec182612e80565b602082019050919050565b60006020820190508181036000830152612ee581612ea9565b9050919050565b7f47616d6520686173206e6f742073746172746564207965742e00000000000000600082015250565b6000612f22601983612835565b9150612f2d82612eec565b602082019050919050565b60006020820190508181036000830152612f5181612f15565b9050919050565b7f4e6f7420656e6f75676820706c617965727320746f207374617274207468652060008201527f67616d652e000000000000000000000000000000000000000000000000000000602082015250565b6000612fb4602583612835565b9150612fbf82612f58565b604082019050919050565b60006020820190508181036000830152612fe381612fa7565b9050919050565b7f4e487b7100000000000000000000000000000000000000000000000000000000600052601260045260246000fd5b600061302482612486565b915061302f83612486565b92508261303f5761303e612fea565b5b828206905092915050565b600061305582612486565b915061306083612486565b925082820390508181111561307857613077612d69565b5b92915050565b6000819050919050565b61309961309482612486565b61307e565b82525050565b60006130ab8285613088565b6020820191506130bb8284613088565b6020820191508190509392505050565b60006130d682612486565b9150600082036130e9576130e8612d69565b5b60018203905091905056fea2646970667358221220aae1216a76c8a423e37bb512a4d69fb359565340b6317fed7c836332b0f3138264736f6c63430008120033",
  "linkReferences": {},
  "deployedLinkReferences": {}
}