{
  "_format": "hh-sol-artifact-1",
  "contractName": "BabanukiNFT",
  "sourceName": "contracts/BabanukiNFT.sol",
  "abi": [
    {
      "inputs": [],
      "stateMutability": "nonpayable",
      "type": "constructor"
    },
    {
      "anonymous": false,
      "inputs": [
        {
          "indexed": true,
          "internalType": "address",
          "name": "owner",
          "type": "address"
        },
        {
          "indexed": true,
          "internalType": "address",
          "name": "approved",
          "type": "address"
        },
        {
          "indexed": true,
          "internalType": "uint256",
          "name": "tokenId",
          "type": "uint256"
        }
      ],
      "name": "Approval",
      "type": "event"
    },
    {
      "anonymous": false,
      "inputs": [
        {
          "indexed": true,
          "internalType": "address",
          "name": "owner",
          "type": "address"
        },
        {
          "indexed": true,
          "internalType": "address",
          "name": "operator",
          "type": "address"
        },
        {
          "indexed": false,
          "internalType": "bool",
          "name": "approved",
          "type": "bool"
        }
      ],
      "name": "ApprovalForAll",
      "type": "event"
    },
    {
      "anonymous": false,
      "inputs": [
        {
          "indexed": false,
          "internalType": "uint256[]",
          "name": "player1Hand",
          "type": "uint256[]"
        },
        {
          "indexed": false,
          "internalType": "uint256[]",
          "name": "player2Hand",
          "type": "uint256[]"
        }
      ],
      "name": "CardDrawn",
      "type": "event"
    },
    {
      "anonymous": false,
      "inputs": [
        {
          "indexed": false,
          "internalType": "address",
          "name": "winner",
          "type": "address"
        }
      ],
      "name": "GameOver",
      "type": "event"
    },
    {
      "anonymous": false,
      "inputs": [
        {
          "indexed": true,
          "internalType": "address",
          "name": "player1",
          "type": "address"
        },
        {
          "indexed": true,
          "internalType": "address",
          "name": "player2",
          "type": "address"
        },
        {
          "indexed": false,
          "internalType": "uint256[]",
          "name": "player1Hand",
          "type": "uint256[]"
        },
        {
          "indexed": false,
          "internalType": "uint256[]",
          "name": "player2Hand",
          "type": "uint256[]"
        }
      ],
      "name": "GameStarted",
      "type": "event"
    },
    {
      "anonymous": false,
      "inputs": [
        {
          "indexed": true,
          "internalType": "address",
          "name": "recipient",
          "type": "address"
        },
        {
          "indexed": true,
          "internalType": "uint256",
          "name": "tokenId",
          "type": "uint256"
        },
        {
          "indexed": false,
          "internalType": "string",
          "name": "tokenURI",
          "type": "string"
        }
      ],
      "name": "NFTAwarded",
      "type": "event"
    },
    {
      "anonymous": false,
      "inputs": [
        {
          "indexed": false,
          "internalType": "uint8",
          "name": "currentPlayerIndex",
          "type": "uint8"
        },
        {
          "indexed": false,
          "internalType": "uint8",
          "name": "targetPlayerIndex",
          "type": "uint8"
        },
        {
          "indexed": false,
          "internalType": "uint256",
          "name": "chosenCard",
          "type": "uint256"
        }
      ],
      "name": "NpcTurn",
      "type": "event"
    },
    {
      "anonymous": false,
      "inputs": [
        {
          "indexed": true,
          "internalType": "address",
          "name": "from",
          "type": "address"
        },
        {
          "indexed": true,
          "internalType": "address",
          "name": "to",
          "type": "address"
        },
        {
          "indexed": true,
          "internalType": "uint256",
          "name": "tokenId",
          "type": "uint256"
        }
      ],
      "name": "Transfer",
      "type": "event"
    },
    {
      "inputs": [],
      "name": "PLAYER_COUNT",
      "outputs": [
        {
          "internalType": "uint8",
          "name": "",
          "type": "uint8"
        }
      ],
      "stateMutability": "view",
      "type": "function"
    },
    {
      "inputs": [
        {
          "internalType": "address",
          "name": "to",
          "type": "address"
        },
        {
          "internalType": "uint256",
          "name": "tokenId",
          "type": "uint256"
        }
      ],
      "name": "approve",
      "outputs": [],
      "stateMutability": "nonpayable",
      "type": "function"
    },
    {
      "inputs": [
        {
          "internalType": "address",
          "name": "owner",
          "type": "address"
        }
      ],
      "name": "balanceOf",
      "outputs": [
        {
          "internalType": "uint256",
          "name": "",
          "type": "uint256"
        }
      ],
      "stateMutability": "view",
      "type": "function"
    },
    {
      "inputs": [
        {
          "internalType": "string",
          "name": "tokenURI",
          "type": "string"
        }
      ],
      "name": "claimNFT",
      "outputs": [],
      "stateMutability": "nonpayable",
      "type": "function"
    },
    {
      "inputs": [
        {
          "internalType": "uint256",
          "name": "",
          "type": "uint256"
        }
      ],
      "name": "deck",
      "outputs": [
        {
          "internalType": "uint256",
          "name": "",
          "type": "uint256"
        }
      ],
      "stateMutability": "view",
      "type": "function"
    },
    {
      "inputs": [
        {
          "internalType": "uint8",
          "name": "playerIndex",
          "type": "uint8"
        },
        {
          "internalType": "uint8",
          "name": "targetPlayerIndex",
          "type": "uint8"
        },
        {
          "internalType": "uint256",
          "name": "targetCardIndex",
          "type": "uint256"
        }
      ],
      "name": "drawCard",
      "outputs": [],
      "stateMutability": "nonpayable",
      "type": "function"
    },
    {
      "inputs": [],
      "name": "gameOverFlag",
      "outputs": [
        {
          "internalType": "bool",
          "name": "",
          "type": "bool"
        }
      ],
      "stateMutability": "view",
      "type": "function"
    },
    {
      "inputs": [],
      "name": "gameStarted",
      "outputs": [
        {
          "internalType": "bool",
          "name": "",
          "type": "bool"
        }
      ],
      "stateMutability": "view",
      "type": "function"
    },
    {
      "inputs": [
        {
          "internalType": "uint256",
          "name": "tokenId",
          "type": "uint256"
        }
      ],
      "name": "getApproved",
      "outputs": [
        {
          "internalType": "address",
          "name": "",
          "type": "address"
        }
      ],
      "stateMutability": "view",
      "type": "function"
    },
    {
      "inputs": [],
      "name": "getNumberOfPlayers",
      "outputs": [
        {
          "internalType": "uint256",
          "name": "",
          "type": "uint256"
        }
      ],
      "stateMutability": "view",
      "type": "function"
    },
    {
      "inputs": [
        {
          "internalType": "address",
          "name": "owner",
          "type": "address"
        },
        {
          "internalType": "address",
          "name": "operator",
          "type": "address"
        }
      ],
      "name": "isApprovedForAll",
      "outputs": [
        {
          "internalType": "bool",
          "name": "",
          "type": "bool"
        }
      ],
      "stateMutability": "view",
      "type": "function"
    },
    {
      "inputs": [],
      "name": "joinGame",
      "outputs": [],
      "stateMutability": "nonpayable",
      "type": "function"
    },
    {
      "inputs": [],
      "name": "maxTokenId",
      "outputs": [
        {
          "internalType": "uint256",
          "name": "",
          "type": "uint256"
        }
      ],
      "stateMutability": "view",
      "type": "function"
    },
    {
      "inputs": [],
      "name": "name",
      "outputs": [
        {
          "internalType": "string",
          "name": "",
          "type": "string"
        }
      ],
      "stateMutability": "view",
      "type": "function"
    },
    {
      "inputs": [
        {
          "internalType": "uint8",
          "name": "currentPlayerIndex",
          "type": "uint8"
        }
      ],
      "name": "nextTurn",
      "outputs": [],
      "stateMutability": "nonpayable",
      "type": "function"
    },
    {
      "inputs": [
        {
          "internalType": "uint256",
          "name": "tokenId",
          "type": "uint256"
        }
      ],
      "name": "ownerOf",
      "outputs": [
        {
          "internalType": "address",
          "name": "",
          "type": "address"
        }
      ],
      "stateMutability": "view",
      "type": "function"
    },
    {
      "inputs": [
        {
          "internalType": "uint256",
          "name": "",
          "type": "uint256"
        }
      ],
      "name": "playerAddresses",
      "outputs": [
        {
          "internalType": "address",
          "name": "",
          "type": "address"
        }
      ],
      "stateMutability": "view",
      "type": "function"
    },
    {
      "inputs": [
        {
          "internalType": "address",
          "name": "",
          "type": "address"
        }
      ],
      "name": "players",
      "outputs": [
        {
          "internalType": "address",
          "name": "playerAddress",
          "type": "address"
        },
        {
          "internalType": "bool",
          "name": "isHuman",
          "type": "bool"
        }
      ],
      "stateMutability": "view",
      "type": "function"
    },
    {
      "inputs": [],
      "name": "resetGame",
      "outputs": [],
      "stateMutability": "nonpayable",
      "type": "function"
    },
    {
      "inputs": [
        {
          "internalType": "address",
          "name": "from",
          "type": "address"
        },
        {
          "internalType": "address",
          "name": "to",
          "type": "address"
        },
        {
          "internalType": "uint256",
          "name": "tokenId",
          "type": "uint256"
        }
      ],
      "name": "safeTransferFrom",
      "outputs": [],
      "stateMutability": "nonpayable",
      "type": "function"
    },
    {
      "inputs": [
        {
          "internalType": "address",
          "name": "from",
          "type": "address"
        },
        {
          "internalType": "address",
          "name": "to",
          "type": "address"
        },
        {
          "internalType": "uint256",
          "name": "tokenId",
          "type": "uint256"
        },
        {
          "internalType": "bytes",
          "name": "data",
          "type": "bytes"
        }
      ],
      "name": "safeTransferFrom",
      "outputs": [],
      "stateMutability": "nonpayable",
      "type": "function"
    },
    {
      "inputs": [],
      "name": "sayHello",
      "outputs": [
        {
          "internalType": "string",
          "name": "",
          "type": "string"
        }
      ],
      "stateMutability": "pure",
      "type": "function"
    },
    {
      "inputs": [
        {
          "internalType": "address",
          "name": "operator",
          "type": "address"
        },
        {
          "internalType": "bool",
          "name": "approved",
          "type": "bool"
        }
      ],
      "name": "setApprovalForAll",
      "outputs": [],
      "stateMutability": "nonpayable",
      "type": "function"
    },
    {
      "inputs": [],
      "name": "startGame",
      "outputs": [],
      "stateMutability": "nonpayable",
      "type": "function"
    },
    {
      "inputs": [
        {
          "internalType": "bytes4",
          "name": "interfaceId",
          "type": "bytes4"
        }
      ],
      "name": "supportsInterface",
      "outputs": [
        {
          "internalType": "bool",
          "name": "",
          "type": "bool"
        }
      ],
      "stateMutability": "view",
      "type": "function"
    },
    {
      "inputs": [],
      "name": "symbol",
      "outputs": [
        {
          "internalType": "string",
          "name": "",
          "type": "string"
        }
      ],
      "stateMutability": "view",
      "type": "function"
    },
    {
      "inputs": [
        {
          "internalType": "uint256",
          "name": "tokenId",
          "type": "uint256"
        }
      ],
      "name": "tokenURI",
      "outputs": [
        {
          "internalType": "string",
          "name": "",
          "type": "string"
        }
      ],
      "stateMutability": "view",
      "type": "function"
    },
    {
      "inputs": [
        {
          "internalType": "address",
          "name": "from",
          "type": "address"
        },
        {
          "internalType": "address",
          "name": "to",
          "type": "address"
        },
        {
          "internalType": "uint256",
          "name": "tokenId",
          "type": "uint256"
        }
      ],
      "name": "transferFrom",
      "outputs": [],
      "stateMutability": "nonpayable",
      "type": "function"
    }
  ],
  "bytecode": "0x60806040526008805461ffff191690553480156200001c57600080fd5b506040518060400160405280600781526020016642424e4974656d60c81b8152506040518060400160405280600381526020016221212760e91b81525081600090816200006a9190620001d6565b506001620000798282620001d6565b5060019150505b60048111620000f25760015b600d8111620000dc57600b81620000a5846064620002b8565b620000b19190620002d8565b8154600181018355600092835260209092209091015580620000d381620002ee565b9150506200008c565b5080620000e981620002ee565b91505062000080565b50600b80546001810182556000919091526103e77f0175b7a638427703f0dbe7bb9bbf987a2551717b34e79f33b5b1008d1fa01db9909101556200030a565b634e487b7160e01b600052604160045260246000fd5b600181811c908216806200015c57607f821691505b6020821081036200017d57634e487b7160e01b600052602260045260246000fd5b50919050565b601f821115620001d157600081815260208120601f850160051c81016020861015620001ac5750805b601f850160051c820191505b81811015620001cd57828155600101620001b8565b5050505b505050565b81516001600160401b03811115620001f257620001f262000131565b6200020a8162000203845462000147565b8462000183565b602080601f831160018114620002425760008415620002295750858301515b600019600386901b1c1916600185901b178555620001cd565b600085815260208120601f198616915b82811015620002735788860151825594840194600190910190840162000252565b5085821015620002925787850151600019600388901b60f8161c191681555b5050505050600190811b01905550565b634e487b7160e01b600052601160045260246000fd5b8082028115828204841417620002d257620002d2620002a2565b92915050565b80820180821115620002d257620002d2620002a2565b600060018201620003035762000303620002a2565b5060010190565b612c1b806200031a6000396000f3fe608060405234801561001057600080fd5b50600436106101c45760003560e01c806373fa95c4116100f9578063d4f77b1c11610097578063e86b70cb11610071578063e86b70cb146103dd578063e985e9c5146103ef578063ef5fb05b14610402578063fd6673f51461042c57600080fd5b8063d4f77b1c14610378578063d65ab5f214610380578063e2eb41ff1461038857600080fd5b8063a22cb465116100d3578063a22cb46514610337578063b88d4fde1461034a578063bb4722191461035d578063c87b56dd1461036557600080fd5b806373fa95c41461031357806391ba317a1461032657806395d89b411461032f57600080fd5b80632829a3d811610166578063601c405711610140578063601c4057146102b95780636352211e146102cc57806365b1dafa146102df57806370a082311461030057600080fd5b80632829a3d81461027f57806342842e0e146102995780635e123ce4146102ac57600080fd5b8063095ea7b3116101a2578063095ea7b314610231578063117207561461024657806315c6aee21461025957806323b872dd1461026c57600080fd5b806301ffc9a7146101c957806306fdde03146101f1578063081812fc14610206575b600080fd5b6101dc6101d7366004612477565b610434565b60405190151581526020015b60405180910390f35b6101f9610486565b6040516101e891906124e4565b6102196102143660046124f7565b610518565b6040516001600160a01b0390911681526020016101e8565b61024461023f36600461252c565b61053f565b005b6102446102543660046125e2565b610659565b6102196102673660046124f7565b6106d1565b61024461027a36600461262b565b6106fb565b610287600281565b60405160ff90911681526020016101e8565b6102446102a736600461262b565b61072c565b6008546101dc9060ff1681565b6102446102c7366004612678565b610747565b6102196102da3660046124f7565b610aed565b6102f26102ed3660046124f7565b610b4d565b6040519081526020016101e8565b6102f261030e3660046126a4565b610b6e565b6102446103213660046126bf565b610bf4565b6102f260095481565b6101f9610d7a565b6102446103453660046126da565b610d89565b610244610358366004612716565b610d94565b610244610dcc565b6101f96103733660046124f7565b610ec6565b610244610fd6565b61024461121f565b6103be6103963660046126a4565b600d60205260009081526040902080546003909101546001600160a01b039091169060ff1682565b604080516001600160a01b0390931683529015156020830152016101e8565b6008546101dc90610100900460ff1681565b6101dc6103fd366004612792565b6115fd565b60408051808201909152600e81526d48454c4c4f20424142414e554b4960901b60208201526101f9565b600c546102f2565b60006001600160e01b031982166380ac58cd60e01b148061046557506001600160e01b03198216635b5e139f60e01b145b8061048057506301ffc9a760e01b6001600160e01b03198316145b92915050565b606060008054610495906127c5565b80601f01602080910402602001604051908101604052809291908181526020018280546104c1906127c5565b801561050e5780601f106104e35761010080835404028352916020019161050e565b820191906000526020600020905b8154815290600101906020018083116104f157829003601f168201915b5050505050905090565b60006105238261162b565b506000908152600460205260409020546001600160a01b031690565b600061054a82610aed565b9050806001600160a01b0316836001600160a01b0316036105bc5760405162461bcd60e51b815260206004820152602160248201527f4552433732313a20617070726f76616c20746f2063757272656e74206f776e656044820152603960f91b60648201526084015b60405180910390fd5b336001600160a01b03821614806105d857506105d881336115fd565b61064a5760405162461bcd60e51b815260206004820152603d60248201527f4552433732313a20617070726f76652063616c6c6572206973206e6f7420746f60448201527f6b656e206f776e6572206f7220617070726f76656420666f7220616c6c00000060648201526084016105b3565b610654838361168a565b505050565b600a546001600160a01b031633146106b35760405162461bcd60e51b815260206004820152601e60248201527f4f6e6c79207468652077696e6e65722063616e20636c61696d204e46542e000060448201526064016105b3565b6106bd33826116f8565b5050600a80546001600160a01b0319169055565b600c81815481106106e157600080fd5b6000918252602090912001546001600160a01b0316905081565b6107053382611781565b6107215760405162461bcd60e51b81526004016105b3906127ff565b6106548383836117df565b61065483838360405180602001604052806000815250610d94565b6000600c8460ff168154811061075f5761075f61284c565b6000918252602082200154600c80546001600160a01b0390921693509060ff861690811061078f5761078f61284c565b60009182526020808320909101546001600160a01b0316808352600d909152604090912060010180549192509084106108005760405162461bcd60e51b815260206004820152601360248201527224b73b30b634b21031b0b9321034b73232bc1760691b60448201526064016105b3565b6001600160a01b0382166000908152600d6020526040812060010180548690811061082d5761082d61284c565b906000526020600020015490508060000361089a5760405162461bcd60e51b815260206004820152602760248201527f43617264206e6f7420666f756e6420696e2074617267657420706c617965722760448201526639903430b7321760c91b60648201526084016105b3565b6001600160a01b0384166000908152600d60209081526040822060019081018054808301825590845291832090910183905583546108d89190612878565b90508281815481106108ec576108ec61284c565b90600052602060002001548387815481106109095761090961284c565b9060005260206000200181905550828054806109275761092761288b565b6001900381819060005260206000200160009055905561094685611943565b7f6fca382da644872bc1cd08cf157a471112b2ebca2b0b0c481b096181356f179c600d6000600c60008154811061097f5761097f61284c565b60009182526020808320909101546001600160a01b031683528201929092526040018120600c8054600192830193600d9390929181106109c1576109c161284c565b60009182526020808320909101546001600160a01b03168352820192909252604090810190912090516109f89291600101906128e1565b60405180910390a16001600160a01b0385166000908152600d60205260408120600101548103610a455750600a80546001600160a01b0319166001600160a01b0387161790556001610a86565b6001600160a01b0385166000908152600d60205260408120600101549003610a865750600a80546001600160a01b0319166001600160a01b03861617905560015b8015610ad957600a546040516001600160a01b0390911681527ff556ad7790e70877edcf3b3bb441255def8a405faa0dfdb005a02fa8e557bca99060200160405180910390a1610ad4610dcc565b610ae2565b610ae288610bf4565b505050505050505050565b6000818152600260205260408120546001600160a01b0316806104805760405162461bcd60e51b8152602060048201526018602482015277115490cdcc8c4e881a5b9d985b1a59081d1bdad95b88125160421b60448201526064016105b3565b600b8181548110610b5d57600080fd5b600091825260209091200154905081565b60006001600160a01b038216610bd85760405162461bcd60e51b815260206004820152602960248201527f4552433732313a2061646472657373207a65726f206973206e6f7420612076616044820152683634b21037bbb732b960b91b60648201526084016105b3565b506001600160a01b031660009081526003602052604090205490565b60085460ff16610c425760405162461bcd60e51b815260206004820152601960248201527823b0b6b2903430b9903737ba1039ba30b93a32b2103cb2ba1760391b60448201526064016105b3565b600854610100900460ff1615610c8a5760405162461bcd60e51b815260206004820152600d60248201526c23b0b6b29034b99037bb32b91760991b60448201526064016105b3565b60006002610c9983600161290f565b610ca3919061293e565b9050600d6000600c8460ff1681548110610cbf57610cbf61284c565b60009182526020808320909101546001600160a01b0316835282019290925260400190206003015460ff16610d76576000610d23600c8360ff1681548110610d0957610d0961284c565b6000918252602090912001546001600160a01b0316611b8c565b6040805160ff8087168252851660208201529081018290529091507fa0e3c255478e4bf01daba6329a82bc6ca1effa8d27ab44d4fb93b9b66315aa6d9060600160405180910390a1610654838383610747565b5050565b606060018054610495906127c5565b610d76338383611c4e565b610d9e3383611781565b610dba5760405162461bcd60e51b81526004016105b3906127ff565b610dc684848484611d1c565b50505050565b60085460ff16610e1a5760405162461bcd60e51b815260206004820152601960248201527823b0b6b2903430b9903737ba1039ba30b93a32b2103cb2ba1760391b60448201526064016105b3565b6008805461ffff1916905560005b600c54811015610eb7576000600c8281548110610e4757610e4761284c565b60009182526020808320909101546001600160a01b0316808352600d90915260408220909250610e7d91600191909101906123e3565b6001600160a01b0381166000908152600d60205260408120610ea4916002909101906123e3565b5080610eaf81612960565b915050610e28565b50610ec4600c60006123e3565b565b6060610ed18261162b565b60008281526006602052604081208054610eea906127c5565b80601f0160208091040260200160405190810160405280929190818152602001828054610f16906127c5565b8015610f635780601f10610f3857610100808354040283529160200191610f63565b820191906000526020600020905b815481529060010190602001808311610f4657829003601f168201915b505050505090506000610f8160408051602081019091526000815290565b90508051600003610f93575092915050565b815115610fc5578082604051602001610fad929190612979565b60405160208183030381529060405292505050919050565b610fce84611d4f565b949350505050565b60085460ff16156110255760405162461bcd60e51b815260206004820152601960248201527823b0b6b2903430b99030b63932b0b23c9039ba30b93a32b21760391b60448201526064016105b3565b600c546002906110369060016129a8565b11156110845760405162461bcd60e51b815260206004820152601860248201527f416464696e6720746f6f206d616e7920706c61796572732e000000000000000060448201526064016105b3565b6000805b600c548110156110e457336001600160a01b0316600c82815481106110af576110af61284c565b6000918252602090912001546001600160a01b0316036110d257600191506110e4565b806110dc81612960565b915050611088565b5080156111335760405162461bcd60e51b815260206004820152601a60248201527f506c617965722068617320616c7265616479206a6f696e65642e00000000000060448201526064016105b3565b600c805460018082019092557fdf6966c971051c3d54ec59162606531493a51404a002842f56009d7e5cf4a8c7018054336001600160a01b03199182168117909255604080516080810182528381528151600080825260208083018552808401928352845182815280820186528486015260608401889052958152600d865292909220815181546001600160a01b03909116941693909317835590518051919492936111e493850192910190612401565b5060408201518051611200916002840191602090910190612401565b50606091909101516003909101805460ff191691151591909117905550565b600c546001118015906112355750600c54600210155b6112815760405162461bcd60e51b815260206004820152601a60248201527f496e76616c6964206e756d626572206f6620706c61796572732e00000000000060448201526064016105b3565b600c54805b60028110156113bd5760008143406040516020016112ae929190918252602082015260400190565b60408051808303601f190181528282528051602091820120600c805460018082019092557fdf6966c971051c3d54ec59162606531493a51404a002842f56009d7e5cf4a8c70180546001600160a01b03199081166001600160a01b03808616918217909355608088018752808852865160008082528188018952878a0191825288518181528089018a528a8a015260608a01819052918252600d87529690208751815490921691909216178155935180519296506113729391850192910190612401565b506040820151805161138e916002840191602090910190612401565b50606091909101516003909101805460ff191691151591909117905550806113b581612960565b915050611286565b50600c5460021461141e5760405162461bcd60e51b815260206004820152602560248201527f4e6f7420656e6f75676820706c617965727320746f207374617274207468652060448201526433b0b6b29760d91b60648201526084016105b3565b60085460ff161561146d5760405162461bcd60e51b815260206004820152601960248201527823b0b6b2903430b99030b63932b0b23c9039ba30b93a32b21760391b60448201526064016105b3565b6008805460ff19166001179055611482611dc3565b60005b600c548110156114d1576114bf600c82815481106114a5576114a561284c565b6000918252602090912001546001600160a01b0316611943565b806114c981612960565b915050611485565b50600a80546001600160a01b0319169055600c805460019081106114f7576114f761284c565b6000918252602082200154600c80546001600160a01b039092169290916115205761152061284c565b6000918252602082200154600c80546001600160a01b03909216927f46ddfba6c0afcb5082966eec265f4cc27258f2f347c1e404628174cee05721dd92600d9290829061156f5761156f61284c565b60009182526020808320909101546001600160a01b031683528201929092526040018120600c8054600192830193600d9390929181106115b1576115b161284c565b60009182526020808320909101546001600160a01b03168352820192909252604090810190912090516115e89291600101906128e1565b60405180910390a36115fa6000610bf4565b50565b6001600160a01b03918216600090815260056020908152604080832093909416825291909152205460ff1690565b6000818152600260205260409020546001600160a01b03166115fa5760405162461bcd60e51b8152602060048201526018602482015277115490cdcc8c4e881a5b9d985b1a59081d1bdad95b88125160421b60448201526064016105b3565b600081815260046020526040902080546001600160a01b0319166001600160a01b03841690811790915581906116bf82610aed565b6001600160a01b03167f8c5be1e5ebec7d5bd14f71427d1e84f3dd0314c0f7b2291e5b200ac8c7c3b92560405160405180910390a45050565b60008061170460075490565b90506117108482611f59565b61171a81846120e4565b611728600780546001019055565b6009548111156117385760098190555b80846001600160a01b03167f57462ec1f49bd1a16058121274b02c53e3dd9fa6a481daea6960fe1101164cfe8560405161177291906124e4565b60405180910390a39392505050565b60008061178d83610aed565b9050806001600160a01b0316846001600160a01b031614806117b457506117b481856115fd565b80610fce5750836001600160a01b03166117cd84610518565b6001600160a01b031614949350505050565b826001600160a01b03166117f282610aed565b6001600160a01b0316146118185760405162461bcd60e51b81526004016105b3906129bb565b6001600160a01b03821661187a5760405162461bcd60e51b8152602060048201526024808201527f4552433732313a207472616e7366657220746f20746865207a65726f206164646044820152637265737360e01b60648201526084016105b3565b826001600160a01b031661188d82610aed565b6001600160a01b0316146118b35760405162461bcd60e51b81526004016105b3906129bb565b600081815260046020908152604080832080546001600160a01b03199081169091556001600160a01b0387811680865260038552838620805460001901905590871680865283862080546001019055868652600290945282852080549092168417909155905184937fddf252ad1be2c89b69c2b068fc378daa952ba7f163c4a11628f55a4df523b3ef91a4505050565b6001600160a01b0381166000908152600d602052604081206001810191600290910190805b8354811015611b56578381815481106119835761198361284c565b906000526020600020015460000315611b44576000806119a48360016129a8565b90505b8554811015611af4578581815481106119c2576119c261284c565b906000526020600020015460000315611ae25760648682815481106119e9576119e961284c565b90600052602060002001546119fe9190612a00565b6064878581548110611a1257611a1261284c565b9060005260206000200154611a279190612a00565b03611ae25784868481548110611a3f57611a3f61284c565b6000918252602080832090910154835460018101855593835291209091015585548590879083908110611a7457611a7461284c565b60009182526020808320909101548354600181018555938352908220909201919091558654879085908110611aab57611aab61284c565b90600052602060002001819055506000868281548110611acd57611acd61284c565b60009182526020909120015560019150611af4565b80611aec81612960565b9150506119a7565b5080611b4257848281548110611b0c57611b0c61284c565b9060005260206000200154858480611b2390612960565b955081548110611b3557611b3561284c565b6000918252602090912001555b505b80611b4e81612960565b915050611968565b505b8254811015610dc65782805480611b7157611b7161288b565b60019003818190600052602060002001600090559055611b58565b6001600160a01b0381166000908152600d602052604081206001018054611bf55760405162461bcd60e51b815260206004820152601e60248201527f54617267657420706c6179657227732068616e6420697320656d7074792e000060448201526064016105b3565b8054604080514260208083019190915244828401524360608084019190915287901b6bffffffffffffffffffffffff191660808301528251808303607401815260949092019092528051910120600091610fce91612a00565b816001600160a01b0316836001600160a01b031603611caf5760405162461bcd60e51b815260206004820152601960248201527f4552433732313a20617070726f766520746f2063616c6c65720000000000000060448201526064016105b3565b6001600160a01b03838116600081815260056020908152604080832094871680845294825291829020805460ff191686151590811790915591519182527f17307eab39ab6107e8899845ad3d59bd9653f200f220920489ca2b5937696c31910160405180910390a3505050565b611d278484846117df565b611d3384848484612177565b610dc65760405162461bcd60e51b81526004016105b390612a14565b6060611d5a8261162b565b6000611d7160408051602081019091526000815290565b90506000815111611d915760405180602001604052806000815250611dbc565b80611d9b84612278565b604051602001611dac929190612979565b6040516020818303038152906040525b9392505050565b600b545b6001811115611ebb576040805142602082015290810182905260009082906060016040516020818303038152906040528051906020012060001c611e0b9190612a00565b9050600b8181548110611e2057611e2061284c565b9060005260206000200154600b600184611e3a9190612878565b81548110611e4a57611e4a61284c565b9060005260206000200154600b600185611e649190612878565b81548110611e7457611e7461284c565b906000526020600020016000600b8581548110611e9357611e9361284c565b6000918252602090912001929092559190915550819050611eb381612a66565b915050611dc7565b5060005b60358110156115fa57600d6000600c611ed9600285612a00565b81548110611ee957611ee961284c565b60009182526020808320909101546001600160a01b031683528201929092526040019020600b80546001929092019183908110611f2857611f2861284c565b6000918252602080832090910154835460018101855593835291209091015580611f5181612960565b915050611ebf565b6001600160a01b038216611faf5760405162461bcd60e51b815260206004820181905260248201527f4552433732313a206d696e7420746f20746865207a65726f206164647265737360448201526064016105b3565b6000818152600260205260409020546001600160a01b0316156120145760405162461bcd60e51b815260206004820152601c60248201527f4552433732313a20746f6b656e20616c7265616479206d696e7465640000000060448201526064016105b3565b6000818152600260205260409020546001600160a01b0316156120795760405162461bcd60e51b815260206004820152601c60248201527f4552433732313a20746f6b656e20616c7265616479206d696e7465640000000060448201526064016105b3565b6001600160a01b038216600081815260036020908152604080832080546001019055848352600290915280822080546001600160a01b0319168417905551839291907fddf252ad1be2c89b69c2b068fc378daa952ba7f163c4a11628f55a4df523b3ef908290a45050565b6000828152600260205260409020546001600160a01b031661215f5760405162461bcd60e51b815260206004820152602e60248201527f45524337323155524953746f726167653a2055524920736574206f66206e6f6e60448201526d32bc34b9ba32b73a103a37b5b2b760911b60648201526084016105b3565b60008281526006602052604090206106548282612acb565b60006001600160a01b0384163b1561226d57604051630a85bd0160e11b81526001600160a01b0385169063150b7a02906121bb903390899088908890600401612b8b565b6020604051808303816000875af19250505080156121f6575060408051601f3d908101601f191682019092526121f391810190612bc8565b60015b612253573d808015612224576040519150601f19603f3d011682016040523d82523d6000602084013e612229565b606091505b50805160000361224b5760405162461bcd60e51b81526004016105b390612a14565b805181602001fd5b6001600160e01b031916630a85bd0160e11b149050610fce565b506001949350505050565b606060006122858361230b565b600101905060008167ffffffffffffffff8111156122a5576122a5612556565b6040519080825280601f01601f1916602001820160405280156122cf576020820181803683370190505b5090508181016020015b600019016f181899199a1a9b1b9c1cb0b131b232b360811b600a86061a8153600a85049450846122d957509392505050565b60008072184f03e93ff9f4daa797ed6e38ed64bf6a1f0160401b831061234a5772184f03e93ff9f4daa797ed6e38ed64bf6a1f0160401b830492506040015b6d04ee2d6d415b85acef81000000008310612376576d04ee2d6d415b85acef8100000000830492506020015b662386f26fc10000831061239457662386f26fc10000830492506010015b6305f5e10083106123ac576305f5e100830492506008015b61271083106123c057612710830492506004015b606483106123d2576064830492506002015b600a83106104805760010192915050565b50805460008255906000526020600020908101906115fa919061244c565b82805482825590600052602060002090810192821561243c579160200282015b8281111561243c578251825591602001919060010190612421565b5061244892915061244c565b5090565b5b80821115612448576000815560010161244d565b6001600160e01b0319811681146115fa57600080fd5b60006020828403121561248957600080fd5b8135611dbc81612461565b60005b838110156124af578181015183820152602001612497565b50506000910152565b600081518084526124d0816020860160208601612494565b601f01601f19169290920160200192915050565b602081526000611dbc60208301846124b8565b60006020828403121561250957600080fd5b5035919050565b80356001600160a01b038116811461252757600080fd5b919050565b6000806040838503121561253f57600080fd5b61254883612510565b946020939093013593505050565b634e487b7160e01b600052604160045260246000fd5b600067ffffffffffffffff8084111561258757612587612556565b604051601f8501601f19908116603f011681019082821181831017156125af576125af612556565b816040528093508581528686860111156125c857600080fd5b858560208301376000602087830101525050509392505050565b6000602082840312156125f457600080fd5b813567ffffffffffffffff81111561260b57600080fd5b8201601f8101841361261c57600080fd5b610fce8482356020840161256c565b60008060006060848603121561264057600080fd5b61264984612510565b925061265760208501612510565b9150604084013590509250925092565b803560ff8116811461252757600080fd5b60008060006060848603121561268d57600080fd5b61269684612667565b925061265760208501612667565b6000602082840312156126b657600080fd5b611dbc82612510565b6000602082840312156126d157600080fd5b611dbc82612667565b600080604083850312156126ed57600080fd5b6126f683612510565b91506020830135801515811461270b57600080fd5b809150509250929050565b6000806000806080858703121561272c57600080fd5b61273585612510565b935061274360208601612510565b925060408501359150606085013567ffffffffffffffff81111561276657600080fd5b8501601f8101871361277757600080fd5b6127868782356020840161256c565b91505092959194509250565b600080604083850312156127a557600080fd5b6127ae83612510565b91506127bc60208401612510565b90509250929050565b600181811c908216806127d957607f821691505b6020821081036127f957634e487b7160e01b600052602260045260246000fd5b50919050565b6020808252602d908201527f4552433732313a2063616c6c6572206973206e6f7420746f6b656e206f776e6560408201526c1c881bdc88185c1c1c9bdd9959609a1b606082015260800190565b634e487b7160e01b600052603260045260246000fd5b634e487b7160e01b600052601160045260246000fd5b8181038181111561048057610480612862565b634e487b7160e01b600052603160045260246000fd5b6000815480845260208085019450836000528060002060005b838110156128d6578154875295820195600191820191016128ba565b509495945050505050565b6040815260006128f460408301856128a1565b828103602084015261290681856128a1565b95945050505050565b60ff818116838216019081111561048057610480612862565b634e487b7160e01b600052601260045260246000fd5b600060ff83168061295157612951612928565b8060ff84160691505092915050565b60006001820161297257612972612862565b5060010190565b6000835161298b818460208801612494565b83519083019061299f818360208801612494565b01949350505050565b8082018082111561048057610480612862565b60208082526025908201527f4552433732313a207472616e736665722066726f6d20696e636f72726563742060408201526437bbb732b960d91b606082015260800190565b600082612a0f57612a0f612928565b500690565b60208082526032908201527f4552433732313a207472616e7366657220746f206e6f6e20455243373231526560408201527131b2b4bb32b91034b6b83632b6b2b73a32b960711b606082015260800190565b600081612a7557612a75612862565b506000190190565b601f82111561065457600081815260208120601f850160051c81016020861015612aa45750805b601f850160051c820191505b81811015612ac357828155600101612ab0565b505050505050565b815167ffffffffffffffff811115612ae557612ae5612556565b612af981612af384546127c5565b84612a7d565b602080601f831160018114612b2e5760008415612b165750858301515b600019600386901b1c1916600185901b178555612ac3565b600085815260208120601f198616915b82811015612b5d57888601518255948401946001909101908401612b3e565b5085821015612b7b5787850151600019600388901b60f8161c191681555b5050505050600190811b01905550565b6001600160a01b0385811682528416602082015260408101839052608060608201819052600090612bbe908301846124b8565b9695505050505050565b600060208284031215612bda57600080fd5b8151611dbc8161246156fea26469706673582212207dff4b88ae6be3e7ed686e306bf9adbc6cc45e604f11b30c3873c9f0ae1d5aae64736f6c63430008120033",
  "linkReferences": {},
  "deployedLinkReferences": {}
}