{
  "_format": "hh-sol-artifact-1",
  "contractName": "BabanukiNFT",
  "sourceName": "contracts/BabanukiNFT.sol",
  "abi": [
    {
      "inputs": [],
      "stateMutability": "nonpayable",
      "type": "constructor"
    },
    {
      "anonymous": false,
      "inputs": [
        {
          "indexed": true,
          "internalType": "address",
          "name": "player1",
          "type": "address"
        },
        {
          "indexed": true,
          "internalType": "address",
          "name": "player2",
          "type": "address"
        },
        {
          "indexed": true,
          "internalType": "address",
          "name": "player3",
          "type": "address"
        },
        {
          "indexed": false,
          "internalType": "address",
          "name": "player4",
          "type": "address"
        },
        {
          "indexed": false,
          "internalType": "uint256[]",
          "name": "player1Hand",
          "type": "uint256[]"
        },
        {
          "indexed": false,
          "internalType": "uint256[]",
          "name": "player2Hand",
          "type": "uint256[]"
        },
        {
          "indexed": false,
          "internalType": "uint256[]",
          "name": "player3Hand",
          "type": "uint256[]"
        },
        {
          "indexed": false,
          "internalType": "uint256[]",
          "name": "player4Hand",
          "type": "uint256[]"
        }
      ],
      "name": "CardDrawn",
      "type": "event"
    },
    {
      "anonymous": false,
      "inputs": [
        {
          "indexed": true,
          "internalType": "address",
          "name": "player1",
          "type": "address"
        },
        {
          "indexed": true,
          "internalType": "address",
          "name": "player2",
          "type": "address"
        },
        {
          "indexed": true,
          "internalType": "address",
          "name": "player3",
          "type": "address"
        },
        {
          "indexed": false,
          "internalType": "address",
          "name": "player4",
          "type": "address"
        },
        {
          "indexed": false,
          "internalType": "uint256",
          "name": "player1Ranking",
          "type": "uint256"
        },
        {
          "indexed": false,
          "internalType": "uint256",
          "name": "player2Ranking",
          "type": "uint256"
        },
        {
          "indexed": false,
          "internalType": "uint256",
          "name": "player3Ranking",
          "type": "uint256"
        },
        {
          "indexed": false,
          "internalType": "uint256",
          "name": "player4Ranking",
          "type": "uint256"
        }
      ],
      "name": "GameOver",
      "type": "event"
    },
    {
      "anonymous": false,
      "inputs": [
        {
          "indexed": true,
          "internalType": "address",
          "name": "player1",
          "type": "address"
        },
        {
          "indexed": true,
          "internalType": "address",
          "name": "player2",
          "type": "address"
        },
        {
          "indexed": true,
          "internalType": "address",
          "name": "player3",
          "type": "address"
        },
        {
          "indexed": false,
          "internalType": "address",
          "name": "player4",
          "type": "address"
        },
        {
          "indexed": false,
          "internalType": "uint256[]",
          "name": "player1Hand",
          "type": "uint256[]"
        },
        {
          "indexed": false,
          "internalType": "uint256[]",
          "name": "player2Hand",
          "type": "uint256[]"
        },
        {
          "indexed": false,
          "internalType": "uint256[]",
          "name": "player3Hand",
          "type": "uint256[]"
        },
        {
          "indexed": false,
          "internalType": "uint256[]",
          "name": "player4Hand",
          "type": "uint256[]"
        }
      ],
      "name": "GameStarted",
      "type": "event"
    },
    {
      "anonymous": false,
      "inputs": [
        {
          "indexed": true,
          "internalType": "address",
          "name": "playerAddress",
          "type": "address"
        },
        {
          "indexed": false,
          "internalType": "bool",
          "name": "hasEmptyHand",
          "type": "bool"
        },
        {
          "indexed": false,
          "internalType": "uint256",
          "name": "ranking",
          "type": "uint256"
        }
      ],
      "name": "PlayerFinished",
      "type": "event"
    },
    {
      "inputs": [],
      "name": "PLAYER_COUNT",
      "outputs": [
        {
          "internalType": "uint256",
          "name": "",
          "type": "uint256"
        }
      ],
      "stateMutability": "view",
      "type": "function"
    },
    {
      "inputs": [
        {
          "internalType": "uint256",
          "name": "",
          "type": "uint256"
        }
      ],
      "name": "deck",
      "outputs": [
        {
          "internalType": "uint256",
          "name": "",
          "type": "uint256"
        }
      ],
      "stateMutability": "view",
      "type": "function"
    },
    {
      "inputs": [
        {
          "internalType": "uint256",
          "name": "playerIndex",
          "type": "uint256"
        },
        {
          "internalType": "uint256",
          "name": "targetPlayerIndex",
          "type": "uint256"
        },
        {
          "internalType": "uint256",
          "name": "targetCardIndex",
          "type": "uint256"
        }
      ],
      "name": "drawCard",
      "outputs": [],
      "stateMutability": "nonpayable",
      "type": "function"
    },
    {
      "inputs": [],
      "name": "gameStarted",
      "outputs": [
        {
          "internalType": "bool",
          "name": "",
          "type": "bool"
        }
      ],
      "stateMutability": "view",
      "type": "function"
    },
    {
      "inputs": [],
      "name": "getNumberOfPlayers",
      "outputs": [
        {
          "internalType": "uint256",
          "name": "",
          "type": "uint256"
        }
      ],
      "stateMutability": "view",
      "type": "function"
    },
    {
      "inputs": [
        {
          "internalType": "address[]",
          "name": "playerAddressesBatch",
          "type": "address[]"
        }
      ],
      "name": "joinGameBatch",
      "outputs": [],
      "stateMutability": "nonpayable",
      "type": "function"
    },
    {
      "inputs": [
        {
          "internalType": "uint256",
          "name": "",
          "type": "uint256"
        }
      ],
      "name": "playerAddresses",
      "outputs": [
        {
          "internalType": "address",
          "name": "",
          "type": "address"
        }
      ],
      "stateMutability": "view",
      "type": "function"
    },
    {
      "inputs": [
        {
          "internalType": "address",
          "name": "",
          "type": "address"
        }
      ],
      "name": "players",
      "outputs": [
        {
          "internalType": "address",
          "name": "playerAddress",
          "type": "address"
        },
        {
          "internalType": "uint256",
          "name": "ranking",
          "type": "uint256"
        },
        {
          "internalType": "bool",
          "name": "hasEmptyHand",
          "type": "bool"
        }
      ],
      "stateMutability": "view",
      "type": "function"
    },
    {
      "inputs": [],
      "name": "resetGame",
      "outputs": [],
      "stateMutability": "nonpayable",
      "type": "function"
    },
    {
      "inputs": [],
      "name": "sayHello",
      "outputs": [
        {
          "internalType": "string",
          "name": "",
          "type": "string"
        }
      ],
      "stateMutability": "pure",
      "type": "function"
    },
    {
      "inputs": [],
      "name": "startGame",
      "outputs": [],
      "stateMutability": "nonpayable",
      "type": "function"
    }
  ],
  "bytecode": "0x60806040526000600360006101000a81548160ff0219169083151502179055503480156200002c57600080fd5b506000600190505b60048111620000be576000600190505b600d8111620000a7576002816064846200005f919062000129565b6200006b919062000174565b908060018154018082558091505060019003906000526020600020016000909190919091505580806200009e90620001af565b91505062000044565b508080620000b590620001af565b91505062000034565b5060026103e79080600181540180825580915050600190039060005260206000200160009091909190915055620001fc565b6000819050919050565b7f4e487b7100000000000000000000000000000000000000000000000000000000600052601160045260246000fd5b60006200013682620000f0565b91506200014383620000f0565b92508282026200015381620000f0565b915082820484148315176200016d576200016c620000fa565b5b5092915050565b60006200018182620000f0565b91506200018e83620000f0565b9250828201905080821115620001a957620001a8620000fa565b5b92915050565b6000620001bc82620000f0565b91507fffffffffffffffffffffffffffffffffffffffffffffffffffffffffffffffff8203620001f157620001f0620000fa565b5b600182019050919050565b61316a806200020c6000396000f3fe608060405234801561001057600080fd5b50600436106100a95760003560e01c806365b1dafa1161007157806365b1dafa14610152578063bb47221914610182578063d65ab5f21461018c578063e2eb41ff14610196578063ef5fb05b146101c8578063fd6673f5146101e6576100a9565b806315c6aee2146100ae5780631b684107146100de5780631d208c21146100fa5780632829a3d8146101165780635e123ce414610134575b600080fd5b6100c860048036038101906100c3919061250a565b610204565b6040516100d59190612578565b60405180910390f35b6100f860048036038101906100f39190612593565b610243565b005b610114600480360381019061010f919061276b565b610f08565b005b61011e6112f3565b60405161012b91906127c3565b60405180910390f35b61013c6112f8565b60405161014991906127f9565b60405180910390f35b61016c6004803603810190610167919061250a565b61130b565b60405161017991906127c3565b60405180910390f35b61018a61132f565b005b61019461154e565b005b6101b060048036038101906101ab9190612814565b6119f0565b6040516101bf93929190612841565b60405180910390f35b6101d0611a47565b6040516101dd91906128f7565b60405180910390f35b6101ee611a84565b6040516101fb91906127c3565b60405180910390f35b6001818154811061021457600080fd5b906000526020600020016000915054906101000a900473ffffffffffffffffffffffffffffffffffffffff1681565b60006001848154811061025957610258612919565b5b9060005260206000200160009054906101000a900473ffffffffffffffffffffffffffffffffffffffff16905060006001848154811061029c5761029b612919565b5b9060005260206000200160009054906101000a900473ffffffffffffffffffffffffffffffffffffffff16905060008060008373ffffffffffffffffffffffffffffffffffffffff1673ffffffffffffffffffffffffffffffffffffffff168152602001908152602001600020600101905080805490508410610354576040517f08c379a000000000000000000000000000000000000000000000000000000000815260040161034b90612994565b60405180910390fd5b600015156000808573ffffffffffffffffffffffffffffffffffffffff1673ffffffffffffffffffffffffffffffffffffffff16815260200190815260200160002060040160009054906101000a900460ff161515146103e9576040517f08c379a00000000000000000000000000000000000000000000000000000000081526004016103e090612a00565b60405180910390fd5b600015156000808473ffffffffffffffffffffffffffffffffffffffff1673ffffffffffffffffffffffffffffffffffffffff16815260200190815260200160002060040160009054906101000a900460ff1615151461047e576040517f08c379a000000000000000000000000000000000000000000000000000000000815260040161047590612a92565b60405180910390fd5b600081858154811061049357610492612919565b5b90600052602060002001549050600081036104e3576040517f08c379a00000000000000000000000000000000000000000000000000000000081526004016104da90612b24565b60405180910390fd5b60008286815481106104f8576104f7612919565b5b90600052602060002001819055506000808573ffffffffffffffffffffffffffffffffffffffff1673ffffffffffffffffffffffffffffffffffffffff16815260200190815260200160002060010181908060018154018082558091505060019003906000526020600020016000909190919091505561057784611a91565b61058084611cfa565b6000808573ffffffffffffffffffffffffffffffffffffffff1673ffffffffffffffffffffffffffffffffffffffff16815260200190815260200160002060040160009054906101000a900460ff16156106b4578373ffffffffffffffffffffffffffffffffffffffff167f80236d7c4ab514db2c7033b9be61453719fbca9e3c5cca76b8216358bef472216000808773ffffffffffffffffffffffffffffffffffffffff1673ffffffffffffffffffffffffffffffffffffffff16815260200190815260200160002060040160009054906101000a900460ff166000808873ffffffffffffffffffffffffffffffffffffffff1673ffffffffffffffffffffffffffffffffffffffff168152602001908152602001600020600301546040516106ab929190612b44565b60405180910390a25b6106bd83611cfa565b6000808473ffffffffffffffffffffffffffffffffffffffff1673ffffffffffffffffffffffffffffffffffffffff16815260200190815260200160002060040160009054906101000a900460ff16156107f1578273ffffffffffffffffffffffffffffffffffffffff167f80236d7c4ab514db2c7033b9be61453719fbca9e3c5cca76b8216358bef472216000808673ffffffffffffffffffffffffffffffffffffffff1673ffffffffffffffffffffffffffffffffffffffff16815260200190815260200160002060040160009054906101000a900460ff166000808773ffffffffffffffffffffffffffffffffffffffff1673ffffffffffffffffffffffffffffffffffffffff168152602001908152602001600020600301546040516107e8929190612b44565b60405180910390a25b6107f9611ee7565b15610b8557600160028154811061081357610812612919565b5b9060005260206000200160009054906101000a900473ffffffffffffffffffffffffffffffffffffffff1673ffffffffffffffffffffffffffffffffffffffff166001808154811061086857610867612919565b5b9060005260206000200160009054906101000a900473ffffffffffffffffffffffffffffffffffffffff1673ffffffffffffffffffffffffffffffffffffffff1660016000815481106108be576108bd612919565b5b9060005260206000200160009054906101000a900473ffffffffffffffffffffffffffffffffffffffff1673ffffffffffffffffffffffffffffffffffffffff167f24f13bc995f323f66f49b7dec3e65c53b3a5262f51540938053693832d4bd07c600160038154811061093557610934612919565b5b9060005260206000200160009054906101000a900473ffffffffffffffffffffffffffffffffffffffff16600080600160008154811061097857610977612919565b5b9060005260206000200160009054906101000a900473ffffffffffffffffffffffffffffffffffffffff1673ffffffffffffffffffffffffffffffffffffffff1673ffffffffffffffffffffffffffffffffffffffff16815260200190815260200160002060030154600080600180815481106109f8576109f7612919565b5b9060005260206000200160009054906101000a900473ffffffffffffffffffffffffffffffffffffffff1673ffffffffffffffffffffffffffffffffffffffff1673ffffffffffffffffffffffffffffffffffffffff168152602001908152602001600020600301546000806001600281548110610a7957610a78612919565b5b9060005260206000200160009054906101000a900473ffffffffffffffffffffffffffffffffffffffff1673ffffffffffffffffffffffffffffffffffffffff1673ffffffffffffffffffffffffffffffffffffffff168152602001908152602001600020600301546000806001600381548110610afa57610af9612919565b5b9060005260206000200160009054906101000a900473ffffffffffffffffffffffffffffffffffffffff1673ffffffffffffffffffffffffffffffffffffffff1673ffffffffffffffffffffffffffffffffffffffff16815260200190815260200160002060030154604051610b74959493929190612b6d565b60405180910390a4610b8461132f565b5b6001600281548110610b9a57610b99612919565b5b9060005260206000200160009054906101000a900473ffffffffffffffffffffffffffffffffffffffff1673ffffffffffffffffffffffffffffffffffffffff1660018081548110610bef57610bee612919565b5b9060005260206000200160009054906101000a900473ffffffffffffffffffffffffffffffffffffffff1673ffffffffffffffffffffffffffffffffffffffff166001600081548110610c4557610c44612919565b5b9060005260206000200160009054906101000a900473ffffffffffffffffffffffffffffffffffffffff1673ffffffffffffffffffffffffffffffffffffffff167f80598a7316af153f4575d9c6424516570d2f780782d57e2d320831aeaf4f17e86001600381548110610cbc57610cbb612919565b5b9060005260206000200160009054906101000a900473ffffffffffffffffffffffffffffffffffffffff166000806001600081548110610cff57610cfe612919565b5b9060005260206000200160009054906101000a900473ffffffffffffffffffffffffffffffffffffffff1673ffffffffffffffffffffffffffffffffffffffff1673ffffffffffffffffffffffffffffffffffffffff16815260200190815260200160002060010160008060018081548110610d7e57610d7d612919565b5b9060005260206000200160009054906101000a900473ffffffffffffffffffffffffffffffffffffffff1673ffffffffffffffffffffffffffffffffffffffff1673ffffffffffffffffffffffffffffffffffffffff1681526020019081526020016000206001016000806001600281548110610dfe57610dfd612919565b5b9060005260206000200160009054906101000a900473ffffffffffffffffffffffffffffffffffffffff1673ffffffffffffffffffffffffffffffffffffffff1673ffffffffffffffffffffffffffffffffffffffff1681526020019081526020016000206001016000806001600381548110610e7e57610e7d612919565b5b9060005260206000200160009054906101000a900473ffffffffffffffffffffffffffffffffffffffff1673ffffffffffffffffffffffffffffffffffffffff1673ffffffffffffffffffffffffffffffffffffffff168152602001908152602001600020600101604051610ef7959493929190612cce565b60405180910390a450505050505050565b600360009054906101000a900460ff1615610f58576040517f08c379a0000000000000000000000000000000000000000000000000000000008152600401610f4f90612d89565b60405180910390fd5b60048151600180549050610f6c9190612dd8565b1115610fad576040517f08c379a0000000000000000000000000000000000000000000000000000000008152600401610fa490612e58565b60405180910390fd5b60005b81518110156112ef576000828281518110610fce57610fcd612919565b5b602002602001015190506000805b600180549050811015611076578273ffffffffffffffffffffffffffffffffffffffff166001828154811061101457611013612919565b5b9060005260206000200160009054906101000a900473ffffffffffffffffffffffffffffffffffffffff1673ffffffffffffffffffffffffffffffffffffffff16036110635760019150611076565b808061106e90612e78565b915050610fdc565b5080156110b8576040517f08c379a00000000000000000000000000000000000000000000000000000000081526004016110af90612f0c565b60405180910390fd5b6001829080600181540180825580915050600190039060005260206000200160009091909190916101000a81548173ffffffffffffffffffffffffffffffffffffffff021916908373ffffffffffffffffffffffffffffffffffffffff1602179055506040518060a001604052808373ffffffffffffffffffffffffffffffffffffffff168152602001600067ffffffffffffffff81111561115d5761115c6125fc565b5b60405190808252806020026020018201604052801561118b5781602001602082028036833780820191505090505b508152602001600067ffffffffffffffff8111156111ac576111ab6125fc565b5b6040519080825280602002602001820160405280156111da5781602001602082028036833780820191505090505b50815260200160008152602001600015158152506000808473ffffffffffffffffffffffffffffffffffffffff1673ffffffffffffffffffffffffffffffffffffffff16815260200190815260200160002060008201518160000160006101000a81548173ffffffffffffffffffffffffffffffffffffffff021916908373ffffffffffffffffffffffffffffffffffffffff160217905550602082015181600101908051906020019061128f929190612435565b5060408201518160020190805190602001906112ac929190612435565b506060820151816003015560808201518160040160006101000a81548160ff021916908315150217905550905050505080806112e790612e78565b915050610fb0565b5050565b600481565b600360009054906101000a900460ff1681565b6002818154811061131b57600080fd5b906000526020600020016000915090505481565b600360009054906101000a900460ff1661137e576040517f08c379a000000000000000000000000000000000000000000000000000000000815260040161137590612f78565b60405180910390fd5b6000600360006101000a81548160ff02191690831515021790555060005b60018054905081101561153b576000600182815481106113bf576113be612919565b5b9060005260206000200160009054906101000a900473ffffffffffffffffffffffffffffffffffffffff1690506000808273ffffffffffffffffffffffffffffffffffffffff1673ffffffffffffffffffffffffffffffffffffffff16815260200190815260200160002060010160006114399190612482565b6000808273ffffffffffffffffffffffffffffffffffffffff1673ffffffffffffffffffffffffffffffffffffffff16815260200190815260200160002060020160006114869190612482565b60008060008373ffffffffffffffffffffffffffffffffffffffff1673ffffffffffffffffffffffffffffffffffffffff1681526020019081526020016000206003018190555060008060008373ffffffffffffffffffffffffffffffffffffffff1673ffffffffffffffffffffffffffffffffffffffff16815260200190815260200160002060040160006101000a81548160ff02191690831515021790555050808061153390612e78565b91505061139c565b50600160048190555061154c61211a565b565b600460018054905014611596576040517f08c379a000000000000000000000000000000000000000000000000000000000815260040161158d9061300a565b60405180910390fd5b600360009054906101000a900460ff16156115e6576040517f08c379a00000000000000000000000000000000000000000000000000000000081526004016115dd90612d89565b60405180910390fd5b6001600360006101000a81548160ff021916908315150217905550611609612212565b60005b60018054905081101561167357611660600182815481106116305761162f612919565b5b9060005260206000200160009054906101000a900473ffffffffffffffffffffffffffffffffffffffff16611a91565b808061166b90612e78565b91505061160c565b50600160028154811061168957611688612919565b5b9060005260206000200160009054906101000a900473ffffffffffffffffffffffffffffffffffffffff1673ffffffffffffffffffffffffffffffffffffffff16600180815481106116de576116dd612919565b5b9060005260206000200160009054906101000a900473ffffffffffffffffffffffffffffffffffffffff1673ffffffffffffffffffffffffffffffffffffffff16600160008154811061173457611733612919565b5b9060005260206000200160009054906101000a900473ffffffffffffffffffffffffffffffffffffffff1673ffffffffffffffffffffffffffffffffffffffff167fa3c103a21bb74207737d4023ba00b21feb46c09df459be2aadad33d6f215c5e060016003815481106117ab576117aa612919565b5b9060005260206000200160009054906101000a900473ffffffffffffffffffffffffffffffffffffffff1660008060016000815481106117ee576117ed612919565b5b9060005260206000200160009054906101000a900473ffffffffffffffffffffffffffffffffffffffff1673ffffffffffffffffffffffffffffffffffffffff1673ffffffffffffffffffffffffffffffffffffffff1681526020019081526020016000206001016000806001808154811061186d5761186c612919565b5b9060005260206000200160009054906101000a900473ffffffffffffffffffffffffffffffffffffffff1673ffffffffffffffffffffffffffffffffffffffff1673ffffffffffffffffffffffffffffffffffffffff16815260200190815260200160002060010160008060016002815481106118ed576118ec612919565b5b9060005260206000200160009054906101000a900473ffffffffffffffffffffffffffffffffffffffff1673ffffffffffffffffffffffffffffffffffffffff1673ffffffffffffffffffffffffffffffffffffffff168152602001908152602001600020600101600080600160038154811061196d5761196c612919565b5b9060005260206000200160009054906101000a900473ffffffffffffffffffffffffffffffffffffffff1673ffffffffffffffffffffffffffffffffffffffff1673ffffffffffffffffffffffffffffffffffffffff1681526020019081526020016000206001016040516119e6959493929190612cce565b60405180910390a4565b60006020528060005260406000206000915090508060000160009054906101000a900473ffffffffffffffffffffffffffffffffffffffff16908060030154908060040160009054906101000a900460ff16905083565b60606040518060400160405280600e81526020017f48454c4c4f20424142414e554b49000000000000000000000000000000000000815250905090565b6000600180549050905090565b60008060008373ffffffffffffffffffffffffffffffffffffffff1673ffffffffffffffffffffffffffffffffffffffff168152602001908152602001600020600101905060008060008473ffffffffffffffffffffffffffffffffffffffff1673ffffffffffffffffffffffffffffffffffffffff168152602001908152602001600020600201905060005b8280549050811015611ceb576000838281548110611b3f57611b3e612919565b5b90600052602060002001540315611cd8576000600182611b5f9190612dd8565b90505b8380549050811015611cd6576000848281548110611b8357611b82612919565b5b90600052602060002001540315611cc3576064848281548110611ba957611ba8612919565b5b9060005260206000200154611bbe9190613059565b6064858481548110611bd357611bd2612919565b5b9060005260206000200154611be89190613059565b03611cc25782848381548110611c0157611c00612919565b5b9060005260206000200154908060018154018082558091505060019003906000526020600020016000909190919091505582848281548110611c4657611c45612919565b5b906000526020600020015490806001815401808255809150506001900390600052602060002001600090919091909150556000848381548110611c8c57611c8b612919565b5b90600052602060002001819055506000848281548110611caf57611cae612919565b5b9060005260206000200181905550611cd6565b5b8080611cce90612e78565b915050611b62565b505b8080611ce390612e78565b915050611b1e565b50611cf583611cfa565b505050565b6000805b6000808473ffffffffffffffffffffffffffffffffffffffff1673ffffffffffffffffffffffffffffffffffffffff16815260200190815260200160002060010180549050811015611dd15760008060008573ffffffffffffffffffffffffffffffffffffffff1673ffffffffffffffffffffffffffffffffffffffff1681526020019081526020016000206001018281548110611d9f57611d9e612919565b5b906000526020600020015414611dbe578180611dba90612e78565b9250505b8080611dc990612e78565b915050611cfe565b50600081146000808473ffffffffffffffffffffffffffffffffffffffff1673ffffffffffffffffffffffffffffffffffffffff16815260200190815260200160002060040160006101000a81548160ff0219169083151502179055506000808373ffffffffffffffffffffffffffffffffffffffff1673ffffffffffffffffffffffffffffffffffffffff16815260200190815260200160002060040160009054906101000a900460ff1615611ee3576004546000808473ffffffffffffffffffffffffffffffffffffffff1673ffffffffffffffffffffffffffffffffffffffff1681526020019081526020016000206003018190555060046000815480929190611edd90612e78565b91905055505b5050565b6000806000905060005b600180549050811015611fb35760008060018381548110611f1557611f14612919565b5b9060005260206000200160009054906101000a900473ffffffffffffffffffffffffffffffffffffffff1673ffffffffffffffffffffffffffffffffffffffff1673ffffffffffffffffffffffffffffffffffffffff16815260200190815260200160002060040160009054906101000a900460ff1615611fa057600182611f9d9190612dd8565b91505b8080611fab90612e78565b915050611ef1565b5060016004611fc2919061308a565b81036121115760005b6001805490508110156121065760008060018381548110611fef57611fee612919565b5b9060005260206000200160009054906101000a900473ffffffffffffffffffffffffffffffffffffffff1673ffffffffffffffffffffffffffffffffffffffff1673ffffffffffffffffffffffffffffffffffffffff16815260200190815260200160002060040160009054906101000a900460ff166120f35760046000806001848154811061208257612081612919565b5b9060005260206000200160009054906101000a900473ffffffffffffffffffffffffffffffffffffffff1673ffffffffffffffffffffffffffffffffffffffff1673ffffffffffffffffffffffffffffffffffffffff16815260200190815260200160002060030181905550612106565b80806120fe90612e78565b915050611fcb565b506001915050612117565b60009150505b90565b6000603490505b600081111561220f5760006001826121399190612dd8565b424460405160200161214c9291906130df565b6040516020818303038152906040528051906020012060001c61216f9190613059565b90506002818154811061218557612184612919565b5b9060005260206000200154600283815481106121a4576121a3612919565b5b9060005260206000200154600284815481106121c3576121c2612919565b5b906000526020600020016000600285815481106121e3576121e2612919565b5b9060005260206000200160008491905055839190505550505080806122079061310b565b915050612121565b50565b60005b6103e8811015612342576000603542836040516020016122369291906130df565b6040516020818303038152906040528051906020012060001c6122599190613059565b9050600060354260018561226d9190612dd8565b60405160200161227e9291906130df565b6040516020818303038152906040528051906020012060001c6122a19190613059565b9050600281815481106122b7576122b6612919565b5b9060005260206000200154600283815481106122d6576122d5612919565b5b9060005260206000200154600284815481106122f5576122f4612919565b5b9060005260206000200160006002858154811061231557612314612919565b5b9060005260206000200160008491905055839190505550505050808061233a90612e78565b915050612215565b5060005b60358110156124325760008060016004846123619190613059565b8154811061237257612371612919565b5b9060005260206000200160009054906101000a900473ffffffffffffffffffffffffffffffffffffffff1673ffffffffffffffffffffffffffffffffffffffff1673ffffffffffffffffffffffffffffffffffffffff168152602001908152602001600020600101600282815481106123ee576123ed612919565b5b90600052602060002001549080600181540180825580915050600190039060005260206000200160009091909190915055808061242a90612e78565b915050612346565b50565b828054828255906000526020600020908101928215612471579160200282015b82811115612470578251825591602001919060010190612455565b5b50905061247e91906124a3565b5090565b50805460008255906000526020600020908101906124a091906124a3565b50565b5b808211156124bc5760008160009055506001016124a4565b5090565b6000604051905090565b600080fd5b600080fd5b6000819050919050565b6124e7816124d4565b81146124f257600080fd5b50565b600081359050612504816124de565b92915050565b6000602082840312156125205761251f6124ca565b5b600061252e848285016124f5565b91505092915050565b600073ffffffffffffffffffffffffffffffffffffffff82169050919050565b600061256282612537565b9050919050565b61257281612557565b82525050565b600060208201905061258d6000830184612569565b92915050565b6000806000606084860312156125ac576125ab6124ca565b5b60006125ba868287016124f5565b93505060206125cb868287016124f5565b92505060406125dc868287016124f5565b9150509250925092565b600080fd5b6000601f19601f8301169050919050565b7f4e487b7100000000000000000000000000000000000000000000000000000000600052604160045260246000fd5b612634826125eb565b810181811067ffffffffffffffff82111715612653576126526125fc565b5b80604052505050565b60006126666124c0565b9050612672828261262b565b919050565b600067ffffffffffffffff821115612692576126916125fc565b5b602082029050602081019050919050565b600080fd5b6126b181612557565b81146126bc57600080fd5b50565b6000813590506126ce816126a8565b92915050565b60006126e76126e284612677565b61265c565b9050808382526020820190506020840283018581111561270a576127096126a3565b5b835b81811015612733578061271f88826126bf565b84526020840193505060208101905061270c565b5050509392505050565b600082601f830112612752576127516125e6565b5b81356127628482602086016126d4565b91505092915050565b600060208284031215612781576127806124ca565b5b600082013567ffffffffffffffff81111561279f5761279e6124cf565b5b6127ab8482850161273d565b91505092915050565b6127bd816124d4565b82525050565b60006020820190506127d860008301846127b4565b92915050565b60008115159050919050565b6127f3816127de565b82525050565b600060208201905061280e60008301846127ea565b92915050565b60006020828403121561282a576128296124ca565b5b6000612838848285016126bf565b91505092915050565b60006060820190506128566000830186612569565b61286360208301856127b4565b61287060408301846127ea565b949350505050565b600081519050919050565b600082825260208201905092915050565b60005b838110156128b2578082015181840152602081019050612897565b60008484015250505050565b60006128c982612878565b6128d38185612883565b93506128e3818560208601612894565b6128ec816125eb565b840191505092915050565b6000602082019050818103600083015261291181846128be565b905092915050565b7f4e487b7100000000000000000000000000000000000000000000000000000000600052603260045260246000fd5b7f496e76616c6964206361726420696e6465782e00000000000000000000000000600082015250565b600061297e601383612883565b915061298982612948565b602082019050919050565b600060208201905081810360008301526129ad81612971565b9050919050565b7f506c617965722068617320616c72656164792066696e69736865642e00000000600082015250565b60006129ea601c83612883565b91506129f5826129b4565b602082019050919050565b60006020820190508181036000830152612a19816129dd565b9050919050565b7f54617267657420706c617965722068617320616c72656164792066696e69736860008201527f65642e0000000000000000000000000000000000000000000000000000000000602082015250565b6000612a7c602383612883565b9150612a8782612a20565b604082019050919050565b60006020820190508181036000830152612aab81612a6f565b9050919050565b7f43617264206e6f7420666f756e6420696e2074617267657420706c617965722760008201527f732068616e642e00000000000000000000000000000000000000000000000000602082015250565b6000612b0e602783612883565b9150612b1982612ab2565b604082019050919050565b60006020820190508181036000830152612b3d81612b01565b9050919050565b6000604082019050612b5960008301856127ea565b612b6660208301846127b4565b9392505050565b600060a082019050612b826000830188612569565b612b8f60208301876127b4565b612b9c60408301866127b4565b612ba960608301856127b4565b612bb660808301846127b4565b9695505050505050565b600081549050919050565b600082825260208201905092915050565b60008190508160005260206000209050919050565b612bfa816124d4565b82525050565b6000612c0c8383612bf1565b60208301905092915050565b60008160001c9050919050565b6000819050919050565b6000612c42612c3d83612c18565b612c25565b9050919050565b6000612c558254612c2f565b9050919050565b6000600182019050919050565b6000612c7482612bc0565b612c7e8185612bcb565b9350612c8983612bdc565b8060005b83811015612cc157612c9e82612c49565b612ca88882612c00565b9750612cb383612c5c565b925050600181019050612c8d565b5085935050505092915050565b600060a082019050612ce36000830188612569565b8181036020830152612cf58187612c69565b90508181036040830152612d098186612c69565b90508181036060830152612d1d8185612c69565b90508181036080830152612d318184612c69565b90509695505050505050565b7f47616d652068617320616c726561647920737461727465642e00000000000000600082015250565b6000612d73601983612883565b9150612d7e82612d3d565b602082019050919050565b60006020820190508181036000830152612da281612d66565b9050919050565b7f4e487b7100000000000000000000000000000000000000000000000000000000600052601160045260246000fd5b6000612de3826124d4565b9150612dee836124d4565b9250828201905080821115612e0657612e05612da9565b5b92915050565b7f416464696e6720746f6f206d616e7920706c61796572732e0000000000000000600082015250565b6000612e42601883612883565b9150612e4d82612e0c565b602082019050919050565b60006020820190508181036000830152612e7181612e35565b9050919050565b6000612e83826124d4565b91507fffffffffffffffffffffffffffffffffffffffffffffffffffffffffffffffff8203612eb557612eb4612da9565b5b600182019050919050565b7f506c617965722068617320616c7265616479206a6f696e65642e000000000000600082015250565b6000612ef6601a83612883565b9150612f0182612ec0565b602082019050919050565b60006020820190508181036000830152612f2581612ee9565b9050919050565b7f47616d6520686173206e6f742073746172746564207965742e00000000000000600082015250565b6000612f62601983612883565b9150612f6d82612f2c565b602082019050919050565b60006020820190508181036000830152612f9181612f55565b9050919050565b7f4e6f7420656e6f75676820706c617965727320746f207374617274207468652060008201527f67616d652e000000000000000000000000000000000000000000000000000000602082015250565b6000612ff4602583612883565b9150612fff82612f98565b604082019050919050565b6000602082019050818103600083015261302381612fe7565b9050919050565b7f4e487b7100000000000000000000000000000000000000000000000000000000600052601260045260246000fd5b6000613064826124d4565b915061306f836124d4565b92508261307f5761307e61302a565b5b828206905092915050565b6000613095826124d4565b91506130a0836124d4565b92508282039050818111156130b8576130b7612da9565b5b92915050565b6000819050919050565b6130d96130d4826124d4565b6130be565b82525050565b60006130eb82856130c8565b6020820191506130fb82846130c8565b6020820191508190509392505050565b6000613116826124d4565b91506000820361312957613128612da9565b5b60018203905091905056fea264697066735822122014093b09abeb40ceb94e3644c6daded31c13addd249ce4f18d158aa7311c0d6564736f6c63430008120033",
  "linkReferences": {},
  "deployedLinkReferences": {}
}