{
  "_format": "hh-sol-artifact-1",
  "contractName": "BabanukiNFT",
  "sourceName": "contracts/BabanukiNFT.sol",
  "abi": [
    {
      "inputs": [],
      "stateMutability": "nonpayable",
      "type": "constructor"
    },
    {
      "anonymous": false,
      "inputs": [
        {
          "indexed": true,
          "internalType": "address",
          "name": "player1",
          "type": "address"
        },
        {
          "indexed": true,
          "internalType": "address",
          "name": "player2",
          "type": "address"
        },
        {
          "indexed": true,
          "internalType": "address",
          "name": "player3",
          "type": "address"
        },
        {
          "indexed": false,
          "internalType": "address",
          "name": "player4",
          "type": "address"
        },
        {
          "indexed": false,
          "internalType": "uint256[]",
          "name": "player1Hand",
          "type": "uint256[]"
        },
        {
          "indexed": false,
          "internalType": "uint256[]",
          "name": "player2Hand",
          "type": "uint256[]"
        },
        {
          "indexed": false,
          "internalType": "uint256[]",
          "name": "player3Hand",
          "type": "uint256[]"
        },
        {
          "indexed": false,
          "internalType": "uint256[]",
          "name": "player4Hand",
          "type": "uint256[]"
        }
      ],
      "name": "GameStarted",
      "type": "event"
    },
    {
      "inputs": [],
      "name": "PLAYER_COUNT",
      "outputs": [
        {
          "internalType": "uint256",
          "name": "",
          "type": "uint256"
        }
      ],
      "stateMutability": "view",
      "type": "function"
    },
    {
      "inputs": [
        {
          "internalType": "uint256",
          "name": "",
          "type": "uint256"
        }
      ],
      "name": "deck",
      "outputs": [
        {
          "internalType": "uint256",
          "name": "",
          "type": "uint256"
        }
      ],
      "stateMutability": "view",
      "type": "function"
    },
    {
      "inputs": [],
      "name": "gameStarted",
      "outputs": [
        {
          "internalType": "bool",
          "name": "",
          "type": "bool"
        }
      ],
      "stateMutability": "view",
      "type": "function"
    },
    {
      "inputs": [],
      "name": "getNumberOfPlayers",
      "outputs": [
        {
          "internalType": "uint256",
          "name": "",
          "type": "uint256"
        }
      ],
      "stateMutability": "view",
      "type": "function"
    },
    {
      "inputs": [
        {
          "internalType": "address[]",
          "name": "playerAddressesBatch",
          "type": "address[]"
        }
      ],
      "name": "joinGameBatch",
      "outputs": [],
      "stateMutability": "nonpayable",
      "type": "function"
    },
    {
      "inputs": [
        {
          "internalType": "uint256",
          "name": "",
          "type": "uint256"
        }
      ],
      "name": "playerAddresses",
      "outputs": [
        {
          "internalType": "address",
          "name": "",
          "type": "address"
        }
      ],
      "stateMutability": "view",
      "type": "function"
    },
    {
      "inputs": [
        {
          "internalType": "address",
          "name": "",
          "type": "address"
        }
      ],
      "name": "players",
      "outputs": [
        {
          "internalType": "address",
          "name": "playerAddress",
          "type": "address"
        },
        {
          "internalType": "uint256",
          "name": "ranking",
          "type": "uint256"
        },
        {
          "internalType": "bool",
          "name": "hasEmptyHand",
          "type": "bool"
        }
      ],
      "stateMutability": "view",
      "type": "function"
    },
    {
      "inputs": [],
      "name": "resetGame",
      "outputs": [],
      "stateMutability": "nonpayable",
      "type": "function"
    },
    {
      "inputs": [],
      "name": "sayHello",
      "outputs": [
        {
          "internalType": "string",
          "name": "",
          "type": "string"
        }
      ],
      "stateMutability": "pure",
      "type": "function"
    },
    {
      "inputs": [],
      "name": "startGame",
      "outputs": [],
      "stateMutability": "nonpayable",
      "type": "function"
    }
  ],
  "bytecode": "0x60806040526000600360006101000a81548160ff0219169083151502179055503480156200002c57600080fd5b506000600190505b60048111620000be576000600190505b600d8111620000a7576002816064846200005f919062000129565b6200006b919062000174565b908060018154018082558091505060019003906000526020600020016000909190919091505580806200009e90620001af565b91505062000044565b508080620000b590620001af565b91505062000034565b5060026103e79080600181540180825580915050600190039060005260206000200160009091909190915055620001fc565b6000819050919050565b7f4e487b7100000000000000000000000000000000000000000000000000000000600052601160045260246000fd5b60006200013682620000f0565b91506200014383620000f0565b92508282026200015381620000f0565b915082820484148315176200016d576200016c620000fa565b5b5092915050565b60006200018182620000f0565b91506200018e83620000f0565b9250828201905080821115620001a957620001a8620000fa565b5b92915050565b6000620001bc82620000f0565b91507fffffffffffffffffffffffffffffffffffffffffffffffffffffffffffffffff8203620001f157620001f0620000fa565b5b600182019050919050565b611e8f806200020c6000396000f3fe608060405234801561001057600080fd5b506004361061009e5760003560e01c8063bb47221911610066578063bb4722191461015b578063d65ab5f214610165578063e2eb41ff1461016f578063ef5fb05b146101a1578063fd6673f5146101bf5761009e565b806315c6aee2146100a35780631d208c21146100d35780632829a3d8146100ef5780635e123ce41461010d57806365b1dafa1461012b575b600080fd5b6100bd60048036038101906100b8919061152e565b6101dd565b6040516100ca919061159c565b60405180910390f35b6100ed60048036038101906100e8919061173c565b61021c565b005b6100f7610607565b6040516101049190611794565b60405180910390f35b61011561060c565b60405161012291906117ca565b60405180910390f35b6101456004803603810190610140919061152e565b61061f565b6040516101529190611794565b60405180910390f35b610163610643565b005b61016d61085a565b005b610189600480360381019061018491906117e5565b610cfc565b60405161019893929190611812565b60405180910390f35b6101a9610d53565b6040516101b691906118c8565b60405180910390f35b6101c7610d90565b6040516101d49190611794565b60405180910390f35b600181815481106101ed57600080fd5b906000526020600020016000915054906101000a900473ffffffffffffffffffffffffffffffffffffffff1681565b600360009054906101000a900460ff161561026c576040517f08c379a000000000000000000000000000000000000000000000000000000000815260040161026390611936565b60405180910390fd5b600481516001805490506102809190611985565b11156102c1576040517f08c379a00000000000000000000000000000000000000000000000000000000081526004016102b890611a05565b60405180910390fd5b60005b81518110156106035760008282815181106102e2576102e1611a25565b5b602002602001015190506000805b60018054905081101561038a578273ffffffffffffffffffffffffffffffffffffffff166001828154811061032857610327611a25565b5b9060005260206000200160009054906101000a900473ffffffffffffffffffffffffffffffffffffffff1673ffffffffffffffffffffffffffffffffffffffff1603610377576001915061038a565b808061038290611a54565b9150506102f0565b5080156103cc576040517f08c379a00000000000000000000000000000000000000000000000000000000081526004016103c390611ae8565b60405180910390fd5b6001829080600181540180825580915050600190039060005260206000200160009091909190916101000a81548173ffffffffffffffffffffffffffffffffffffffff021916908373ffffffffffffffffffffffffffffffffffffffff1602179055506040518060a001604052808373ffffffffffffffffffffffffffffffffffffffff168152602001600067ffffffffffffffff811115610471576104706115cd565b5b60405190808252806020026020018201604052801561049f5781602001602082028036833780820191505090505b508152602001600067ffffffffffffffff8111156104c0576104bf6115cd565b5b6040519080825280602002602001820160405280156104ee5781602001602082028036833780820191505090505b50815260200160008152602001600015158152506000808473ffffffffffffffffffffffffffffffffffffffff1673ffffffffffffffffffffffffffffffffffffffff16815260200190815260200160002060008201518160000160006101000a81548173ffffffffffffffffffffffffffffffffffffffff021916908373ffffffffffffffffffffffffffffffffffffffff16021790555060208201518160010190805190602001906105a3929190611459565b5060408201518160020190805190602001906105c0929190611459565b506060820151816003015560808201518160040160006101000a81548160ff021916908315150217905550905050505080806105fb90611a54565b9150506102c4565b5050565b600481565b600360009054906101000a900460ff1681565b6002818154811061062f57600080fd5b906000526020600020016000915090505481565b600360009054906101000a900460ff16610692576040517f08c379a000000000000000000000000000000000000000000000000000000000815260040161068990611b54565b60405180910390fd5b6000600360006101000a81548160ff02191690831515021790555060005b60018054905081101561084f576000600182815481106106d3576106d2611a25565b5b9060005260206000200160009054906101000a900473ffffffffffffffffffffffffffffffffffffffff1690506000808273ffffffffffffffffffffffffffffffffffffffff1673ffffffffffffffffffffffffffffffffffffffff168152602001908152602001600020600101600061074d91906114a6565b6000808273ffffffffffffffffffffffffffffffffffffffff1673ffffffffffffffffffffffffffffffffffffffff168152602001908152602001600020600201600061079a91906114a6565b60008060008373ffffffffffffffffffffffffffffffffffffffff1673ffffffffffffffffffffffffffffffffffffffff1681526020019081526020016000206003018190555060008060008373ffffffffffffffffffffffffffffffffffffffff1673ffffffffffffffffffffffffffffffffffffffff16815260200190815260200160002060040160006101000a81548160ff02191690831515021790555050808061084790611a54565b9150506106b0565b50610858610d9d565b565b6004600180549050146108a2576040517f08c379a000000000000000000000000000000000000000000000000000000000815260040161089990611be6565b60405180910390fd5b600360009054906101000a900460ff16156108f2576040517f08c379a00000000000000000000000000000000000000000000000000000000081526004016108e990611936565b60405180910390fd5b6001600360006101000a81548160ff021916908315150217905550610915610e95565b60005b60018054905081101561097f5761096c6001828154811061093c5761093b611a25565b5b9060005260206000200160009054906101000a900473ffffffffffffffffffffffffffffffffffffffff166110b8565b808061097790611a54565b915050610918565b50600160028154811061099557610994611a25565b5b9060005260206000200160009054906101000a900473ffffffffffffffffffffffffffffffffffffffff1673ffffffffffffffffffffffffffffffffffffffff16600180815481106109ea576109e9611a25565b5b9060005260206000200160009054906101000a900473ffffffffffffffffffffffffffffffffffffffff1673ffffffffffffffffffffffffffffffffffffffff166001600081548110610a4057610a3f611a25565b5b9060005260206000200160009054906101000a900473ffffffffffffffffffffffffffffffffffffffff1673ffffffffffffffffffffffffffffffffffffffff167fa3c103a21bb74207737d4023ba00b21feb46c09df459be2aadad33d6f215c5e06001600381548110610ab757610ab6611a25565b5b9060005260206000200160009054906101000a900473ffffffffffffffffffffffffffffffffffffffff166000806001600081548110610afa57610af9611a25565b5b9060005260206000200160009054906101000a900473ffffffffffffffffffffffffffffffffffffffff1673ffffffffffffffffffffffffffffffffffffffff1673ffffffffffffffffffffffffffffffffffffffff16815260200190815260200160002060010160008060018081548110610b7957610b78611a25565b5b9060005260206000200160009054906101000a900473ffffffffffffffffffffffffffffffffffffffff1673ffffffffffffffffffffffffffffffffffffffff1673ffffffffffffffffffffffffffffffffffffffff1681526020019081526020016000206001016000806001600281548110610bf957610bf8611a25565b5b9060005260206000200160009054906101000a900473ffffffffffffffffffffffffffffffffffffffff1673ffffffffffffffffffffffffffffffffffffffff1673ffffffffffffffffffffffffffffffffffffffff1681526020019081526020016000206001016000806001600381548110610c7957610c78611a25565b5b9060005260206000200160009054906101000a900473ffffffffffffffffffffffffffffffffffffffff1673ffffffffffffffffffffffffffffffffffffffff1673ffffffffffffffffffffffffffffffffffffffff168152602001908152602001600020600101604051610cf2959493929190611d14565b60405180910390a4565b60006020528060005260406000206000915090508060000160009054906101000a900473ffffffffffffffffffffffffffffffffffffffff16908060030154908060040160009054906101000a900460ff16905083565b60606040518060400160405280600e81526020017f48454c4c4f20424142414e554b49000000000000000000000000000000000000815250905090565b6000600180549050905090565b6000603490505b6000811115610e92576000600182610dbc9190611985565b4244604051602001610dcf929190611da4565b6040516020818303038152906040528051906020012060001c610df29190611dff565b905060028181548110610e0857610e07611a25565b5b906000526020600020015460028381548110610e2757610e26611a25565b5b906000526020600020015460028481548110610e4657610e45611a25565b5b90600052602060002001600060028581548110610e6657610e65611a25565b5b906000526020600020016000849190505583919050555050508080610e8a90611e30565b915050610da4565b50565b60005b6103e8811015610fc557600060354283604051602001610eb9929190611da4565b6040516020818303038152906040528051906020012060001c610edc9190611dff565b90506000603542600185610ef09190611985565b604051602001610f01929190611da4565b6040516020818303038152906040528051906020012060001c610f249190611dff565b905060028181548110610f3a57610f39611a25565b5b906000526020600020015460028381548110610f5957610f58611a25565b5b906000526020600020015460028481548110610f7857610f77611a25565b5b90600052602060002001600060028581548110610f9857610f97611a25565b5b90600052602060002001600084919050558391905055505050508080610fbd90611a54565b915050610e98565b5060005b60358110156110b5576000806001600484610fe49190611dff565b81548110610ff557610ff4611a25565b5b9060005260206000200160009054906101000a900473ffffffffffffffffffffffffffffffffffffffff1673ffffffffffffffffffffffffffffffffffffffff1673ffffffffffffffffffffffffffffffffffffffff1681526020019081526020016000206001016002828154811061107157611070611a25565b5b9060005260206000200154908060018154018082558091505060019003906000526020600020016000909190919091505580806110ad90611a54565b915050610fc9565b50565b60008060008373ffffffffffffffffffffffffffffffffffffffff1673ffffffffffffffffffffffffffffffffffffffff168152602001908152602001600020600101905060008060008473ffffffffffffffffffffffffffffffffffffffff1673ffffffffffffffffffffffffffffffffffffffff168152602001908152602001600020600201905060005b828054905081101561131257600083828154811061116657611165611a25565b5b906000526020600020015403156112ff5760006001826111869190611985565b90505b83805490508110156112fd5760008482815481106111aa576111a9611a25565b5b906000526020600020015403156112ea5760648482815481106111d0576111cf611a25565b5b90600052602060002001546111e59190611dff565b60648584815481106111fa576111f9611a25565b5b906000526020600020015461120f9190611dff565b036112e9578284838154811061122857611227611a25565b5b906000526020600020015490806001815401808255809150506001900390600052602060002001600090919091909150558284828154811061126d5761126c611a25565b5b9060005260206000200154908060018154018082558091505060019003906000526020600020016000909190919091505560008483815481106112b3576112b2611a25565b5b906000526020600020018190555060008482815481106112d6576112d5611a25565b5b90600052602060002001819055506112fd565b5b80806112f590611a54565b915050611189565b505b808061130a90611a54565b915050611145565b5061131c83611321565b505050565b6000805b6000808473ffffffffffffffffffffffffffffffffffffffff1673ffffffffffffffffffffffffffffffffffffffff168152602001908152602001600020600101805490508110156113f85760008060008573ffffffffffffffffffffffffffffffffffffffff1673ffffffffffffffffffffffffffffffffffffffff16815260200190815260200160002060010182815481106113c6576113c5611a25565b5b9060005260206000200154146113e55781806113e190611a54565b9250505b80806113f090611a54565b915050611325565b50600081146000808473ffffffffffffffffffffffffffffffffffffffff1673ffffffffffffffffffffffffffffffffffffffff16815260200190815260200160002060040160006101000a81548160ff0219169083151502179055505050565b828054828255906000526020600020908101928215611495579160200282015b82811115611494578251825591602001919060010190611479565b5b5090506114a291906114c7565b5090565b50805460008255906000526020600020908101906114c491906114c7565b50565b5b808211156114e05760008160009055506001016114c8565b5090565b6000604051905090565b600080fd5b600080fd5b6000819050919050565b61150b816114f8565b811461151657600080fd5b50565b60008135905061152881611502565b92915050565b600060208284031215611544576115436114ee565b5b600061155284828501611519565b91505092915050565b600073ffffffffffffffffffffffffffffffffffffffff82169050919050565b60006115868261155b565b9050919050565b6115968161157b565b82525050565b60006020820190506115b1600083018461158d565b92915050565b600080fd5b6000601f19601f8301169050919050565b7f4e487b7100000000000000000000000000000000000000000000000000000000600052604160045260246000fd5b611605826115bc565b810181811067ffffffffffffffff82111715611624576116236115cd565b5b80604052505050565b60006116376114e4565b905061164382826115fc565b919050565b600067ffffffffffffffff821115611663576116626115cd565b5b602082029050602081019050919050565b600080fd5b6116828161157b565b811461168d57600080fd5b50565b60008135905061169f81611679565b92915050565b60006116b86116b384611648565b61162d565b905080838252602082019050602084028301858111156116db576116da611674565b5b835b8181101561170457806116f08882611690565b8452602084019350506020810190506116dd565b5050509392505050565b600082601f830112611723576117226115b7565b5b81356117338482602086016116a5565b91505092915050565b600060208284031215611752576117516114ee565b5b600082013567ffffffffffffffff8111156117705761176f6114f3565b5b61177c8482850161170e565b91505092915050565b61178e816114f8565b82525050565b60006020820190506117a96000830184611785565b92915050565b60008115159050919050565b6117c4816117af565b82525050565b60006020820190506117df60008301846117bb565b92915050565b6000602082840312156117fb576117fa6114ee565b5b600061180984828501611690565b91505092915050565b6000606082019050611827600083018661158d565b6118346020830185611785565b61184160408301846117bb565b949350505050565b600081519050919050565b600082825260208201905092915050565b60005b83811015611883578082015181840152602081019050611868565b60008484015250505050565b600061189a82611849565b6118a48185611854565b93506118b4818560208601611865565b6118bd816115bc565b840191505092915050565b600060208201905081810360008301526118e2818461188f565b905092915050565b7f47616d652068617320616c726561647920737461727465642e00000000000000600082015250565b6000611920601983611854565b915061192b826118ea565b602082019050919050565b6000602082019050818103600083015261194f81611913565b9050919050565b7f4e487b7100000000000000000000000000000000000000000000000000000000600052601160045260246000fd5b6000611990826114f8565b915061199b836114f8565b92508282019050808211156119b3576119b2611956565b5b92915050565b7f416464696e6720746f6f206d616e7920706c61796572732e0000000000000000600082015250565b60006119ef601883611854565b91506119fa826119b9565b602082019050919050565b60006020820190508181036000830152611a1e816119e2565b9050919050565b7f4e487b7100000000000000000000000000000000000000000000000000000000600052603260045260246000fd5b6000611a5f826114f8565b91507fffffffffffffffffffffffffffffffffffffffffffffffffffffffffffffffff8203611a9157611a90611956565b5b600182019050919050565b7f506c617965722068617320616c7265616479206a6f696e65642e000000000000600082015250565b6000611ad2601a83611854565b9150611add82611a9c565b602082019050919050565b60006020820190508181036000830152611b0181611ac5565b9050919050565b7f47616d6520686173206e6f742073746172746564207965742e00000000000000600082015250565b6000611b3e601983611854565b9150611b4982611b08565b602082019050919050565b60006020820190508181036000830152611b6d81611b31565b9050919050565b7f4e6f7420656e6f75676820706c617965727320746f207374617274207468652060008201527f67616d652e000000000000000000000000000000000000000000000000000000602082015250565b6000611bd0602583611854565b9150611bdb82611b74565b604082019050919050565b60006020820190508181036000830152611bff81611bc3565b9050919050565b600081549050919050565b600082825260208201905092915050565b60008190508160005260206000209050919050565b611c40816114f8565b82525050565b6000611c528383611c37565b60208301905092915050565b60008160001c9050919050565b6000819050919050565b6000611c88611c8383611c5e565b611c6b565b9050919050565b6000611c9b8254611c75565b9050919050565b6000600182019050919050565b6000611cba82611c06565b611cc48185611c11565b9350611ccf83611c22565b8060005b83811015611d0757611ce482611c8f565b611cee8882611c46565b9750611cf983611ca2565b925050600181019050611cd3565b5085935050505092915050565b600060a082019050611d29600083018861158d565b8181036020830152611d3b8187611caf565b90508181036040830152611d4f8186611caf565b90508181036060830152611d638185611caf565b90508181036080830152611d778184611caf565b90509695505050505050565b6000819050919050565b611d9e611d99826114f8565b611d83565b82525050565b6000611db08285611d8d565b602082019150611dc08284611d8d565b6020820191508190509392505050565b7f4e487b7100000000000000000000000000000000000000000000000000000000600052601260045260246000fd5b6000611e0a826114f8565b9150611e15836114f8565b925082611e2557611e24611dd0565b5b828206905092915050565b6000611e3b826114f8565b915060008203611e4e57611e4d611956565b5b60018203905091905056fea26469706673582212206eab9ac0dce19edbd9c25261de1ad2024859bbfc1b967ec01854747bc8c1034764736f6c63430008120033",
  "linkReferences": {},
  "deployedLinkReferences": {}
}