{
  "_format": "hh-sol-artifact-1",
  "contractName": "BabanukiNFT",
  "sourceName": "contracts/BabanukiNFT.sol",
  "abi": [
    {
      "inputs": [],
      "stateMutability": "nonpayable",
      "type": "constructor"
    },
    {
      "anonymous": false,
      "inputs": [
        {
          "indexed": true,
          "internalType": "address",
          "name": "owner",
          "type": "address"
        },
        {
          "indexed": true,
          "internalType": "address",
          "name": "approved",
          "type": "address"
        },
        {
          "indexed": true,
          "internalType": "uint256",
          "name": "tokenId",
          "type": "uint256"
        }
      ],
      "name": "Approval",
      "type": "event"
    },
    {
      "anonymous": false,
      "inputs": [
        {
          "indexed": true,
          "internalType": "address",
          "name": "owner",
          "type": "address"
        },
        {
          "indexed": true,
          "internalType": "address",
          "name": "operator",
          "type": "address"
        },
        {
          "indexed": false,
          "internalType": "bool",
          "name": "approved",
          "type": "bool"
        }
      ],
      "name": "ApprovalForAll",
      "type": "event"
    },
    {
      "anonymous": false,
      "inputs": [
        {
          "indexed": false,
          "internalType": "uint256",
          "name": "playerIndex",
          "type": "uint256"
        },
        {
          "indexed": false,
          "internalType": "uint256",
          "name": "targetPlayerIndex",
          "type": "uint256"
        },
        {
          "indexed": false,
          "internalType": "uint256",
          "name": "targetCardIndex",
          "type": "uint256"
        },
        {
          "indexed": false,
          "internalType": "uint8",
          "name": "nextPlayerIndex",
          "type": "uint8"
        },
        {
          "indexed": false,
          "internalType": "uint256[]",
          "name": "player1Hand",
          "type": "uint256[]"
        },
        {
          "indexed": false,
          "internalType": "uint256[]",
          "name": "player2Hand",
          "type": "uint256[]"
        },
        {
          "indexed": false,
          "internalType": "uint256[]",
          "name": "player3Hand",
          "type": "uint256[]"
        },
        {
          "indexed": false,
          "internalType": "uint256[]",
          "name": "player4Hand",
          "type": "uint256[]"
        }
      ],
      "name": "CardDrawn",
      "type": "event"
    },
    {
      "anonymous": false,
      "inputs": [
        {
          "indexed": false,
          "internalType": "uint256",
          "name": "player1Ranking",
          "type": "uint256"
        },
        {
          "indexed": false,
          "internalType": "uint256",
          "name": "player2Ranking",
          "type": "uint256"
        },
        {
          "indexed": false,
          "internalType": "uint256",
          "name": "player3Ranking",
          "type": "uint256"
        },
        {
          "indexed": false,
          "internalType": "uint256",
          "name": "player4Ranking",
          "type": "uint256"
        }
      ],
      "name": "GameOver",
      "type": "event"
    },
    {
      "anonymous": false,
      "inputs": [
        {
          "indexed": true,
          "internalType": "address",
          "name": "player1",
          "type": "address"
        },
        {
          "indexed": true,
          "internalType": "address",
          "name": "player2",
          "type": "address"
        },
        {
          "indexed": true,
          "internalType": "address",
          "name": "player3",
          "type": "address"
        },
        {
          "indexed": false,
          "internalType": "address",
          "name": "player4",
          "type": "address"
        },
        {
          "indexed": false,
          "internalType": "uint256[]",
          "name": "player1Hand",
          "type": "uint256[]"
        },
        {
          "indexed": false,
          "internalType": "uint256[]",
          "name": "player2Hand",
          "type": "uint256[]"
        },
        {
          "indexed": false,
          "internalType": "uint256[]",
          "name": "player3Hand",
          "type": "uint256[]"
        },
        {
          "indexed": false,
          "internalType": "uint256[]",
          "name": "player4Hand",
          "type": "uint256[]"
        }
      ],
      "name": "GameStarted",
      "type": "event"
    },
    {
      "anonymous": false,
      "inputs": [
        {
          "indexed": true,
          "internalType": "address",
          "name": "recipient",
          "type": "address"
        },
        {
          "indexed": true,
          "internalType": "uint256",
          "name": "tokenId",
          "type": "uint256"
        },
        {
          "indexed": false,
          "internalType": "string",
          "name": "tokenURI",
          "type": "string"
        }
      ],
      "name": "NFTAwarded",
      "type": "event"
    },
    {
      "anonymous": false,
      "inputs": [
        {
          "indexed": true,
          "internalType": "address",
          "name": "playerAddress",
          "type": "address"
        },
        {
          "indexed": false,
          "internalType": "bool",
          "name": "hasEmptyHand",
          "type": "bool"
        },
        {
          "indexed": false,
          "internalType": "uint256",
          "name": "ranking",
          "type": "uint256"
        }
      ],
      "name": "PlayerFinished",
      "type": "event"
    },
    {
      "anonymous": false,
      "inputs": [
        {
          "indexed": true,
          "internalType": "address",
          "name": "from",
          "type": "address"
        },
        {
          "indexed": true,
          "internalType": "address",
          "name": "to",
          "type": "address"
        },
        {
          "indexed": true,
          "internalType": "uint256",
          "name": "tokenId",
          "type": "uint256"
        }
      ],
      "name": "Transfer",
      "type": "event"
    },
    {
      "inputs": [],
      "name": "PLAYER_COUNT",
      "outputs": [
        {
          "internalType": "uint8",
          "name": "",
          "type": "uint8"
        }
      ],
      "stateMutability": "view",
      "type": "function"
    },
    {
      "inputs": [
        {
          "internalType": "address",
          "name": "to",
          "type": "address"
        },
        {
          "internalType": "uint256",
          "name": "tokenId",
          "type": "uint256"
        }
      ],
      "name": "approve",
      "outputs": [],
      "stateMutability": "nonpayable",
      "type": "function"
    },
    {
      "inputs": [
        {
          "internalType": "address",
          "name": "owner",
          "type": "address"
        }
      ],
      "name": "balanceOf",
      "outputs": [
        {
          "internalType": "uint256",
          "name": "",
          "type": "uint256"
        }
      ],
      "stateMutability": "view",
      "type": "function"
    },
    {
      "inputs": [
        {
          "internalType": "string",
          "name": "tokenURI",
          "type": "string"
        }
      ],
      "name": "claimNFT",
      "outputs": [],
      "stateMutability": "nonpayable",
      "type": "function"
    },
    {
      "inputs": [
        {
          "internalType": "uint256",
          "name": "",
          "type": "uint256"
        }
      ],
      "name": "deck",
      "outputs": [
        {
          "internalType": "uint256",
          "name": "",
          "type": "uint256"
        }
      ],
      "stateMutability": "view",
      "type": "function"
    },
    {
      "inputs": [
        {
          "internalType": "uint256",
          "name": "playerIndex",
          "type": "uint256"
        },
        {
          "internalType": "uint256",
          "name": "targetPlayerIndex",
          "type": "uint256"
        },
        {
          "internalType": "uint256",
          "name": "targetCardIndex",
          "type": "uint256"
        },
        {
          "internalType": "uint8",
          "name": "nextPlayerIndex",
          "type": "uint8"
        }
      ],
      "name": "drawCard",
      "outputs": [],
      "stateMutability": "nonpayable",
      "type": "function"
    },
    {
      "inputs": [],
      "name": "gameOverFlag",
      "outputs": [
        {
          "internalType": "bool",
          "name": "",
          "type": "bool"
        }
      ],
      "stateMutability": "view",
      "type": "function"
    },
    {
      "inputs": [],
      "name": "gameStarted",
      "outputs": [
        {
          "internalType": "bool",
          "name": "",
          "type": "bool"
        }
      ],
      "stateMutability": "view",
      "type": "function"
    },
    {
      "inputs": [
        {
          "internalType": "uint256",
          "name": "tokenId",
          "type": "uint256"
        }
      ],
      "name": "getApproved",
      "outputs": [
        {
          "internalType": "address",
          "name": "",
          "type": "address"
        }
      ],
      "stateMutability": "view",
      "type": "function"
    },
    {
      "inputs": [],
      "name": "getNumberOfPlayers",
      "outputs": [
        {
          "internalType": "uint256",
          "name": "",
          "type": "uint256"
        }
      ],
      "stateMutability": "view",
      "type": "function"
    },
    {
      "inputs": [
        {
          "internalType": "address",
          "name": "owner",
          "type": "address"
        },
        {
          "internalType": "address",
          "name": "operator",
          "type": "address"
        }
      ],
      "name": "isApprovedForAll",
      "outputs": [
        {
          "internalType": "bool",
          "name": "",
          "type": "bool"
        }
      ],
      "stateMutability": "view",
      "type": "function"
    },
    {
      "inputs": [
        {
          "internalType": "address",
          "name": "playerAddress",
          "type": "address"
        }
      ],
      "name": "joinGame",
      "outputs": [],
      "stateMutability": "nonpayable",
      "type": "function"
    },
    {
      "inputs": [],
      "name": "maxTokenId",
      "outputs": [
        {
          "internalType": "uint256",
          "name": "",
          "type": "uint256"
        }
      ],
      "stateMutability": "view",
      "type": "function"
    },
    {
      "inputs": [],
      "name": "name",
      "outputs": [
        {
          "internalType": "string",
          "name": "",
          "type": "string"
        }
      ],
      "stateMutability": "view",
      "type": "function"
    },
    {
      "inputs": [
        {
          "internalType": "uint8",
          "name": "currentPlayerIndex",
          "type": "uint8"
        }
      ],
      "name": "nextTurn",
      "outputs": [],
      "stateMutability": "nonpayable",
      "type": "function"
    },
    {
      "inputs": [
        {
          "internalType": "uint256",
          "name": "tokenId",
          "type": "uint256"
        }
      ],
      "name": "ownerOf",
      "outputs": [
        {
          "internalType": "address",
          "name": "",
          "type": "address"
        }
      ],
      "stateMutability": "view",
      "type": "function"
    },
    {
      "inputs": [
        {
          "internalType": "uint256",
          "name": "",
          "type": "uint256"
        }
      ],
      "name": "playerAddresses",
      "outputs": [
        {
          "internalType": "address",
          "name": "",
          "type": "address"
        }
      ],
      "stateMutability": "view",
      "type": "function"
    },
    {
      "inputs": [
        {
          "internalType": "address",
          "name": "",
          "type": "address"
        }
      ],
      "name": "players",
      "outputs": [
        {
          "internalType": "address",
          "name": "playerAddress",
          "type": "address"
        },
        {
          "internalType": "uint8",
          "name": "ranking",
          "type": "uint8"
        },
        {
          "internalType": "bool",
          "name": "hasEmptyHand",
          "type": "bool"
        },
        {
          "internalType": "bool",
          "name": "isHuman",
          "type": "bool"
        }
      ],
      "stateMutability": "view",
      "type": "function"
    },
    {
      "inputs": [],
      "name": "resetGame",
      "outputs": [],
      "stateMutability": "nonpayable",
      "type": "function"
    },
    {
      "inputs": [
        {
          "internalType": "address",
          "name": "from",
          "type": "address"
        },
        {
          "internalType": "address",
          "name": "to",
          "type": "address"
        },
        {
          "internalType": "uint256",
          "name": "tokenId",
          "type": "uint256"
        }
      ],
      "name": "safeTransferFrom",
      "outputs": [],
      "stateMutability": "nonpayable",
      "type": "function"
    },
    {
      "inputs": [
        {
          "internalType": "address",
          "name": "from",
          "type": "address"
        },
        {
          "internalType": "address",
          "name": "to",
          "type": "address"
        },
        {
          "internalType": "uint256",
          "name": "tokenId",
          "type": "uint256"
        },
        {
          "internalType": "bytes",
          "name": "data",
          "type": "bytes"
        }
      ],
      "name": "safeTransferFrom",
      "outputs": [],
      "stateMutability": "nonpayable",
      "type": "function"
    },
    {
      "inputs": [],
      "name": "sayHello",
      "outputs": [
        {
          "internalType": "string",
          "name": "",
          "type": "string"
        }
      ],
      "stateMutability": "pure",
      "type": "function"
    },
    {
      "inputs": [
        {
          "internalType": "address",
          "name": "operator",
          "type": "address"
        },
        {
          "internalType": "bool",
          "name": "approved",
          "type": "bool"
        }
      ],
      "name": "setApprovalForAll",
      "outputs": [],
      "stateMutability": "nonpayable",
      "type": "function"
    },
    {
      "inputs": [],
      "name": "startGame",
      "outputs": [],
      "stateMutability": "nonpayable",
      "type": "function"
    },
    {
      "inputs": [
        {
          "internalType": "bytes4",
          "name": "interfaceId",
          "type": "bytes4"
        }
      ],
      "name": "supportsInterface",
      "outputs": [
        {
          "internalType": "bool",
          "name": "",
          "type": "bool"
        }
      ],
      "stateMutability": "view",
      "type": "function"
    },
    {
      "inputs": [],
      "name": "symbol",
      "outputs": [
        {
          "internalType": "string",
          "name": "",
          "type": "string"
        }
      ],
      "stateMutability": "view",
      "type": "function"
    },
    {
      "inputs": [
        {
          "internalType": "uint256",
          "name": "tokenId",
          "type": "uint256"
        }
      ],
      "name": "tokenURI",
      "outputs": [
        {
          "internalType": "string",
          "name": "",
          "type": "string"
        }
      ],
      "stateMutability": "view",
      "type": "function"
    },
    {
      "inputs": [
        {
          "internalType": "address",
          "name": "from",
          "type": "address"
        },
        {
          "internalType": "address",
          "name": "to",
          "type": "address"
        },
        {
          "internalType": "uint256",
          "name": "tokenId",
          "type": "uint256"
        }
      ],
      "name": "transferFrom",
      "outputs": [],
      "stateMutability": "nonpayable",
      "type": "function"
    }
  ],
  "bytecode": "0x60806040526008805462ffffff1916620100001790553480156200002257600080fd5b506040518060400160405280600781526020016642424e4974656d60c81b8152506040518060400160405280600381526020016221212760e91b8152508160009081620000709190620001dc565b5060016200007f8282620001dc565b5060019150505b60048111620000f85760015b600d8111620000e257600b81620000ab846064620002be565b620000b79190620002de565b8154600181018355600092835260209092209091015580620000d981620002f4565b91505062000092565b5080620000ef81620002f4565b91505062000086565b50600b80546001810182556000919091526103e77f0175b7a638427703f0dbe7bb9bbf987a2551717b34e79f33b5b1008d1fa01db99091015562000310565b634e487b7160e01b600052604160045260246000fd5b600181811c908216806200016257607f821691505b6020821081036200018357634e487b7160e01b600052602260045260246000fd5b50919050565b601f821115620001d757600081815260208120601f850160051c81016020861015620001b25750805b601f850160051c820191505b81811015620001d357828155600101620001be565b5050505b505050565b81516001600160401b03811115620001f857620001f862000137565b62000210816200020984546200014d565b8462000189565b602080601f8311600181146200024857600084156200022f5750858301515b600019600386901b1c1916600185901b178555620001d3565b600085815260208120601f198616915b82811015620002795788860151825594840194600190910190840162000258565b5085821015620002985787850151600019600388901b60f8161c191681555b5050505050600190811b01905550565b634e487b7160e01b600052601160045260246000fd5b8082028115828204841417620002d857620002d8620002a8565b92915050565b80820180821115620002d857620002d8620002a8565b600060018201620003095762000309620002a8565b5060010190565b61373c80620003206000396000f3fe608060405234801561001057600080fd5b50600436106101c45760003560e01c806373fa95c4116100f9578063c87b56dd11610097578063e86b70cb11610071578063e86b70cb14610410578063e985e9c514610422578063ef5fb05b14610435578063fd6673f51461045f57600080fd5b8063c87b56dd14610378578063d65ab5f21461038b578063e2eb41ff1461039357600080fd5b8063a22cb465116100d3578063a22cb46514610337578063b2c4acd21461034a578063b88d4fde1461035d578063bb4722191461037057600080fd5b806373fa95c41461031357806391ba317a1461032657806395d89b411461032f57600080fd5b806323b872dd116101665780635e123ce4116101405780635e123ce4146102bf5780636352211e146102cc57806365b1dafa146102df57806370a082311461030057600080fd5b806323b872dd1461027f5780632829a3d81461029257806342842e0e146102ac57600080fd5b8063095ea7b3116101a2578063095ea7b314610231578063117207561461024657806315c6aee2146102595780632389a2901461026c57600080fd5b806301ffc9a7146101c957806306fdde03146101f1578063081812fc14610206575b600080fd5b6101dc6101d7366004612e97565b610467565b60405190151581526020015b60405180910390f35b6101f96104b9565b6040516101e89190612f04565b610219610214366004612f17565b61054b565b6040516001600160a01b0390911681526020016101e8565b61024461023f366004612f4c565b610572565b005b610244610254366004613002565b61068c565b610219610267366004612f17565b610753565b61024461027a36600461304b565b61077d565b61024461028d366004613066565b6109fe565b61029a600481565b60405160ff90911681526020016101e8565b6102446102ba366004613066565b610a2f565b6008546101dc9060ff1681565b6102196102da366004612f17565b610a4a565b6102f26102ed366004612f17565b610aaa565b6040519081526020016101e8565b6102f261030e36600461304b565b610acb565b6102446103213660046130b3565b610b51565b6102f260095481565b6101f9610ebe565b6102446103453660046130ce565b610ecd565b61024461035836600461310a565b610edc565b61024461036b366004613149565b6115e6565b610244611618565b6101f9610386366004612f17565b61174c565b61024461185c565b6103dc6103a136600461304b565b600d60205260009081526040902080546003909101546001600160a01b039091169060ff808216916101008104821691620100009091041684565b604080516001600160a01b03909516855260ff909316602085015290151591830191909152151560608201526080016101e8565b6008546101dc90610100900460ff1681565b6101dc6104303660046131c5565b611d88565b60408051808201909152600e81526d48454c4c4f20424142414e554b4960901b60208201526101f9565b600c546102f2565b60006001600160e01b031982166380ac58cd60e01b148061049857506001600160e01b03198216635b5e139f60e01b145b806104b357506301ffc9a760e01b6001600160e01b03198316145b92915050565b6060600080546104c8906131f8565b80601f01602080910402602001604051908101604052809291908181526020018280546104f4906131f8565b80156105415780601f1061051657610100808354040283529160200191610541565b820191906000526020600020905b81548152906001019060200180831161052457829003601f168201915b5050505050905090565b600061055682611db6565b506000908152600460205260409020546001600160a01b031690565b600061057d82610a4a565b9050806001600160a01b0316836001600160a01b0316036105ef5760405162461bcd60e51b815260206004820152602160248201527f4552433732313a20617070726f76616c20746f2063757272656e74206f776e656044820152603960f91b60648201526084015b60405180910390fd5b336001600160a01b038216148061060b575061060b8133611d88565b61067d5760405162461bcd60e51b815260206004820152603d60248201527f4552433732313a20617070726f76652063616c6c6572206973206e6f7420746f60448201527f6b656e206f776e6572206f7220617070726f76656420666f7220616c6c00000060648201526084016105e6565b6106878383611e15565b505050565b600854610100900460ff166106db5760405162461bcd60e51b815260206004820152601560248201527423b0b6b29034b9903737ba1037bb32b9103cb2ba1760591b60448201526064016105e6565b600a546001600160a01b031633146107355760405162461bcd60e51b815260206004820152601e60248201527f4f6e6c79207468652077696e6e65722063616e20636c61696d204e46542e000060448201526064016105e6565b61073f3382611e83565b5050600a80546001600160a01b0319169055565b600c818154811061076357600080fd5b6000918252602090912001546001600160a01b0316905081565b60085460ff16156107cc5760405162461bcd60e51b815260206004820152601960248201527823b0b6b2903430b99030b63932b0b23c9039ba30b93a32b21760391b60448201526064016105e6565b600c546004906107dd906001613248565b111561082b5760405162461bcd60e51b815260206004820152601860248201527f416464696e6720746f6f206d616e7920706c61796572732e000000000000000060448201526064016105e6565b6000805b600c5481101561088b57826001600160a01b0316600c82815481106108565761085661325b565b6000918252602090912001546001600160a01b031603610879576001915061088b565b8061088381613271565b91505061082f565b5080156108da5760405162461bcd60e51b815260206004820152601a60248201527f506c617965722068617320616c7265616479206a6f696e65642e00000000000060448201526064016105e6565b600c805460018082019092557fdf6966c971051c3d54ec59162606531493a51404a002842f56009d7e5cf4a8c70180546001600160a01b038581166001600160a01b031992831681179093556040805160c08101825284815281516000808252602080830185528084019283528451828152808201865284860152606084018290526080840182905260a08401899052968152600d875292909220815181549416939094169290921783555180519194929361099b93850192910190612e07565b50604082015180516109b7916002840191602090910190612e07565b50606082015160039091018054608084015160a0909401511515620100000262ff0000199415156101000261ffff1990921660ff9094169390931717929092161790555050565b610a083382611f0c565b610a245760405162461bcd60e51b81526004016105e69061328a565b610687838383611f6a565b610687838383604051806020016040528060008152506115e6565b6000818152600260205260408120546001600160a01b0316806104b35760405162461bcd60e51b8152602060048201526018602482015277115490cdcc8c4e881a5b9d985b1a59081d1bdad95b88125160421b60448201526064016105e6565b600b8181548110610aba57600080fd5b600091825260209091200154905081565b60006001600160a01b038216610b355760405162461bcd60e51b815260206004820152602960248201527f4552433732313a2061646472657373207a65726f206973206e6f7420612076616044820152683634b21037bbb732b960b91b60648201526084016105e6565b506001600160a01b031660009081526003602052604090205490565b60085460ff16610b9f5760405162461bcd60e51b815260206004820152601960248201527823b0b6b2903430b9903737ba1039ba30b93a32b2103cb2ba1760391b60448201526064016105e6565b600854610100900460ff1615610be75760405162461bcd60e51b815260206004820152600d60248201526c23b0b6b29034b99037bb32b91760991b60448201526064016105e6565b600d6000600c8360ff1681548110610c0157610c0161325b565b60009182526020808320909101546001600160a01b0316835282019290925260400190206003015460ff6101009091041615610c51576004610c448260016132d7565b610c4e9190613306565b90505b60006004610c608360016132d7565b610c6a9190613306565b905060006004610c7b8460016132d7565b610c859190613306565b9050600d6000600c8360ff1681548110610ca157610ca161325b565b60009182526020808320909101546001600160a01b0316835282019290925260400190206003015460ff6101009091041615610d53575b6004610ce58260016132d7565b610cef9190613306565b90508260ff168160ff1614158015610d4e5750600d6000600c8360ff1681548110610d1c57610d1c61325b565b60009182526020808320909101546001600160a01b0316835282019290925260400190206003015460ff610100909104165b610cd8575b600d6000600c8460ff1681548110610d6d57610d6d61325b565b60009182526020808320909101546001600160a01b0316835282019290925260400190206003015460ff6101009091041615610e1f575b6004610db18360016132d7565b610dbb9190613306565b91508260ff168260ff1614158015610e1a5750600d6000600c8460ff1681548110610de857610de861325b565b60009182526020808320909101546001600160a01b0316835282019290925260400190206003015460ff610100909104165b610da4575b600d6000600c8560ff1681548110610e3957610e3961325b565b60009182526020808320909101546001600160a01b0316835282019290925260400190206003015460ff6201000090910416610687576000610ea4600c8360ff1681548110610e8a57610e8a61325b565b6000918252602090912001546001600160a01b03166120ce565b9050610eb88460ff168360ff168386610edc565b50505050565b6060600180546104c8906131f8565b610ed833838361217b565b5050565b6000600c8581548110610ef157610ef161325b565b6000918252602082200154600c80546001600160a01b0390921693509086908110610f1e57610f1e61325b565b60009182526020808320909101546001600160a01b0316808352600d90915260409091206001018054919250908510610f8f5760405162461bcd60e51b815260206004820152601360248201527224b73b30b634b21031b0b9321034b73232bc1760691b60448201526064016105e6565b6001600160a01b0382166000908152600d60205260408120600101805487908110610fbc57610fbc61325b565b90600052602060002001549050806000036110295760405162461bcd60e51b815260206004820152602760248201527f43617264206e6f7420666f756e6420696e2074617267657420706c617965722760448201526639903430b7321760c91b60648201526084016105e6565b6001600160a01b0384166000908152600d60209081526040822060019081018054808301825590845291832090910183905583546110679190613328565b905082818154811061107b5761107b61325b565b90600052602060002001548388815481106110985761109861325b565b9060005260206000200181905550828054806110b6576110b661333b565b600190038181906000526020600020016000905590556110d585612249565b6110de85612497565b6001600160a01b0385166000908152600d6020526040902060030154610100900460ff1615611175576001600160a01b0385166000818152600d6020526040908190206003015490517f80236d7c4ab514db2c7033b9be61453719fbca9e3c5cca76b8216358bef472219161116c9160ff61010083048116921690911515825260ff16602082015260400190565b60405180910390a25b61117e84612497565b6001600160a01b0384166000908152600d6020526040902060030154610100900460ff1615611215576001600160a01b0384166000818152600d6020526040908190206003015490517f80236d7c4ab514db2c7033b9be61453719fbca9e3c5cca76b8216358bef472219161120c9160ff61010083048116921690911515825260ff16602082015260400190565b60405180910390a25b61121d612530565b1561145c576008805461ff00191661010017905560005b600c548110156112dc57600d6000600c83815481106112555761125561325b565b60009182526020808320909101546001600160a01b0316835282019290925260400190206003015460ff166001036112ca57600c818154811061129a5761129a61325b565b600091825260209091200154600a80546001600160a01b0319166001600160a01b039092169190911790556112dc565b806112d481613271565b915050611234565b507f2138eea544e46359acf616a3cea69daedd6984f74feb71820c6c28e5cd25434c600d6000600c6000815481106113165761131661325b565b60009182526020808320909101546001600160a01b03168352820192909252604001812060030154600c805460ff90921692600d92909190600190811061135f5761135f61325b565b60009182526020808320909101546001600160a01b03168352820192909252604001812060030154600c805460ff90921692600d9290919060029081106113a8576113a861325b565b60009182526020808320909101546001600160a01b031683528201929092526040018120600390810154600c805460ff90921693600d93909281106113ef576113ef61325b565b60009182526020808320909101546001600160a01b03168352820192909252604090810190912060030154905161144c9493929160ff169060ff948516815292841660208401529083166040830152909116606082015260800190565b60405180910390a161145c611618565b7fc2d6ecdc3e86ba8d84f27d24b86eabe1af9de1ed679530dadd6d75efae88cd7e89898989600d6000600c6000815481106114995761149961325b565b60009182526020808320909101546001600160a01b031683528201929092526040018120600c8054600192830193600d9390929181106114db576114db61325b565b9060005260206000200160009054906101000a90046001600160a01b03166001600160a01b03166001600160a01b03168152602001908152602001600020600101600d6000600c6002815481106115345761153461325b565b9060005260206000200160009054906101000a90046001600160a01b03166001600160a01b03166001600160a01b03168152602001908152602001600020600101600d6000600c60038154811061158d5761158d61325b565b60009182526020808320909101546001600160a01b03168352820192909252604090810190912090516115ca989796959493929160010190613391565b60405180910390a16115db86610b51565b505050505050505050565b6115f03383611f0c565b61160c5760405162461bcd60e51b81526004016105e69061328a565b610eb884848484612628565b60085460ff166116665760405162461bcd60e51b815260206004820152601960248201527823b0b6b2903430b9903737ba1039ba30b93a32b2103cb2ba1760391b60448201526064016105e6565b6008805460ff1916905560005b600c54811015611724576000600c82815481106116925761169261325b565b60009182526020808320909101546001600160a01b0316808352600d909152604082209092506116c89160019190910190612e52565b6001600160a01b0381166000908152600d602052604081206116ef91600290910190612e52565b6001600160a01b03166000908152600d60205260409020600301805461ffff191690558061171c81613271565b915050611673565b50611731600c6000612e52565b6008805462ff000019166201000017905561174a61265b565b565b606061175782611db6565b60008281526006602052604081208054611770906131f8565b80601f016020809104026020016040519081016040528092919081815260200182805461179c906131f8565b80156117e95780601f106117be576101008083540402835291602001916117e9565b820191906000526020600020905b8154815290600101906020018083116117cc57829003601f168201915b50505050509050600061180760408051602081019091526000815290565b90508051600003611819575092915050565b81511561184b57808260405160200161183392919061340b565b60405160208183030381529060405292505050919050565b61185484612741565b949350505050565b600c546001118015906118725750600c54600410155b6118be5760405162461bcd60e51b815260206004820152601a60248201527f496e76616c6964206e756d626572206f6620706c61796572732e00000000000060448201526064016105e6565b600c54805b6004811015611a2f5760008143406040516020016118eb929190918252602082015260400190565b60408051808303601f190181528282528051602091820120600c805460018082019092557fdf6966c971051c3d54ec59162606531493a51404a002842f56009d7e5cf4a8c70180546001600160a01b03199081166001600160a01b0380861691821790935560c088018752808852865160008082528188018952878a0191825288518181528089018a528a8a015260608a0181905260808a0181905260a08a01819052918252600d87529690208751815490921691909216178155935180519296506119bd9391850192910190612e07565b50604082015180516119d9916002840191602090910190612e07565b50606082015160039091018054608084015160a0909401511515620100000262ff0000199415156101000261ffff1990921660ff9094169390931717929092161790555080611a2781613271565b9150506118c3565b50600c54600414611a905760405162461bcd60e51b815260206004820152602560248201527f4e6f7420656e6f75676820706c617965727320746f207374617274207468652060448201526433b0b6b29760d91b60648201526084016105e6565b60085460ff1615611adf5760405162461bcd60e51b815260206004820152601960248201527823b0b6b2903430b99030b63932b0b23c9039ba30b93a32b21760391b60448201526064016105e6565b6008805460ff19166001179055611af46127b5565b60005b600c54811015611b4357611b31600c8281548110611b1757611b1761325b565b6000918252602090912001546001600160a01b0316612249565b80611b3b81613271565b915050611af7565b50600a80546001600160a01b0319169055600c80546002908110611b6957611b6961325b565b600091825260209091200154600c80546001600160a01b03909216916001908110611b9657611b9661325b565b6000918252602082200154600c80546001600160a01b03909216929091611bbf57611bbf61325b565b600091825260209091200154600c80546001600160a01b03909216917fa3c103a21bb74207737d4023ba00b21feb46c09df459be2aadad33d6f215c5e091906003908110611c0f57611c0f61325b565b9060005260206000200160009054906101000a90046001600160a01b0316600d6000600c600081548110611c4557611c4561325b565b60009182526020808320909101546001600160a01b031683528201929092526040018120600c8054600192830193600d939092918110611c8757611c8761325b565b9060005260206000200160009054906101000a90046001600160a01b03166001600160a01b03166001600160a01b03168152602001908152602001600020600101600d6000600c600281548110611ce057611ce061325b565b9060005260206000200160009054906101000a90046001600160a01b03166001600160a01b03166001600160a01b03168152602001908152602001600020600101600d6000600c600381548110611d3957611d3961325b565b60009182526020808320909101546001600160a01b0316835282019290925260409081019091209051611d7395949392916001019061343a565b60405180910390a4611d856000610b51565b50565b6001600160a01b03918216600090815260056020908152604080832093909416825291909152205460ff1690565b6000818152600260205260409020546001600160a01b0316611d855760405162461bcd60e51b8152602060048201526018602482015277115490cdcc8c4e881a5b9d985b1a59081d1bdad95b88125160421b60448201526064016105e6565b600081815260046020526040902080546001600160a01b0319166001600160a01b0384169081179091558190611e4a82610a4a565b6001600160a01b03167f8c5be1e5ebec7d5bd14f71427d1e84f3dd0314c0f7b2291e5b200ac8c7c3b92560405160405180910390a45050565b600080611e8f60075490565b9050611e9b848261297d565b611ea58184612b08565b611eb3600780546001019055565b600954811115611ec35760098190555b80846001600160a01b03167f57462ec1f49bd1a16058121274b02c53e3dd9fa6a481daea6960fe1101164cfe85604051611efd9190612f04565b60405180910390a39392505050565b600080611f1883610a4a565b9050806001600160a01b0316846001600160a01b03161480611f3f5750611f3f8185611d88565b806118545750836001600160a01b0316611f588461054b565b6001600160a01b031614949350505050565b826001600160a01b0316611f7d82610a4a565b6001600160a01b031614611fa35760405162461bcd60e51b81526004016105e6906134a4565b6001600160a01b0382166120055760405162461bcd60e51b8152602060048201526024808201527f4552433732313a207472616e7366657220746f20746865207a65726f206164646044820152637265737360e01b60648201526084016105e6565b826001600160a01b031661201882610a4a565b6001600160a01b03161461203e5760405162461bcd60e51b81526004016105e6906134a4565b600081815260046020908152604080832080546001600160a01b03199081169091556001600160a01b0387811680865260038552838620805460001901905590871680865283862080546001019055868652600290945282852080549092168417909155905184937fddf252ad1be2c89b69c2b068fc378daa952ba7f163c4a11628f55a4df523b3ef91a4505050565b6001600160a01b0381166000908152600d6020526040812060010180546121375760405162461bcd60e51b815260206004820152601e60248201527f54617267657420706c6179657227732068616e6420697320656d7074792e000060448201526064016105e6565b8054604080514260208201524491810191909152436060820152600091906080016040516020818303038152906040528051906020012060001c61185491906134e9565b816001600160a01b0316836001600160a01b0316036121dc5760405162461bcd60e51b815260206004820152601960248201527f4552433732313a20617070726f766520746f2063616c6c65720000000000000060448201526064016105e6565b6001600160a01b03838116600081815260056020908152604080832094871680845294825291829020805460ff191686151590811790915591519182527f17307eab39ab6107e8899845ad3d59bd9653f200f220920489ca2b5937696c31910160405180910390a3505050565b6001600160a01b0381166000908152600d602052604081206001810191600290910190805b835481101561245c578381815481106122895761228961325b565b90600052602060002001546000031561244a576000806122aa836001613248565b90505b85548110156123fa578581815481106122c8576122c861325b565b9060005260206000200154600003156123e85760648682815481106122ef576122ef61325b565b906000526020600020015461230491906134e9565b60648785815481106123185761231861325b565b906000526020600020015461232d91906134e9565b036123e857848684815481106123455761234561325b565b600091825260208083209091015483546001810185559383529120909101558554859087908390811061237a5761237a61325b565b600091825260208083209091015483546001810185559383529082209092019190915586548790859081106123b1576123b161325b565b906000526020600020018190555060008682815481106123d3576123d361325b565b600091825260209091200155600191506123fa565b806123f281613271565b9150506122ad565b5080612448578482815481106124125761241261325b565b906000526020600020015485848061242990613271565b95508154811061243b5761243b61325b565b6000918252602090912001555b505b8061245481613271565b91505061226e565b505b825481101561249257828054806124775761247761333b565b6001900381819060005260206000200160009055905561245e565b610eb8845b6001600160a01b0381166000908152600d60205260408120600101549003611d85576001600160a01b0381166000908152600d60205260409020600301805461010061ff00198216811783556008805460ff6201000091829004811661ffff199095169490941790921790935582540416906002612514836134fd565b91906101000a81548160ff021916908360ff1602179055505050565b60008080805b600c548110156125dc57600d6000600c83815481106125575761255761325b565b60009182526020808320909101546001600160a01b0316835282019290925260400190206003015460ff610100909104161561259f578261259781613271565b9350506125ca565b600c81815481106125b2576125b261325b565b6000918252602090912001546001600160a01b031691505b806125d481613271565b915050612536565b506125e96001600461351c565b60ff16820361261f576001600160a01b03166000908152600d60205260409020600301805460ff19166004179055506001919050565b60009250505090565b612633848484611f6a565b61263f84848484612b9b565b610eb85760405162461bcd60e51b81526004016105e690613535565b60345b8015611d85576000612671826001613248565b6040805142602082015244918101919091526060016040516020818303038152906040528051906020012060001c6126a991906134e9565b9050600b81815481106126be576126be61325b565b9060005260206000200154600b83815481106126dc576126dc61325b565b9060005260206000200154600b84815481106126fa576126fa61325b565b906000526020600020016000600b85815481106127195761271961325b565b600091825260209091200192909255919091555081905061273981613587565b91505061265e565b606061274c82611db6565b600061276360408051602081019091526000815290565b9050600081511161278357604051806020016040528060008152506127ae565b8061278d84612c9c565b60405160200161279e92919061340b565b6040516020818303038152906040525b9392505050565b60005b6103e88110156128df57604080514260208201529081018290526000906035906060016040516020818303038152906040528051906020012060001c6127fe91906134e9565b90506000603542612810856001613248565b6040805160208101939093528201526060016040516020818303038152906040528051906020012060001c61284591906134e9565b9050600b818154811061285a5761285a61325b565b9060005260206000200154600b83815481106128785761287861325b565b9060005260206000200154600b84815481106128965761289661325b565b906000526020600020016000600b85815481106128b5576128b561325b565b60009182526020909120019290925591909155508291506128d7905081613271565b9150506127b8565b5060005b6035811015611d8557600d6000600c6128fd6004856134e9565b8154811061290d5761290d61325b565b60009182526020808320909101546001600160a01b031683528201929092526040019020600b8054600192909201918390811061294c5761294c61325b565b600091825260208083209091015483546001810185559383529120909101558061297581613271565b9150506128e3565b6001600160a01b0382166129d35760405162461bcd60e51b815260206004820181905260248201527f4552433732313a206d696e7420746f20746865207a65726f206164647265737360448201526064016105e6565b6000818152600260205260409020546001600160a01b031615612a385760405162461bcd60e51b815260206004820152601c60248201527f4552433732313a20746f6b656e20616c7265616479206d696e7465640000000060448201526064016105e6565b6000818152600260205260409020546001600160a01b031615612a9d5760405162461bcd60e51b815260206004820152601c60248201527f4552433732313a20746f6b656e20616c7265616479206d696e7465640000000060448201526064016105e6565b6001600160a01b038216600081815260036020908152604080832080546001019055848352600290915280822080546001600160a01b0319168417905551839291907fddf252ad1be2c89b69c2b068fc378daa952ba7f163c4a11628f55a4df523b3ef908290a45050565b6000828152600260205260409020546001600160a01b0316612b835760405162461bcd60e51b815260206004820152602e60248201527f45524337323155524953746f726167653a2055524920736574206f66206e6f6e60448201526d32bc34b9ba32b73a103a37b5b2b760911b60648201526084016105e6565b600082815260066020526040902061068782826135ec565b60006001600160a01b0384163b15612c9157604051630a85bd0160e11b81526001600160a01b0385169063150b7a0290612bdf9033908990889088906004016136ac565b6020604051808303816000875af1925050508015612c1a575060408051601f3d908101601f19168201909252612c17918101906136e9565b60015b612c77573d808015612c48576040519150601f19603f3d011682016040523d82523d6000602084013e612c4d565b606091505b508051600003612c6f5760405162461bcd60e51b81526004016105e690613535565b805181602001fd5b6001600160e01b031916630a85bd0160e11b149050611854565b506001949350505050565b60606000612ca983612d2f565b600101905060008167ffffffffffffffff811115612cc957612cc9612f76565b6040519080825280601f01601f191660200182016040528015612cf3576020820181803683370190505b5090508181016020015b600019016f181899199a1a9b1b9c1cb0b131b232b360811b600a86061a8153600a8504945084612cfd57509392505050565b60008072184f03e93ff9f4daa797ed6e38ed64bf6a1f0160401b8310612d6e5772184f03e93ff9f4daa797ed6e38ed64bf6a1f0160401b830492506040015b6d04ee2d6d415b85acef81000000008310612d9a576d04ee2d6d415b85acef8100000000830492506020015b662386f26fc100008310612db857662386f26fc10000830492506010015b6305f5e1008310612dd0576305f5e100830492506008015b6127108310612de457612710830492506004015b60648310612df6576064830492506002015b600a83106104b35760010192915050565b828054828255906000526020600020908101928215612e42579160200282015b82811115612e42578251825591602001919060010190612e27565b50612e4e929150612e6c565b5090565b5080546000825590600052602060002090810190611d8591905b5b80821115612e4e5760008155600101612e6d565b6001600160e01b031981168114611d8557600080fd5b600060208284031215612ea957600080fd5b81356127ae81612e81565b60005b83811015612ecf578181015183820152602001612eb7565b50506000910152565b60008151808452612ef0816020860160208601612eb4565b601f01601f19169290920160200192915050565b6020815260006127ae6020830184612ed8565b600060208284031215612f2957600080fd5b5035919050565b80356001600160a01b0381168114612f4757600080fd5b919050565b60008060408385031215612f5f57600080fd5b612f6883612f30565b946020939093013593505050565b634e487b7160e01b600052604160045260246000fd5b600067ffffffffffffffff80841115612fa757612fa7612f76565b604051601f8501601f19908116603f01168101908282118183101715612fcf57612fcf612f76565b81604052809350858152868686011115612fe857600080fd5b858560208301376000602087830101525050509392505050565b60006020828403121561301457600080fd5b813567ffffffffffffffff81111561302b57600080fd5b8201601f8101841361303c57600080fd5b61185484823560208401612f8c565b60006020828403121561305d57600080fd5b6127ae82612f30565b60008060006060848603121561307b57600080fd5b61308484612f30565b925061309260208501612f30565b9150604084013590509250925092565b803560ff81168114612f4757600080fd5b6000602082840312156130c557600080fd5b6127ae826130a2565b600080604083850312156130e157600080fd5b6130ea83612f30565b9150602083013580151581146130ff57600080fd5b809150509250929050565b6000806000806080858703121561312057600080fd5b84359350602085013592506040850135915061313e606086016130a2565b905092959194509250565b6000806000806080858703121561315f57600080fd5b61316885612f30565b935061317660208601612f30565b925060408501359150606085013567ffffffffffffffff81111561319957600080fd5b8501601f810187136131aa57600080fd5b6131b987823560208401612f8c565b91505092959194509250565b600080604083850312156131d857600080fd5b6131e183612f30565b91506131ef60208401612f30565b90509250929050565b600181811c9082168061320c57607f821691505b60208210810361322c57634e487b7160e01b600052602260045260246000fd5b50919050565b634e487b7160e01b600052601160045260246000fd5b808201808211156104b3576104b3613232565b634e487b7160e01b600052603260045260246000fd5b60006001820161328357613283613232565b5060010190565b6020808252602d908201527f4552433732313a2063616c6c6572206973206e6f7420746f6b656e206f776e6560408201526c1c881bdc88185c1c1c9bdd9959609a1b606082015260800190565b60ff81811683821601908111156104b3576104b3613232565b634e487b7160e01b600052601260045260246000fd5b600060ff831680613319576133196132f0565b8060ff84160691505092915050565b818103818111156104b3576104b3613232565b634e487b7160e01b600052603160045260246000fd5b6000815480845260208085019450836000528060002060005b838110156133865781548752958201956001918201910161336a565b509495945050505050565b60006101008a835289602084015288604084015260ff881660608401528060808401526133c081840188613351565b905082810360a08401526133d48187613351565b905082810360c08401526133e88186613351565b905082810360e08401526133fc8185613351565b9b9a5050505050505050505050565b6000835161341d818460208801612eb4565b835190830190613431818360208801612eb4565b01949350505050565b6001600160a01b038616815260a06020820181905260009061345e90830187613351565b82810360408401526134708187613351565b905082810360608401526134848186613351565b905082810360808401526134988185613351565b98975050505050505050565b60208082526025908201527f4552433732313a207472616e736665722066726f6d20696e636f72726563742060408201526437bbb732b960d91b606082015260800190565b6000826134f8576134f86132f0565b500690565b600060ff821660ff810361351357613513613232565b60010192915050565b60ff82811682821603908111156104b3576104b3613232565b60208082526032908201527f4552433732313a207472616e7366657220746f206e6f6e20455243373231526560408201527131b2b4bb32b91034b6b83632b6b2b73a32b960711b606082015260800190565b60008161359657613596613232565b506000190190565b601f82111561068757600081815260208120601f850160051c810160208610156135c55750805b601f850160051c820191505b818110156135e4578281556001016135d1565b505050505050565b815167ffffffffffffffff81111561360657613606612f76565b61361a8161361484546131f8565b8461359e565b602080601f83116001811461364f57600084156136375750858301515b600019600386901b1c1916600185901b1785556135e4565b600085815260208120601f198616915b8281101561367e5788860151825594840194600190910190840161365f565b508582101561369c5787850151600019600388901b60f8161c191681555b5050505050600190811b01905550565b6001600160a01b03858116825284166020820152604081018390526080606082018190526000906136df90830184612ed8565b9695505050505050565b6000602082840312156136fb57600080fd5b81516127ae81612e8156fea2646970667358221220bc07f340afeed855d6a6e9865ae0d1a43335fb14181986b924a7a78bb41d9a2664736f6c63430008120033",
  "linkReferences": {},
  "deployedLinkReferences": {}
}